{
	"contracts/Library.sol": {
		"HumanContract": {
			"abi": [
				{
					"inputs": [],
					"name": "newYear",
					"outputs": [],
					"stateMutability": "nonpayable",
					"type": "function"
				},
				{
					"inputs": [],
					"name": "show",
					"outputs": [
						{
							"internalType": "uint256",
							"name": "",
							"type": "uint256"
						}
					],
					"stateMutability": "view",
					"type": "function"
				}
			],
			"devdoc": {
				"kind": "dev",
				"methods": {},
				"version": 1
			},
			"evm": {
				"assembly": "    /* \"contracts/Library.sol\":2568:2812  contract HumanContract {... */\n  mstore(0x40, 0x80)\n  callvalue\n  dup1\n  iszero\n  tag_1\n  jumpi\n  0x00\n  dup1\n  revert\ntag_1:\n  pop\n  dataSize(sub_0)\n  dup1\n  dataOffset(sub_0)\n  0x00\n  codecopy\n  0x00\n  return\nstop\n\nsub_0: assembly {\n        /* \"contracts/Library.sol\":2568:2812  contract HumanContract {... */\n      mstore(0x40, 0x80)\n      callvalue\n      dup1\n      iszero\n      tag_1\n      jumpi\n      0x00\n      dup1\n      revert\n    tag_1:\n      pop\n      jumpi(tag_2, lt(calldatasize, 0x04))\n      shr(0xe0, calldataload(0x00))\n      dup1\n      0xcc80f6f3\n      eq\n      tag_3\n      jumpi\n      dup1\n      0xfb0b22f7\n      eq\n      tag_4\n      jumpi\n    tag_2:\n      0x00\n      dup1\n      revert\n        /* \"contracts/Library.sol\":2721:2810  function show() public view returns(uint){... */\n    tag_3:\n      tag_5\n      tag_6\n      jump\t// in\n    tag_5:\n      mload(0x40)\n      tag_7\n      swap2\n      swap1\n      tag_8\n      jump\t// in\n    tag_7:\n      mload(0x40)\n      dup1\n      swap2\n      sub\n      swap1\n      return\n        /* \"contracts/Library.sol\":2640:2715  function newYear() public {... */\n    tag_4:\n      tag_9\n      tag_10\n      jump\t// in\n    tag_9:\n      stop\n        /* \"contracts/Library.sol\":2721:2810  function show() public view returns(uint){... */\n    tag_6:\n        /* \"contracts/Library.sol\":2757:2761  uint */\n      0x00\n        /* \"contracts/Library.sol\":2779:2784  Human */\n      linkerSymbol(\"ade389c41c6f717ab9b9bde3298d772ad6b6cfa1e47e30e6d7a6752c8cf9c44a\")\n        /* \"contracts/Library.sol\":2779:2792  Human.showAge */\n      0x90ba13bd\n        /* \"contracts/Library.sol\":2793:2799  people */\n      0x00\n        /* \"contracts/Library.sol\":2793:2802  people[0] */\n      dup1\n        /* \"contracts/Library.sol\":2800:2801  0 */\n      dup1\n        /* \"contracts/Library.sol\":2793:2802  people[0] */\n      dup2\n      mstore\n      0x20\n      add\n      swap1\n      dup2\n      mstore\n      0x20\n      add\n      0x00\n      keccak256\n        /* \"contracts/Library.sol\":2779:2803  Human.showAge(people[0]) */\n      mload(0x40)\n      dup3\n      0xffffffff\n      and\n      0xe0\n      shl\n      dup2\n      mstore\n      0x04\n      add\n      tag_12\n      swap2\n      swap1\n      tag_13\n      jump\t// in\n    tag_12:\n      0x20\n      mload(0x40)\n      dup1\n      dup4\n      sub\n      dup2\n      dup7\n      gas\n      delegatecall\n      iszero\n      dup1\n      iszero\n      tag_15\n      jumpi\n      returndatasize\n      0x00\n      dup1\n      returndatacopy\n      revert(0x00, returndatasize)\n    tag_15:\n      pop\n      pop\n      pop\n      pop\n      mload(0x40)\n      returndatasize\n      not(0x1f)\n      0x1f\n      dup3\n      add\n      and\n      dup3\n      add\n      dup1\n      0x40\n      mstore\n      pop\n      dup2\n      add\n      swap1\n      tag_16\n      swap2\n      swap1\n      tag_17\n      jump\t// in\n    tag_16:\n        /* \"contracts/Library.sol\":2772:2803  return Human.showAge(people[0]) */\n      swap1\n      pop\n        /* \"contracts/Library.sol\":2721:2810  function show() public view returns(uint){... */\n      swap1\n      jump\t// out\n        /* \"contracts/Library.sol\":2640:2715  function newYear() public {... */\n    tag_10:\n        /* \"contracts/Library.sol\":2683:2688  Human */\n      linkerSymbol(\"ade389c41c6f717ab9b9bde3298d772ad6b6cfa1e47e30e6d7a6752c8cf9c44a\")\n        /* \"contracts/Library.sol\":2683:2697  Human.birthday */\n      0x16d76d21\n        /* \"contracts/Library.sol\":2698:2704  people */\n      0x00\n        /* \"contracts/Library.sol\":2698:2707  people[0] */\n      dup1\n        /* \"contracts/Library.sol\":2705:2706  0 */\n      dup1\n        /* \"contracts/Library.sol\":2698:2707  people[0] */\n      dup2\n      mstore\n      0x20\n      add\n      swap1\n      dup2\n      mstore\n      0x20\n      add\n      0x00\n      keccak256\n        /* \"contracts/Library.sol\":2683:2708  Human.birthday(people[0]) */\n      mload(0x40)\n      dup3\n      0xffffffff\n      and\n      0xe0\n      shl\n      dup2\n      mstore\n      0x04\n      add\n      tag_19\n      swap2\n      swap1\n      tag_13\n      jump\t// in\n    tag_19:\n      0x00\n      mload(0x40)\n      dup1\n      dup4\n      sub\n      dup2\n      dup7\n      dup1\n      extcodesize\n      iszero\n      dup1\n      iszero\n      tag_20\n      jumpi\n      0x00\n      dup1\n      revert\n    tag_20:\n      pop\n      gas\n      delegatecall\n      iszero\n      dup1\n      iszero\n      tag_22\n      jumpi\n      returndatasize\n      0x00\n      dup1\n      returndatacopy\n      revert(0x00, returndatasize)\n    tag_22:\n      pop\n      pop\n      pop\n      pop\n        /* \"contracts/Library.sol\":2640:2715  function newYear() public {... */\n      jump\t// out\n        /* \"#utility.yul\":7:84   */\n    tag_23:\n        /* \"#utility.yul\":44:51   */\n      0x00\n        /* \"#utility.yul\":73:78   */\n      dup2\n        /* \"#utility.yul\":62:78   */\n      swap1\n      pop\n        /* \"#utility.yul\":7:84   */\n      swap2\n      swap1\n      pop\n      jump\t// out\n        /* \"#utility.yul\":90:208   */\n    tag_24:\n        /* \"#utility.yul\":177:201   */\n      tag_34\n        /* \"#utility.yul\":195:200   */\n      dup2\n        /* \"#utility.yul\":177:201   */\n      tag_23\n      jump\t// in\n    tag_34:\n        /* \"#utility.yul\":172:175   */\n      dup3\n        /* \"#utility.yul\":165:202   */\n      mstore\n        /* \"#utility.yul\":90:208   */\n      pop\n      pop\n      jump\t// out\n        /* \"#utility.yul\":214:436   */\n    tag_8:\n        /* \"#utility.yul\":307:311   */\n      0x00\n        /* \"#utility.yul\":345:347   */\n      0x20\n        /* \"#utility.yul\":334:343   */\n      dup3\n        /* \"#utility.yul\":330:348   */\n      add\n        /* \"#utility.yul\":322:348   */\n      swap1\n      pop\n        /* \"#utility.yul\":358:429   */\n      tag_36\n        /* \"#utility.yul\":426:427   */\n      0x00\n        /* \"#utility.yul\":415:424   */\n      dup4\n        /* \"#utility.yul\":411:428   */\n      add\n        /* \"#utility.yul\":402:408   */\n      dup5\n        /* \"#utility.yul\":358:429   */\n      tag_24\n      jump\t// in\n    tag_36:\n        /* \"#utility.yul\":214:436   */\n      swap3\n      swap2\n      pop\n      pop\n      jump\t// out\n        /* \"#utility.yul\":442:569   */\n    tag_25:\n        /* \"#utility.yul\":557:562   */\n      dup1\n        /* \"#utility.yul\":552:555   */\n      dup3\n        /* \"#utility.yul\":545:563   */\n      mstore\n        /* \"#utility.yul\":442:569   */\n      pop\n      pop\n      jump\t// out\n        /* \"#utility.yul\":575:853   */\n    tag_13:\n        /* \"#utility.yul\":696:700   */\n      0x00\n        /* \"#utility.yul\":734:736   */\n      0x20\n        /* \"#utility.yul\":723:732   */\n      dup3\n        /* \"#utility.yul\":719:737   */\n      add\n        /* \"#utility.yul\":711:737   */\n      swap1\n      pop\n        /* \"#utility.yul\":747:846   */\n      tag_39\n        /* \"#utility.yul\":843:844   */\n      0x00\n        /* \"#utility.yul\":832:841   */\n      dup4\n        /* \"#utility.yul\":828:845   */\n      add\n        /* \"#utility.yul\":819:825   */\n      dup5\n        /* \"#utility.yul\":747:846   */\n      tag_25\n      jump\t// in\n    tag_39:\n        /* \"#utility.yul\":575:853   */\n      swap3\n      swap2\n      pop\n      pop\n      jump\t// out\n        /* \"#utility.yul\":940:1057   */\n    tag_27:\n        /* \"#utility.yul\":1049:1050   */\n      0x00\n        /* \"#utility.yul\":1046:1047   */\n      dup1\n        /* \"#utility.yul\":1039:1051   */\n      revert\n        /* \"#utility.yul\":1186:1308   */\n    tag_29:\n        /* \"#utility.yul\":1259:1283   */\n      tag_44\n        /* \"#utility.yul\":1277:1282   */\n      dup2\n        /* \"#utility.yul\":1259:1283   */\n      tag_23\n      jump\t// in\n    tag_44:\n        /* \"#utility.yul\":1252:1257   */\n      dup2\n        /* \"#utility.yul\":1249:1284   */\n      eq\n        /* \"#utility.yul\":1239:1302   */\n      tag_45\n      jumpi\n        /* \"#utility.yul\":1298:1299   */\n      0x00\n        /* \"#utility.yul\":1295:1296   */\n      dup1\n        /* \"#utility.yul\":1288:1300   */\n      revert\n        /* \"#utility.yul\":1239:1302   */\n    tag_45:\n        /* \"#utility.yul\":1186:1308   */\n      pop\n      jump\t// out\n        /* \"#utility.yul\":1314:1457   */\n    tag_30:\n        /* \"#utility.yul\":1371:1376   */\n      0x00\n        /* \"#utility.yul\":1402:1408   */\n      dup2\n        /* \"#utility.yul\":1396:1409   */\n      mload\n        /* \"#utility.yul\":1387:1409   */\n      swap1\n      pop\n        /* \"#utility.yul\":1418:1451   */\n      tag_47\n        /* \"#utility.yul\":1445:1450   */\n      dup2\n        /* \"#utility.yul\":1418:1451   */\n      tag_29\n      jump\t// in\n    tag_47:\n        /* \"#utility.yul\":1314:1457   */\n      swap3\n      swap2\n      pop\n      pop\n      jump\t// out\n        /* \"#utility.yul\":1463:1814   */\n    tag_17:\n        /* \"#utility.yul\":1533:1539   */\n      0x00\n        /* \"#utility.yul\":1582:1584   */\n      0x20\n        /* \"#utility.yul\":1570:1579   */\n      dup3\n        /* \"#utility.yul\":1561:1568   */\n      dup5\n        /* \"#utility.yul\":1557:1580   */\n      sub\n        /* \"#utility.yul\":1553:1585   */\n      slt\n        /* \"#utility.yul\":1550:1669   */\n      iszero\n      tag_49\n      jumpi\n        /* \"#utility.yul\":1588:1667   */\n      tag_50\n      tag_27\n      jump\t// in\n    tag_50:\n        /* \"#utility.yul\":1550:1669   */\n    tag_49:\n        /* \"#utility.yul\":1708:1709   */\n      0x00\n        /* \"#utility.yul\":1733:1797   */\n      tag_51\n        /* \"#utility.yul\":1789:1796   */\n      dup5\n        /* \"#utility.yul\":1780:1786   */\n      dup3\n        /* \"#utility.yul\":1769:1778   */\n      dup6\n        /* \"#utility.yul\":1765:1787   */\n      add\n        /* \"#utility.yul\":1733:1797   */\n      tag_30\n      jump\t// in\n    tag_51:\n        /* \"#utility.yul\":1723:1797   */\n      swap2\n      pop\n        /* \"#utility.yul\":1679:1807   */\n      pop\n        /* \"#utility.yul\":1463:1814   */\n      swap3\n      swap2\n      pop\n      pop\n      jump\t// out\n\n    auxdata: 0xa26469706673582212200fdeb84f1e988eee58abc413ce158ac4acc8f37f1066b0c402ee09664777f41264736f6c63430008120033\n}\n",
				"bytecode": {
					"linkReferences": {
						"contracts/Library.sol": {
							"Human": [
								{
									"length": 20,
									"start": 135
								},
								{
									"length": 20,
									"start": 277
								}
							]
						}
					},
					"object": "608060405234801561001057600080fd5b50610257806100206000396000f3fe608060405234801561001057600080fd5b50600436106100365760003560e01c8063cc80f6f31461003b578063fb0b22f714610059575b600080fd5b610043610063565b6040516100509190610186565b60405180910390f35b6100616100f3565b005b600073__$ade389c41c6f717ab9b9bde3298d772ad6$__6390ba13bd6000808081526020019081526020016000206040518263ffffffff1660e01b81526004016100ad91906101a8565b602060405180830381865af41580156100ca573d6000803e3d6000fd5b505050506040513d601f19601f820116820180604052508101906100ee91906101f4565b905090565b73__$ade389c41c6f717ab9b9bde3298d772ad6$__6316d76d216000808081526020019081526020016000206040518263ffffffff1660e01b815260040161013b91906101a8565b60006040518083038186803b15801561015357600080fd5b505af4158015610167573d6000803e3d6000fd5b50505050565b6000819050919050565b6101808161016d565b82525050565b600060208201905061019b6000830184610177565b92915050565b8082525050565b60006020820190506101bd60008301846101a1565b92915050565b600080fd5b6101d18161016d565b81146101dc57600080fd5b50565b6000815190506101ee816101c8565b92915050565b60006020828403121561020a576102096101c3565b5b6000610218848285016101df565b9150509291505056fea26469706673582212200fdeb84f1e988eee58abc413ce158ac4acc8f37f1066b0c402ee09664777f41264736f6c63430008120033",
					"opcodes": "PUSH1 0x80 PUSH1 0x40 MSTORE CALLVALUE DUP1 ISZERO PUSH2 0x10 JUMPI PUSH1 0x0 DUP1 REVERT JUMPDEST POP PUSH2 0x257 DUP1 PUSH2 0x20 PUSH1 0x0 CODECOPY PUSH1 0x0 RETURN INVALID PUSH1 0x80 PUSH1 0x40 MSTORE CALLVALUE DUP1 ISZERO PUSH2 0x10 JUMPI PUSH1 0x0 DUP1 REVERT JUMPDEST POP PUSH1 0x4 CALLDATASIZE LT PUSH2 0x36 JUMPI PUSH1 0x0 CALLDATALOAD PUSH1 0xE0 SHR DUP1 PUSH4 0xCC80F6F3 EQ PUSH2 0x3B JUMPI DUP1 PUSH4 0xFB0B22F7 EQ PUSH2 0x59 JUMPI JUMPDEST PUSH1 0x0 DUP1 REVERT JUMPDEST PUSH2 0x43 PUSH2 0x63 JUMP JUMPDEST PUSH1 0x40 MLOAD PUSH2 0x50 SWAP2 SWAP1 PUSH2 0x186 JUMP JUMPDEST PUSH1 0x40 MLOAD DUP1 SWAP2 SUB SWAP1 RETURN JUMPDEST PUSH2 0x61 PUSH2 0xF3 JUMP JUMPDEST STOP JUMPDEST PUSH1 0x0 PUSH20 0x0 PUSH4 0x90BA13BD PUSH1 0x0 DUP1 DUP1 DUP2 MSTORE PUSH1 0x20 ADD SWAP1 DUP2 MSTORE PUSH1 0x20 ADD PUSH1 0x0 KECCAK256 PUSH1 0x40 MLOAD DUP3 PUSH4 0xFFFFFFFF AND PUSH1 0xE0 SHL DUP2 MSTORE PUSH1 0x4 ADD PUSH2 0xAD SWAP2 SWAP1 PUSH2 0x1A8 JUMP JUMPDEST PUSH1 0x20 PUSH1 0x40 MLOAD DUP1 DUP4 SUB DUP2 DUP7 GAS DELEGATECALL ISZERO DUP1 ISZERO PUSH2 0xCA JUMPI RETURNDATASIZE PUSH1 0x0 DUP1 RETURNDATACOPY RETURNDATASIZE PUSH1 0x0 REVERT JUMPDEST POP POP POP POP PUSH1 0x40 MLOAD RETURNDATASIZE PUSH1 0x1F NOT PUSH1 0x1F DUP3 ADD AND DUP3 ADD DUP1 PUSH1 0x40 MSTORE POP DUP2 ADD SWAP1 PUSH2 0xEE SWAP2 SWAP1 PUSH2 0x1F4 JUMP JUMPDEST SWAP1 POP SWAP1 JUMP JUMPDEST PUSH20 0x0 PUSH4 0x16D76D21 PUSH1 0x0 DUP1 DUP1 DUP2 MSTORE PUSH1 0x20 ADD SWAP1 DUP2 MSTORE PUSH1 0x20 ADD PUSH1 0x0 KECCAK256 PUSH1 0x40 MLOAD DUP3 PUSH4 0xFFFFFFFF AND PUSH1 0xE0 SHL DUP2 MSTORE PUSH1 0x4 ADD PUSH2 0x13B SWAP2 SWAP1 PUSH2 0x1A8 JUMP JUMPDEST PUSH1 0x0 PUSH1 0x40 MLOAD DUP1 DUP4 SUB DUP2 DUP7 DUP1 EXTCODESIZE ISZERO DUP1 ISZERO PUSH2 0x153 JUMPI PUSH1 0x0 DUP1 REVERT JUMPDEST POP GAS DELEGATECALL ISZERO DUP1 ISZERO PUSH2 0x167 JUMPI RETURNDATASIZE PUSH1 0x0 DUP1 RETURNDATACOPY RETURNDATASIZE PUSH1 0x0 REVERT JUMPDEST POP POP POP POP JUMP JUMPDEST PUSH1 0x0 DUP2 SWAP1 POP SWAP2 SWAP1 POP JUMP JUMPDEST PUSH2 0x180 DUP2 PUSH2 0x16D JUMP JUMPDEST DUP3 MSTORE POP POP JUMP JUMPDEST PUSH1 0x0 PUSH1 0x20 DUP3 ADD SWAP1 POP PUSH2 0x19B PUSH1 0x0 DUP4 ADD DUP5 PUSH2 0x177 JUMP JUMPDEST SWAP3 SWAP2 POP POP JUMP JUMPDEST DUP1 DUP3 MSTORE POP POP JUMP JUMPDEST PUSH1 0x0 PUSH1 0x20 DUP3 ADD SWAP1 POP PUSH2 0x1BD PUSH1 0x0 DUP4 ADD DUP5 PUSH2 0x1A1 JUMP JUMPDEST SWAP3 SWAP2 POP POP JUMP JUMPDEST PUSH1 0x0 DUP1 REVERT JUMPDEST PUSH2 0x1D1 DUP2 PUSH2 0x16D JUMP JUMPDEST DUP2 EQ PUSH2 0x1DC JUMPI PUSH1 0x0 DUP1 REVERT JUMPDEST POP JUMP JUMPDEST PUSH1 0x0 DUP2 MLOAD SWAP1 POP PUSH2 0x1EE DUP2 PUSH2 0x1C8 JUMP JUMPDEST SWAP3 SWAP2 POP POP JUMP JUMPDEST PUSH1 0x0 PUSH1 0x20 DUP3 DUP5 SUB SLT ISZERO PUSH2 0x20A JUMPI PUSH2 0x209 PUSH2 0x1C3 JUMP JUMPDEST JUMPDEST PUSH1 0x0 PUSH2 0x218 DUP5 DUP3 DUP6 ADD PUSH2 0x1DF JUMP JUMPDEST SWAP2 POP POP SWAP3 SWAP2 POP POP JUMP INVALID LOG2 PUSH5 0x6970667358 0x22 SLT KECCAK256 0xF 0xDE 0xB8 0x4F 0x1E SWAP9 DUP15 0xEE PC 0xAB 0xC4 SGT 0xCE ISZERO DUP11 0xC4 0xAC 0xC8 RETURN PUSH32 0x1066B0C402EE09664777F41264736F6C63430008120033000000000000000000 "
				},
				"gasEstimates": {
					"creation": {
						"codeDepositCost": "119800",
						"executionCost": "165",
						"totalCost": "119965"
					},
					"external": {
						"newYear()": "infinite",
						"show()": "infinite"
					}
				},
				"methodIdentifiers": {
					"newYear()": "fb0b22f7",
					"show()": "cc80f6f3"
				}
			},
			"storageLayout": {
				"storage": [
					{
						"astId": 328,
						"contract": "contracts/Library.sol:HumanContract",
						"label": "people",
						"offset": 0,
						"slot": "0",
						"type": "t_mapping(t_uint256,t_struct(Person)297_storage)"
					}
				],
				"types": {
					"t_mapping(t_uint256,t_struct(Person)297_storage)": {
						"encoding": "mapping",
						"key": "t_uint256",
						"label": "mapping(uint256 => struct Human.Person)",
						"numberOfBytes": "32",
						"value": "t_struct(Person)297_storage"
					},
					"t_struct(Person)297_storage": {
						"encoding": "inplace",
						"label": "struct Human.Person",
						"members": [
							{
								"astId": 296,
								"contract": "contracts/Library.sol:HumanContract",
								"label": "age",
								"offset": 0,
								"slot": "0",
								"type": "t_uint256"
							}
						],
						"numberOfBytes": "32"
					},
					"t_uint256": {
						"encoding": "inplace",
						"label": "uint256",
						"numberOfBytes": "32"
					}
				}
			},
			"userdoc": {
				"kind": "user",
				"methods": {},
				"version": 1
			}
		}
	}
}