{
	"contracts/Errors.sol": {
		"Errors": {
			"abi": [
				{
					"inputs": [
						{
							"internalType": "string",
							"name": "reason",
							"type": "string"
						}
					],
					"name": "Deny",
					"type": "error"
				},
				{
					"inputs": [
						{
							"internalType": "address",
							"name": "user",
							"type": "address"
						},
						{
							"internalType": "uint256",
							"name": "exceedingAmount",
							"type": "uint256"
						}
					],
					"name": "ExceedingAmount",
					"type": "error"
				},
				{
					"stateMutability": "payable",
					"type": "fallback"
				},
				{
					"inputs": [],
					"name": "deposit",
					"outputs": [],
					"stateMutability": "payable",
					"type": "function"
				},
				{
					"inputs": [],
					"name": "totalBalance",
					"outputs": [
						{
							"internalType": "uint256",
							"name": "",
							"type": "uint256"
						}
					],
					"stateMutability": "view",
					"type": "function"
				},
				{
					"inputs": [
						{
							"internalType": "address",
							"name": "",
							"type": "address"
						}
					],
					"name": "userBalances",
					"outputs": [
						{
							"internalType": "uint256",
							"name": "",
							"type": "uint256"
						}
					],
					"stateMutability": "view",
					"type": "function"
				},
				{
					"inputs": [
						{
							"internalType": "uint256",
							"name": "_amount",
							"type": "uint256"
						}
					],
					"name": "withdraw",
					"outputs": [],
					"stateMutability": "nonpayable",
					"type": "function"
				},
				{
					"stateMutability": "payable",
					"type": "receive"
				}
			],
			"devdoc": {
				"kind": "dev",
				"methods": {},
				"version": 1
			},
			"evm": {
				"assembly": "    /* \"contracts/Errors.sol\":56:1272  contract Errors{... */\n  mstore(0x40, 0x80)\n  callvalue\n  dup1\n  iszero\n  tag_1\n  jumpi\n  0x00\n  dup1\n  revert\ntag_1:\n  pop\n  dataSize(sub_0)\n  dup1\n  dataOffset(sub_0)\n  0x00\n  codecopy\n  0x00\n  return\nstop\n\nsub_0: assembly {\n        /* \"contracts/Errors.sol\":56:1272  contract Errors{... */\n      mstore(0x40, 0x80)\n      jumpi(tag_1, lt(calldatasize, 0x04))\n      shr(0xe0, calldataload(0x00))\n      dup1\n      0x26224c64\n      eq\n      tag_3\n      jumpi\n      dup1\n      0x2e1a7d4d\n      eq\n      tag_4\n      jumpi\n      dup1\n      0xad7a672f\n      eq\n      tag_5\n      jumpi\n      dup1\n      0xd0e30db0\n      eq\n      tag_6\n      jumpi\n      jump(tag_2)\n    tag_1:\n      jumpi(tag_2, calldatasize)\n        /* \"contracts/Errors.sol\":310:337  Deny(\"No direct payments.\") */\n      mload(0x40)\n      0x1948a7bc00000000000000000000000000000000000000000000000000000000\n      dup2\n      mstore\n      0x04\n      add\n      tag_9\n      swap1\n      tag_10\n      jump\t// in\n    tag_9:\n      mload(0x40)\n      dup1\n      swap2\n      sub\n      swap1\n      revert\n        /* \"contracts/Errors.sol\":56:1272  contract Errors{... */\n    tag_2:\n        /* \"contracts/Errors.sol\":394:421  Deny(\"No direct payments.\") */\n      mload(0x40)\n      0x1948a7bc00000000000000000000000000000000000000000000000000000000\n      dup2\n      mstore\n      0x04\n      add\n      tag_13\n      swap1\n      tag_10\n      jump\t// in\n    tag_13:\n      mload(0x40)\n      dup1\n      swap2\n      sub\n      swap1\n      revert\n        /* \"contracts/Errors.sol\":115:162  mapping(address => uint256) public userBalances */\n    tag_3:\n      callvalue\n      dup1\n      iszero\n      tag_14\n      jumpi\n      0x00\n      dup1\n      revert\n    tag_14:\n      pop\n      tag_15\n      0x04\n      dup1\n      calldatasize\n      sub\n      dup2\n      add\n      swap1\n      tag_16\n      swap2\n      swap1\n      tag_17\n      jump\t// in\n    tag_16:\n      tag_18\n      jump\t// in\n    tag_15:\n      mload(0x40)\n      tag_19\n      swap2\n      swap1\n      tag_20\n      jump\t// in\n    tag_19:\n      mload(0x40)\n      dup1\n      swap2\n      sub\n      swap1\n      return\n        /* \"contracts/Errors.sol\":668:1145  function withdraw(uint256 _amount) noZero(_amount) external{... */\n    tag_4:\n      callvalue\n      dup1\n      iszero\n      tag_21\n      jumpi\n      0x00\n      dup1\n      revert\n    tag_21:\n      pop\n      tag_22\n      0x04\n      dup1\n      calldatasize\n      sub\n      dup2\n      add\n      swap1\n      tag_23\n      swap2\n      swap1\n      tag_24\n      jump\t// in\n    tag_23:\n      tag_25\n      jump\t// in\n    tag_22:\n      stop\n        /* \"contracts/Errors.sol\":82:109  uint256 public totalBalance */\n    tag_5:\n      callvalue\n      dup1\n      iszero\n      tag_26\n      jumpi\n      0x00\n      dup1\n      revert\n    tag_26:\n      pop\n      tag_27\n      tag_28\n      jump\t// in\n    tag_27:\n      mload(0x40)\n      tag_29\n      swap2\n      swap1\n      tag_20\n      jump\t// in\n    tag_29:\n      mload(0x40)\n      dup1\n      swap2\n      sub\n      swap1\n      return\n        /* \"contracts/Errors.sol\":434:662  function deposit() noZero(msg.value) external payable{... */\n    tag_6:\n      tag_30\n      tag_31\n      jump\t// in\n    tag_30:\n      stop\n        /* \"contracts/Errors.sol\":115:162  mapping(address => uint256) public userBalances */\n    tag_18:\n      mstore(0x20, 0x01)\n      dup1\n      0x00\n      mstore\n      keccak256(0x00, 0x40)\n      0x00\n      swap2\n      pop\n      swap1\n      pop\n      sload\n      dup2\n      jump\t// out\n        /* \"contracts/Errors.sol\":668:1145  function withdraw(uint256 _amount) noZero(_amount) external{... */\n    tag_25:\n        /* \"contracts/Errors.sol\":710:717  _amount */\n      dup1\n        /* \"contracts/Errors.sol\":1212:1213  0 */\n      0x00\n        /* \"contracts/Errors.sol\":1201:1208  _amount */\n      dup2\n        /* \"contracts/Errors.sol\":1201:1213  _amount != 0 */\n      sub\n        /* \"contracts/Errors.sol\":1193:1252  require(_amount != 0, \"Amount should be greater than zero\") */\n      tag_33\n      jumpi\n      mload(0x40)\n      0x08c379a000000000000000000000000000000000000000000000000000000000\n      dup2\n      mstore\n      0x04\n      add\n      tag_34\n      swap1\n      tag_35\n      jump\t// in\n    tag_34:\n      mload(0x40)\n      dup1\n      swap2\n      sub\n      swap1\n      revert\n    tag_33:\n        /* \"contracts/Errors.sol\":738:760  uint256 initialBalance */\n      0x00\n        /* \"contracts/Errors.sol\":763:775  totalBalance */\n      dup1\n      sload\n        /* \"contracts/Errors.sol\":738:775  uint256 initialBalance = totalBalance */\n      swap1\n      pop\n        /* \"contracts/Errors.sol\":816:823  _amount */\n      dup3\n        /* \"contracts/Errors.sol\":789:801  userBalances */\n      0x01\n        /* \"contracts/Errors.sol\":789:813  userBalances[msg.sender] */\n      0x00\n        /* \"contracts/Errors.sol\":802:812  msg.sender */\n      caller\n        /* \"contracts/Errors.sol\":789:813  userBalances[msg.sender] */\n      0xffffffffffffffffffffffffffffffffffffffff\n      and\n      0xffffffffffffffffffffffffffffffffffffffff\n      and\n      dup2\n      mstore\n      0x20\n      add\n      swap1\n      dup2\n      mstore\n      0x20\n      add\n      0x00\n      keccak256\n      sload\n        /* \"contracts/Errors.sol\":789:823  userBalances[msg.sender] < _amount */\n      lt\n        /* \"contracts/Errors.sol\":786:965  if(userBalances[msg.sender] < _amount){... */\n      iszero\n      tag_37\n      jumpi\n        /* \"contracts/Errors.sol\":907:917  msg.sender */\n      caller\n        /* \"contracts/Errors.sol\":929:941  userBalances */\n      0x01\n        /* \"contracts/Errors.sol\":929:953  userBalances[msg.sender] */\n      0x00\n        /* \"contracts/Errors.sol\":942:952  msg.sender */\n      caller\n        /* \"contracts/Errors.sol\":929:953  userBalances[msg.sender] */\n      0xffffffffffffffffffffffffffffffffffffffff\n      and\n      0xffffffffffffffffffffffffffffffffffffffff\n      and\n      dup2\n      mstore\n      0x20\n      add\n      swap1\n      dup2\n      mstore\n      0x20\n      add\n      0x00\n      keccak256\n      sload\n        /* \"contracts/Errors.sol\":919:926  _amount */\n      dup5\n        /* \"contracts/Errors.sol\":919:953  _amount - userBalances[msg.sender] */\n      tag_38\n      swap2\n      swap1\n      tag_39\n      jump\t// in\n    tag_38:\n        /* \"contracts/Errors.sol\":891:954  ExceedingAmount(msg.sender, _amount - userBalances[msg.sender]) */\n      mload(0x40)\n      0xb31a046900000000000000000000000000000000000000000000000000000000\n      dup2\n      mstore\n      0x04\n      add\n      tag_40\n      swap3\n      swap2\n      swap1\n      tag_41\n      jump\t// in\n    tag_40:\n      mload(0x40)\n      dup1\n      swap2\n      sub\n      swap1\n      revert\n        /* \"contracts/Errors.sol\":786:965  if(userBalances[msg.sender] < _amount){... */\n    tag_37:\n        /* \"contracts/Errors.sol\":991:998  _amount */\n      dup3\n        /* \"contracts/Errors.sol\":975:987  totalBalance */\n      0x00\n      dup1\n        /* \"contracts/Errors.sol\":975:998  totalBalance -= _amount */\n      dup3\n      dup3\n      sload\n      tag_42\n      swap2\n      swap1\n      tag_39\n      jump\t// in\n    tag_42:\n      swap3\n      pop\n      pop\n      dup2\n      swap1\n      sstore\n      pop\n        /* \"contracts/Errors.sol\":1036:1043  _amount */\n      dup3\n        /* \"contracts/Errors.sol\":1008:1020  userBalances */\n      0x01\n        /* \"contracts/Errors.sol\":1008:1032  userBalances[msg.sender] */\n      0x00\n        /* \"contracts/Errors.sol\":1021:1031  msg.sender */\n      caller\n        /* \"contracts/Errors.sol\":1008:1032  userBalances[msg.sender] */\n      0xffffffffffffffffffffffffffffffffffffffff\n      and\n      0xffffffffffffffffffffffffffffffffffffffff\n      and\n      dup2\n      mstore\n      0x20\n      add\n      swap1\n      dup2\n      mstore\n      0x20\n      add\n      0x00\n      keccak256\n      0x00\n        /* \"contracts/Errors.sol\":1008:1043  userBalances[msg.sender] -= _amount */\n      dup3\n      dup3\n      sload\n      tag_43\n      swap2\n      swap1\n      tag_39\n      jump\t// in\n    tag_43:\n      swap3\n      pop\n      pop\n      dup2\n      swap1\n      sstore\n      pop\n        /* \"contracts/Errors.sol\":1061:1071  msg.sender */\n      caller\n        /* \"contracts/Errors.sol\":1053:1081  payable(msg.sender).transfer */\n      0xffffffffffffffffffffffffffffffffffffffff\n      and\n        /* \"contracts/Errors.sol\":1053:1090  payable(msg.sender).transfer(_amount) */\n      0x08fc\n        /* \"contracts/Errors.sol\":1082:1089  _amount */\n      dup5\n        /* \"contracts/Errors.sol\":1053:1090  payable(msg.sender).transfer(_amount) */\n      swap1\n      dup2\n      iszero\n      mul\n      swap1\n      mload(0x40)\n      0x00\n      mload(0x40)\n      dup1\n      dup4\n      sub\n      dup2\n      dup6\n      dup9\n      dup9\n      call\n      swap4\n      pop\n      pop\n      pop\n      pop\n      iszero\n      dup1\n      iszero\n      tag_45\n      jumpi\n      returndatasize\n      0x00\n      dup1\n      returndatacopy\n      revert(0x00, returndatasize)\n    tag_45:\n      pop\n        /* \"contracts/Errors.sol\":1123:1137  initialBalance */\n      dup1\n        /* \"contracts/Errors.sol\":1108:1120  totalBalance */\n      sload(0x00)\n        /* \"contracts/Errors.sol\":1108:1137  totalBalance < initialBalance */\n      lt\n        /* \"contracts/Errors.sol\":1101:1138  assert(totalBalance < initialBalance) */\n      tag_46\n      jumpi\n      tag_47\n      tag_48\n      jump\t// in\n    tag_47:\n    tag_46:\n        /* \"contracts/Errors.sol\":727:1145  {... */\n      pop\n        /* \"contracts/Errors.sol\":668:1145  function withdraw(uint256 _amount) noZero(_amount) external{... */\n      pop\n      pop\n      jump\t// out\n        /* \"contracts/Errors.sol\":82:109  uint256 public totalBalance */\n    tag_28:\n      sload(0x00)\n      dup2\n      jump\t// out\n        /* \"contracts/Errors.sol\":434:662  function deposit() noZero(msg.value) external payable{... */\n    tag_31:\n        /* \"contracts/Errors.sol\":460:469  msg.value */\n      callvalue\n        /* \"contracts/Errors.sol\":1212:1213  0 */\n      0x00\n        /* \"contracts/Errors.sol\":1201:1208  _amount */\n      dup2\n        /* \"contracts/Errors.sol\":1201:1213  _amount != 0 */\n      sub\n        /* \"contracts/Errors.sol\":1193:1252  require(_amount != 0, \"Amount should be greater than zero\") */\n      tag_50\n      jumpi\n      mload(0x40)\n      0x08c379a000000000000000000000000000000000000000000000000000000000\n      dup2\n      mstore\n      0x04\n      add\n      tag_51\n      swap1\n      tag_35\n      jump\t// in\n    tag_51:\n      mload(0x40)\n      dup1\n      swap2\n      sub\n      swap1\n      revert\n    tag_50:\n        /* \"contracts/Errors.sol\":518:525  1 ether */\n      0x0de0b6b3a7640000\n        /* \"contracts/Errors.sol\":505:514  msg.value */\n      callvalue\n        /* \"contracts/Errors.sol\":505:525  msg.value == 1 ether */\n      eq\n        /* \"contracts/Errors.sol\":497:554  require(msg.value == 1 ether, \"Only payments in 1 ether\") */\n      tag_53\n      jumpi\n      mload(0x40)\n      0x08c379a000000000000000000000000000000000000000000000000000000000\n      dup2\n      mstore\n      0x04\n      add\n      tag_54\n      swap1\n      tag_55\n      jump\t// in\n    tag_54:\n      mload(0x40)\n      dup1\n      swap2\n      sub\n      swap1\n      revert\n    tag_53:\n        /* \"contracts/Errors.sol\":581:588  1 ether */\n      0x0de0b6b3a7640000\n        /* \"contracts/Errors.sol\":565:577  totalBalance */\n      0x00\n      dup1\n        /* \"contracts/Errors.sol\":565:588  totalBalance += 1 ether */\n      dup3\n      dup3\n      sload\n      tag_56\n      swap2\n      swap1\n      tag_57\n      jump\t// in\n    tag_56:\n      swap3\n      pop\n      pop\n      dup2\n      swap1\n      sstore\n      pop\n        /* \"contracts/Errors.sol\":634:641  1 ether */\n      0x0de0b6b3a7640000\n        /* \"contracts/Errors.sol\":606:618  userBalances */\n      0x01\n        /* \"contracts/Errors.sol\":606:630  userBalances[msg.sender] */\n      0x00\n        /* \"contracts/Errors.sol\":619:629  msg.sender */\n      caller\n        /* \"contracts/Errors.sol\":606:630  userBalances[msg.sender] */\n      0xffffffffffffffffffffffffffffffffffffffff\n      and\n      0xffffffffffffffffffffffffffffffffffffffff\n      and\n      dup2\n      mstore\n      0x20\n      add\n      swap1\n      dup2\n      mstore\n      0x20\n      add\n      0x00\n      keccak256\n      0x00\n        /* \"contracts/Errors.sol\":606:641  userBalances[msg.sender] += 1 ether */\n      dup3\n      dup3\n      sload\n      tag_58\n      swap2\n      swap1\n      tag_57\n      jump\t// in\n    tag_58:\n      swap3\n      pop\n      pop\n      dup2\n      swap1\n      sstore\n      pop\n        /* \"contracts/Errors.sol\":434:662  function deposit() noZero(msg.value) external payable{... */\n      pop\n      jump\t// out\n        /* \"#utility.yul\":7:176   */\n    tag_59:\n        /* \"#utility.yul\":91:102   */\n      0x00\n        /* \"#utility.yul\":125:131   */\n      dup3\n        /* \"#utility.yul\":120:123   */\n      dup3\n        /* \"#utility.yul\":113:132   */\n      mstore\n        /* \"#utility.yul\":165:169   */\n      0x20\n        /* \"#utility.yul\":160:163   */\n      dup3\n        /* \"#utility.yul\":156:170   */\n      add\n        /* \"#utility.yul\":141:170   */\n      swap1\n      pop\n        /* \"#utility.yul\":7:176   */\n      swap3\n      swap2\n      pop\n      pop\n      jump\t// out\n        /* \"#utility.yul\":182:351   */\n    tag_60:\n        /* \"#utility.yul\":322:343   */\n      0x4e6f20646972656374207061796d656e74732e00000000000000000000000000\n        /* \"#utility.yul\":318:319   */\n      0x00\n        /* \"#utility.yul\":310:316   */\n      dup3\n        /* \"#utility.yul\":306:320   */\n      add\n        /* \"#utility.yul\":299:344   */\n      mstore\n        /* \"#utility.yul\":182:351   */\n      pop\n      jump\t// out\n        /* \"#utility.yul\":357:723   */\n    tag_61:\n        /* \"#utility.yul\":499:502   */\n      0x00\n        /* \"#utility.yul\":520:587   */\n      tag_83\n        /* \"#utility.yul\":584:586   */\n      0x13\n        /* \"#utility.yul\":579:582   */\n      dup4\n        /* \"#utility.yul\":520:587   */\n      tag_59\n      jump\t// in\n    tag_83:\n        /* \"#utility.yul\":513:587   */\n      swap2\n      pop\n        /* \"#utility.yul\":596:689   */\n      tag_84\n        /* \"#utility.yul\":685:688   */\n      dup3\n        /* \"#utility.yul\":596:689   */\n      tag_60\n      jump\t// in\n    tag_84:\n        /* \"#utility.yul\":714:716   */\n      0x20\n        /* \"#utility.yul\":709:712   */\n      dup3\n        /* \"#utility.yul\":705:717   */\n      add\n        /* \"#utility.yul\":698:717   */\n      swap1\n      pop\n        /* \"#utility.yul\":357:723   */\n      swap2\n      swap1\n      pop\n      jump\t// out\n        /* \"#utility.yul\":729:1148   */\n    tag_10:\n        /* \"#utility.yul\":895:899   */\n      0x00\n        /* \"#utility.yul\":933:935   */\n      0x20\n        /* \"#utility.yul\":922:931   */\n      dup3\n        /* \"#utility.yul\":918:936   */\n      add\n        /* \"#utility.yul\":910:936   */\n      swap1\n      pop\n        /* \"#utility.yul\":982:991   */\n      dup2\n        /* \"#utility.yul\":976:980   */\n      dup2\n        /* \"#utility.yul\":972:992   */\n      sub\n        /* \"#utility.yul\":968:969   */\n      0x00\n        /* \"#utility.yul\":957:966   */\n      dup4\n        /* \"#utility.yul\":953:970   */\n      add\n        /* \"#utility.yul\":946:993   */\n      mstore\n        /* \"#utility.yul\":1010:1141   */\n      tag_86\n        /* \"#utility.yul\":1136:1140   */\n      dup2\n        /* \"#utility.yul\":1010:1141   */\n      tag_61\n      jump\t// in\n    tag_86:\n        /* \"#utility.yul\":1002:1141   */\n      swap1\n      pop\n        /* \"#utility.yul\":729:1148   */\n      swap2\n      swap1\n      pop\n      jump\t// out\n        /* \"#utility.yul\":1235:1352   */\n    tag_63:\n        /* \"#utility.yul\":1344:1345   */\n      0x00\n        /* \"#utility.yul\":1341:1342   */\n      dup1\n        /* \"#utility.yul\":1334:1346   */\n      revert\n        /* \"#utility.yul\":1481:1607   */\n    tag_65:\n        /* \"#utility.yul\":1518:1525   */\n      0x00\n        /* \"#utility.yul\":1558:1600   */\n      0xffffffffffffffffffffffffffffffffffffffff\n        /* \"#utility.yul\":1551:1556   */\n      dup3\n        /* \"#utility.yul\":1547:1601   */\n      and\n        /* \"#utility.yul\":1536:1601   */\n      swap1\n      pop\n        /* \"#utility.yul\":1481:1607   */\n      swap2\n      swap1\n      pop\n      jump\t// out\n        /* \"#utility.yul\":1613:1709   */\n    tag_66:\n        /* \"#utility.yul\":1650:1657   */\n      0x00\n        /* \"#utility.yul\":1679:1703   */\n      tag_92\n        /* \"#utility.yul\":1697:1702   */\n      dup3\n        /* \"#utility.yul\":1679:1703   */\n      tag_65\n      jump\t// in\n    tag_92:\n        /* \"#utility.yul\":1668:1703   */\n      swap1\n      pop\n        /* \"#utility.yul\":1613:1709   */\n      swap2\n      swap1\n      pop\n      jump\t// out\n        /* \"#utility.yul\":1715:1837   */\n    tag_67:\n        /* \"#utility.yul\":1788:1812   */\n      tag_94\n        /* \"#utility.yul\":1806:1811   */\n      dup2\n        /* \"#utility.yul\":1788:1812   */\n      tag_66\n      jump\t// in\n    tag_94:\n        /* \"#utility.yul\":1781:1786   */\n      dup2\n        /* \"#utility.yul\":1778:1813   */\n      eq\n        /* \"#utility.yul\":1768:1831   */\n      tag_95\n      jumpi\n        /* \"#utility.yul\":1827:1828   */\n      0x00\n        /* \"#utility.yul\":1824:1825   */\n      dup1\n        /* \"#utility.yul\":1817:1829   */\n      revert\n        /* \"#utility.yul\":1768:1831   */\n    tag_95:\n        /* \"#utility.yul\":1715:1837   */\n      pop\n      jump\t// out\n        /* \"#utility.yul\":1843:1982   */\n    tag_68:\n        /* \"#utility.yul\":1889:1894   */\n      0x00\n        /* \"#utility.yul\":1927:1933   */\n      dup2\n        /* \"#utility.yul\":1914:1934   */\n      calldataload\n        /* \"#utility.yul\":1905:1934   */\n      swap1\n      pop\n        /* \"#utility.yul\":1943:1976   */\n      tag_97\n        /* \"#utility.yul\":1970:1975   */\n      dup2\n        /* \"#utility.yul\":1943:1976   */\n      tag_67\n      jump\t// in\n    tag_97:\n        /* \"#utility.yul\":1843:1982   */\n      swap3\n      swap2\n      pop\n      pop\n      jump\t// out\n        /* \"#utility.yul\":1988:2317   */\n    tag_17:\n        /* \"#utility.yul\":2047:2053   */\n      0x00\n        /* \"#utility.yul\":2096:2098   */\n      0x20\n        /* \"#utility.yul\":2084:2093   */\n      dup3\n        /* \"#utility.yul\":2075:2082   */\n      dup5\n        /* \"#utility.yul\":2071:2094   */\n      sub\n        /* \"#utility.yul\":2067:2099   */\n      slt\n        /* \"#utility.yul\":2064:2183   */\n      iszero\n      tag_99\n      jumpi\n        /* \"#utility.yul\":2102:2181   */\n      tag_100\n      tag_63\n      jump\t// in\n    tag_100:\n        /* \"#utility.yul\":2064:2183   */\n    tag_99:\n        /* \"#utility.yul\":2222:2223   */\n      0x00\n        /* \"#utility.yul\":2247:2300   */\n      tag_101\n        /* \"#utility.yul\":2292:2299   */\n      dup5\n        /* \"#utility.yul\":2283:2289   */\n      dup3\n        /* \"#utility.yul\":2272:2281   */\n      dup6\n        /* \"#utility.yul\":2268:2290   */\n      add\n        /* \"#utility.yul\":2247:2300   */\n      tag_68\n      jump\t// in\n    tag_101:\n        /* \"#utility.yul\":2237:2300   */\n      swap2\n      pop\n        /* \"#utility.yul\":2193:2310   */\n      pop\n        /* \"#utility.yul\":1988:2317   */\n      swap3\n      swap2\n      pop\n      pop\n      jump\t// out\n        /* \"#utility.yul\":2323:2400   */\n    tag_69:\n        /* \"#utility.yul\":2360:2367   */\n      0x00\n        /* \"#utility.yul\":2389:2394   */\n      dup2\n        /* \"#utility.yul\":2378:2394   */\n      swap1\n      pop\n        /* \"#utility.yul\":2323:2400   */\n      swap2\n      swap1\n      pop\n      jump\t// out\n        /* \"#utility.yul\":2406:2524   */\n    tag_70:\n        /* \"#utility.yul\":2493:2517   */\n      tag_104\n        /* \"#utility.yul\":2511:2516   */\n      dup2\n        /* \"#utility.yul\":2493:2517   */\n      tag_69\n      jump\t// in\n    tag_104:\n        /* \"#utility.yul\":2488:2491   */\n      dup3\n        /* \"#utility.yul\":2481:2518   */\n      mstore\n        /* \"#utility.yul\":2406:2524   */\n      pop\n      pop\n      jump\t// out\n        /* \"#utility.yul\":2530:2752   */\n    tag_20:\n        /* \"#utility.yul\":2623:2627   */\n      0x00\n        /* \"#utility.yul\":2661:2663   */\n      0x20\n        /* \"#utility.yul\":2650:2659   */\n      dup3\n        /* \"#utility.yul\":2646:2664   */\n      add\n        /* \"#utility.yul\":2638:2664   */\n      swap1\n      pop\n        /* \"#utility.yul\":2674:2745   */\n      tag_106\n        /* \"#utility.yul\":2742:2743   */\n      0x00\n        /* \"#utility.yul\":2731:2740   */\n      dup4\n        /* \"#utility.yul\":2727:2744   */\n      add\n        /* \"#utility.yul\":2718:2724   */\n      dup5\n        /* \"#utility.yul\":2674:2745   */\n      tag_70\n      jump\t// in\n    tag_106:\n        /* \"#utility.yul\":2530:2752   */\n      swap3\n      swap2\n      pop\n      pop\n      jump\t// out\n        /* \"#utility.yul\":2758:2880   */\n    tag_71:\n        /* \"#utility.yul\":2831:2855   */\n      tag_108\n        /* \"#utility.yul\":2849:2854   */\n      dup2\n        /* \"#utility.yul\":2831:2855   */\n      tag_69\n      jump\t// in\n    tag_108:\n        /* \"#utility.yul\":2824:2829   */\n      dup2\n        /* \"#utility.yul\":2821:2856   */\n      eq\n        /* \"#utility.yul\":2811:2874   */\n      tag_109\n      jumpi\n        /* \"#utility.yul\":2870:2871   */\n      0x00\n        /* \"#utility.yul\":2867:2868   */\n      dup1\n        /* \"#utility.yul\":2860:2872   */\n      revert\n        /* \"#utility.yul\":2811:2874   */\n    tag_109:\n        /* \"#utility.yul\":2758:2880   */\n      pop\n      jump\t// out\n        /* \"#utility.yul\":2886:3025   */\n    tag_72:\n        /* \"#utility.yul\":2932:2937   */\n      0x00\n        /* \"#utility.yul\":2970:2976   */\n      dup2\n        /* \"#utility.yul\":2957:2977   */\n      calldataload\n        /* \"#utility.yul\":2948:2977   */\n      swap1\n      pop\n        /* \"#utility.yul\":2986:3019   */\n      tag_111\n        /* \"#utility.yul\":3013:3018   */\n      dup2\n        /* \"#utility.yul\":2986:3019   */\n      tag_71\n      jump\t// in\n    tag_111:\n        /* \"#utility.yul\":2886:3025   */\n      swap3\n      swap2\n      pop\n      pop\n      jump\t// out\n        /* \"#utility.yul\":3031:3360   */\n    tag_24:\n        /* \"#utility.yul\":3090:3096   */\n      0x00\n        /* \"#utility.yul\":3139:3141   */\n      0x20\n        /* \"#utility.yul\":3127:3136   */\n      dup3\n        /* \"#utility.yul\":3118:3125   */\n      dup5\n        /* \"#utility.yul\":3114:3137   */\n      sub\n        /* \"#utility.yul\":3110:3142   */\n      slt\n        /* \"#utility.yul\":3107:3226   */\n      iszero\n      tag_113\n      jumpi\n        /* \"#utility.yul\":3145:3224   */\n      tag_114\n      tag_63\n      jump\t// in\n    tag_114:\n        /* \"#utility.yul\":3107:3226   */\n    tag_113:\n        /* \"#utility.yul\":3265:3266   */\n      0x00\n        /* \"#utility.yul\":3290:3343   */\n      tag_115\n        /* \"#utility.yul\":3335:3342   */\n      dup5\n        /* \"#utility.yul\":3326:3332   */\n      dup3\n        /* \"#utility.yul\":3315:3324   */\n      dup6\n        /* \"#utility.yul\":3311:3333   */\n      add\n        /* \"#utility.yul\":3290:3343   */\n      tag_72\n      jump\t// in\n    tag_115:\n        /* \"#utility.yul\":3280:3343   */\n      swap2\n      pop\n        /* \"#utility.yul\":3236:3353   */\n      pop\n        /* \"#utility.yul\":3031:3360   */\n      swap3\n      swap2\n      pop\n      pop\n      jump\t// out\n        /* \"#utility.yul\":3366:3587   */\n    tag_73:\n        /* \"#utility.yul\":3506:3540   */\n      0x416d6f756e742073686f756c642062652067726561746572207468616e207a65\n        /* \"#utility.yul\":3502:3503   */\n      0x00\n        /* \"#utility.yul\":3494:3500   */\n      dup3\n        /* \"#utility.yul\":3490:3504   */\n      add\n        /* \"#utility.yul\":3483:3541   */\n      mstore\n        /* \"#utility.yul\":3575:3579   */\n      0x726f000000000000000000000000000000000000000000000000000000000000\n        /* \"#utility.yul\":3570:3572   */\n      0x20\n        /* \"#utility.yul\":3562:3568   */\n      dup3\n        /* \"#utility.yul\":3558:3573   */\n      add\n        /* \"#utility.yul\":3551:3580   */\n      mstore\n        /* \"#utility.yul\":3366:3587   */\n      pop\n      jump\t// out\n        /* \"#utility.yul\":3593:3959   */\n    tag_74:\n        /* \"#utility.yul\":3735:3738   */\n      0x00\n        /* \"#utility.yul\":3756:3823   */\n      tag_118\n        /* \"#utility.yul\":3820:3822   */\n      0x22\n        /* \"#utility.yul\":3815:3818   */\n      dup4\n        /* \"#utility.yul\":3756:3823   */\n      tag_59\n      jump\t// in\n    tag_118:\n        /* \"#utility.yul\":3749:3823   */\n      swap2\n      pop\n        /* \"#utility.yul\":3832:3925   */\n      tag_119\n        /* \"#utility.yul\":3921:3924   */\n      dup3\n        /* \"#utility.yul\":3832:3925   */\n      tag_73\n      jump\t// in\n    tag_119:\n        /* \"#utility.yul\":3950:3952   */\n      0x40\n        /* \"#utility.yul\":3945:3948   */\n      dup3\n        /* \"#utility.yul\":3941:3953   */\n      add\n        /* \"#utility.yul\":3934:3953   */\n      swap1\n      pop\n        /* \"#utility.yul\":3593:3959   */\n      swap2\n      swap1\n      pop\n      jump\t// out\n        /* \"#utility.yul\":3965:4384   */\n    tag_35:\n        /* \"#utility.yul\":4131:4135   */\n      0x00\n        /* \"#utility.yul\":4169:4171   */\n      0x20\n        /* \"#utility.yul\":4158:4167   */\n      dup3\n        /* \"#utility.yul\":4154:4172   */\n      add\n        /* \"#utility.yul\":4146:4172   */\n      swap1\n      pop\n        /* \"#utility.yul\":4218:4227   */\n      dup2\n        /* \"#utility.yul\":4212:4216   */\n      dup2\n        /* \"#utility.yul\":4208:4228   */\n      sub\n        /* \"#utility.yul\":4204:4205   */\n      0x00\n        /* \"#utility.yul\":4193:4202   */\n      dup4\n        /* \"#utility.yul\":4189:4206   */\n      add\n        /* \"#utility.yul\":4182:4229   */\n      mstore\n        /* \"#utility.yul\":4246:4377   */\n      tag_121\n        /* \"#utility.yul\":4372:4376   */\n      dup2\n        /* \"#utility.yul\":4246:4377   */\n      tag_74\n      jump\t// in\n    tag_121:\n        /* \"#utility.yul\":4238:4377   */\n      swap1\n      pop\n        /* \"#utility.yul\":3965:4384   */\n      swap2\n      swap1\n      pop\n      jump\t// out\n        /* \"#utility.yul\":4390:4570   */\n    tag_75:\n        /* \"#utility.yul\":4438:4515   */\n      0x4e487b7100000000000000000000000000000000000000000000000000000000\n        /* \"#utility.yul\":4435:4436   */\n      0x00\n        /* \"#utility.yul\":4428:4516   */\n      mstore\n        /* \"#utility.yul\":4535:4539   */\n      0x11\n        /* \"#utility.yul\":4532:4533   */\n      0x04\n        /* \"#utility.yul\":4525:4540   */\n      mstore\n        /* \"#utility.yul\":4559:4563   */\n      0x24\n        /* \"#utility.yul\":4556:4557   */\n      0x00\n        /* \"#utility.yul\":4549:4564   */\n      revert\n        /* \"#utility.yul\":4576:4770   */\n    tag_39:\n        /* \"#utility.yul\":4616:4620   */\n      0x00\n        /* \"#utility.yul\":4636:4656   */\n      tag_124\n        /* \"#utility.yul\":4654:4655   */\n      dup3\n        /* \"#utility.yul\":4636:4656   */\n      tag_69\n      jump\t// in\n    tag_124:\n        /* \"#utility.yul\":4631:4656   */\n      swap2\n      pop\n        /* \"#utility.yul\":4670:4690   */\n      tag_125\n        /* \"#utility.yul\":4688:4689   */\n      dup4\n        /* \"#utility.yul\":4670:4690   */\n      tag_69\n      jump\t// in\n    tag_125:\n        /* \"#utility.yul\":4665:4690   */\n      swap3\n      pop\n        /* \"#utility.yul\":4714:4715   */\n      dup3\n        /* \"#utility.yul\":4711:4712   */\n      dup3\n        /* \"#utility.yul\":4707:4716   */\n      sub\n        /* \"#utility.yul\":4699:4716   */\n      swap1\n      pop\n        /* \"#utility.yul\":4738:4739   */\n      dup2\n        /* \"#utility.yul\":4732:4736   */\n      dup2\n        /* \"#utility.yul\":4729:4740   */\n      gt\n        /* \"#utility.yul\":4726:4763   */\n      iszero\n      tag_126\n      jumpi\n        /* \"#utility.yul\":4743:4761   */\n      tag_127\n      tag_75\n      jump\t// in\n    tag_127:\n        /* \"#utility.yul\":4726:4763   */\n    tag_126:\n        /* \"#utility.yul\":4576:4770   */\n      swap3\n      swap2\n      pop\n      pop\n      jump\t// out\n        /* \"#utility.yul\":4776:4894   */\n    tag_76:\n        /* \"#utility.yul\":4863:4887   */\n      tag_129\n        /* \"#utility.yul\":4881:4886   */\n      dup2\n        /* \"#utility.yul\":4863:4887   */\n      tag_66\n      jump\t// in\n    tag_129:\n        /* \"#utility.yul\":4858:4861   */\n      dup3\n        /* \"#utility.yul\":4851:4888   */\n      mstore\n        /* \"#utility.yul\":4776:4894   */\n      pop\n      pop\n      jump\t// out\n        /* \"#utility.yul\":4900:5232   */\n    tag_41:\n        /* \"#utility.yul\":5021:5025   */\n      0x00\n        /* \"#utility.yul\":5059:5061   */\n      0x40\n        /* \"#utility.yul\":5048:5057   */\n      dup3\n        /* \"#utility.yul\":5044:5062   */\n      add\n        /* \"#utility.yul\":5036:5062   */\n      swap1\n      pop\n        /* \"#utility.yul\":5072:5143   */\n      tag_131\n        /* \"#utility.yul\":5140:5141   */\n      0x00\n        /* \"#utility.yul\":5129:5138   */\n      dup4\n        /* \"#utility.yul\":5125:5142   */\n      add\n        /* \"#utility.yul\":5116:5122   */\n      dup6\n        /* \"#utility.yul\":5072:5143   */\n      tag_76\n      jump\t// in\n    tag_131:\n        /* \"#utility.yul\":5153:5225   */\n      tag_132\n        /* \"#utility.yul\":5221:5223   */\n      0x20\n        /* \"#utility.yul\":5210:5219   */\n      dup4\n        /* \"#utility.yul\":5206:5224   */\n      add\n        /* \"#utility.yul\":5197:5203   */\n      dup5\n        /* \"#utility.yul\":5153:5225   */\n      tag_70\n      jump\t// in\n    tag_132:\n        /* \"#utility.yul\":4900:5232   */\n      swap4\n      swap3\n      pop\n      pop\n      pop\n      jump\t// out\n        /* \"#utility.yul\":5238:5418   */\n    tag_48:\n        /* \"#utility.yul\":5286:5363   */\n      0x4e487b7100000000000000000000000000000000000000000000000000000000\n        /* \"#utility.yul\":5283:5284   */\n      0x00\n        /* \"#utility.yul\":5276:5364   */\n      mstore\n        /* \"#utility.yul\":5383:5387   */\n      0x01\n        /* \"#utility.yul\":5380:5381   */\n      0x04\n        /* \"#utility.yul\":5373:5388   */\n      mstore\n        /* \"#utility.yul\":5407:5411   */\n      0x24\n        /* \"#utility.yul\":5404:5405   */\n      0x00\n        /* \"#utility.yul\":5397:5412   */\n      revert\n        /* \"#utility.yul\":5424:5598   */\n    tag_77:\n        /* \"#utility.yul\":5564:5590   */\n      0x4f6e6c79207061796d656e747320696e20312065746865720000000000000000\n        /* \"#utility.yul\":5560:5561   */\n      0x00\n        /* \"#utility.yul\":5552:5558   */\n      dup3\n        /* \"#utility.yul\":5548:5562   */\n      add\n        /* \"#utility.yul\":5541:5591   */\n      mstore\n        /* \"#utility.yul\":5424:5598   */\n      pop\n      jump\t// out\n        /* \"#utility.yul\":5604:5970   */\n    tag_78:\n        /* \"#utility.yul\":5746:5749   */\n      0x00\n        /* \"#utility.yul\":5767:5834   */\n      tag_136\n        /* \"#utility.yul\":5831:5833   */\n      0x18\n        /* \"#utility.yul\":5826:5829   */\n      dup4\n        /* \"#utility.yul\":5767:5834   */\n      tag_59\n      jump\t// in\n    tag_136:\n        /* \"#utility.yul\":5760:5834   */\n      swap2\n      pop\n        /* \"#utility.yul\":5843:5936   */\n      tag_137\n        /* \"#utility.yul\":5932:5935   */\n      dup3\n        /* \"#utility.yul\":5843:5936   */\n      tag_77\n      jump\t// in\n    tag_137:\n        /* \"#utility.yul\":5961:5963   */\n      0x20\n        /* \"#utility.yul\":5956:5959   */\n      dup3\n        /* \"#utility.yul\":5952:5964   */\n      add\n        /* \"#utility.yul\":5945:5964   */\n      swap1\n      pop\n        /* \"#utility.yul\":5604:5970   */\n      swap2\n      swap1\n      pop\n      jump\t// out\n        /* \"#utility.yul\":5976:6395   */\n    tag_55:\n        /* \"#utility.yul\":6142:6146   */\n      0x00\n        /* \"#utility.yul\":6180:6182   */\n      0x20\n        /* \"#utility.yul\":6169:6178   */\n      dup3\n        /* \"#utility.yul\":6165:6183   */\n      add\n        /* \"#utility.yul\":6157:6183   */\n      swap1\n      pop\n        /* \"#utility.yul\":6229:6238   */\n      dup2\n        /* \"#utility.yul\":6223:6227   */\n      dup2\n        /* \"#utility.yul\":6219:6239   */\n      sub\n        /* \"#utility.yul\":6215:6216   */\n      0x00\n        /* \"#utility.yul\":6204:6213   */\n      dup4\n        /* \"#utility.yul\":6200:6217   */\n      add\n        /* \"#utility.yul\":6193:6240   */\n      mstore\n        /* \"#utility.yul\":6257:6388   */\n      tag_139\n        /* \"#utility.yul\":6383:6387   */\n      dup2\n        /* \"#utility.yul\":6257:6388   */\n      tag_78\n      jump\t// in\n    tag_139:\n        /* \"#utility.yul\":6249:6388   */\n      swap1\n      pop\n        /* \"#utility.yul\":5976:6395   */\n      swap2\n      swap1\n      pop\n      jump\t// out\n        /* \"#utility.yul\":6401:6592   */\n    tag_57:\n        /* \"#utility.yul\":6441:6444   */\n      0x00\n        /* \"#utility.yul\":6460:6480   */\n      tag_141\n        /* \"#utility.yul\":6478:6479   */\n      dup3\n        /* \"#utility.yul\":6460:6480   */\n      tag_69\n      jump\t// in\n    tag_141:\n        /* \"#utility.yul\":6455:6480   */\n      swap2\n      pop\n        /* \"#utility.yul\":6494:6514   */\n      tag_142\n        /* \"#utility.yul\":6512:6513   */\n      dup4\n        /* \"#utility.yul\":6494:6514   */\n      tag_69\n      jump\t// in\n    tag_142:\n        /* \"#utility.yul\":6489:6514   */\n      swap3\n      pop\n        /* \"#utility.yul\":6537:6538   */\n      dup3\n        /* \"#utility.yul\":6534:6535   */\n      dup3\n        /* \"#utility.yul\":6530:6539   */\n      add\n        /* \"#utility.yul\":6523:6539   */\n      swap1\n      pop\n        /* \"#utility.yul\":6558:6561   */\n      dup1\n        /* \"#utility.yul\":6555:6556   */\n      dup3\n        /* \"#utility.yul\":6552:6562   */\n      gt\n        /* \"#utility.yul\":6549:6585   */\n      iszero\n      tag_143\n      jumpi\n        /* \"#utility.yul\":6565:6583   */\n      tag_144\n      tag_75\n      jump\t// in\n    tag_144:\n        /* \"#utility.yul\":6549:6585   */\n    tag_143:\n        /* \"#utility.yul\":6401:6592   */\n      swap3\n      swap2\n      pop\n      pop\n      jump\t// out\n\n    auxdata: 0xa26469706673582212208a3fae69ee3c6b61fc263db3f234f612df0208a83a7a6964e1d2049258b921b664736f6c63430008120033\n}\n",
				"bytecode": {
					"linkReferences": {},
					"object": "608060405234801561001057600080fd5b50610838806100206000396000f3fe6080604052600436106100435760003560e01c806326224c64146100be5780632e1a7d4d146100fb578063ad7a672f14610124578063d0e30db01461014f57610083565b36610083576040517f1948a7bc00000000000000000000000000000000000000000000000000000000815260040161007a906104c9565b60405180910390fd5b6040517f1948a7bc0000000000000000000000000000000000000000000000000000000081526004016100b5906104c9565b60405180910390fd5b3480156100ca57600080fd5b506100e560048036038101906100e0919061054c565b610159565b6040516100f29190610592565b60405180910390f35b34801561010757600080fd5b50610122600480360381019061011d91906105d9565b610171565b005b34801561013057600080fd5b50610139610357565b6040516101469190610592565b60405180910390f35b61015761035d565b005b60016020528060005260406000206000915090505481565b80600081036101b5576040517f08c379a00000000000000000000000000000000000000000000000000000000081526004016101ac90610678565b60405180910390fd5b60008054905082600160003373ffffffffffffffffffffffffffffffffffffffff1673ffffffffffffffffffffffffffffffffffffffff16815260200190815260200160002054101561028b5733600160003373ffffffffffffffffffffffffffffffffffffffff1673ffffffffffffffffffffffffffffffffffffffff168152602001908152602001600020548461024e91906106c7565b6040517fb31a046900000000000000000000000000000000000000000000000000000000815260040161028292919061070a565b60405180910390fd5b8260008082825461029c91906106c7565b9250508190555082600160003373ffffffffffffffffffffffffffffffffffffffff1673ffffffffffffffffffffffffffffffffffffffff16815260200190815260200160002060008282546102f291906106c7565b925050819055503373ffffffffffffffffffffffffffffffffffffffff166108fc849081150290604051600060405180830381858888f1935050505015801561033f573d6000803e3d6000fd5b50806000541061035257610351610733565b5b505050565b60005481565b34600081036103a1576040517f08c379a000000000000000000000000000000000000000000000000000000000815260040161039890610678565b60405180910390fd5b670de0b6b3a764000034146103eb576040517f08c379a00000000000000000000000000000000000000000000000000000000081526004016103e2906107ae565b60405180910390fd5b670de0b6b3a764000060008082825461040491906107ce565b92505081905550670de0b6b3a7640000600160003373ffffffffffffffffffffffffffffffffffffffff1673ffffffffffffffffffffffffffffffffffffffff168152602001908152602001600020600082825461046291906107ce565b9250508190555050565b600082825260208201905092915050565b7f4e6f20646972656374207061796d656e74732e00000000000000000000000000600082015250565b60006104b360138361046c565b91506104be8261047d565b602082019050919050565b600060208201905081810360008301526104e2816104a6565b9050919050565b600080fd5b600073ffffffffffffffffffffffffffffffffffffffff82169050919050565b6000610519826104ee565b9050919050565b6105298161050e565b811461053457600080fd5b50565b60008135905061054681610520565b92915050565b600060208284031215610562576105616104e9565b5b600061057084828501610537565b91505092915050565b6000819050919050565b61058c81610579565b82525050565b60006020820190506105a76000830184610583565b92915050565b6105b681610579565b81146105c157600080fd5b50565b6000813590506105d3816105ad565b92915050565b6000602082840312156105ef576105ee6104e9565b5b60006105fd848285016105c4565b91505092915050565b7f416d6f756e742073686f756c642062652067726561746572207468616e207a6560008201527f726f000000000000000000000000000000000000000000000000000000000000602082015250565b600061066260228361046c565b915061066d82610606565b604082019050919050565b6000602082019050818103600083015261069181610655565b9050919050565b7f4e487b7100000000000000000000000000000000000000000000000000000000600052601160045260246000fd5b60006106d282610579565b91506106dd83610579565b92508282039050818111156106f5576106f4610698565b5b92915050565b6107048161050e565b82525050565b600060408201905061071f60008301856106fb565b61072c6020830184610583565b9392505050565b7f4e487b7100000000000000000000000000000000000000000000000000000000600052600160045260246000fd5b7f4f6e6c79207061796d656e747320696e20312065746865720000000000000000600082015250565b600061079860188361046c565b91506107a382610762565b602082019050919050565b600060208201905081810360008301526107c78161078b565b9050919050565b60006107d982610579565b91506107e483610579565b92508282019050808211156107fc576107fb610698565b5b9291505056fea26469706673582212208a3fae69ee3c6b61fc263db3f234f612df0208a83a7a6964e1d2049258b921b664736f6c63430008120033",
					"opcodes": "PUSH1 0x80 PUSH1 0x40 MSTORE CALLVALUE DUP1 ISZERO PUSH2 0x10 JUMPI PUSH1 0x0 DUP1 REVERT JUMPDEST POP PUSH2 0x838 DUP1 PUSH2 0x20 PUSH1 0x0 CODECOPY PUSH1 0x0 RETURN INVALID PUSH1 0x80 PUSH1 0x40 MSTORE PUSH1 0x4 CALLDATASIZE LT PUSH2 0x43 JUMPI PUSH1 0x0 CALLDATALOAD PUSH1 0xE0 SHR DUP1 PUSH4 0x26224C64 EQ PUSH2 0xBE JUMPI DUP1 PUSH4 0x2E1A7D4D EQ PUSH2 0xFB JUMPI DUP1 PUSH4 0xAD7A672F EQ PUSH2 0x124 JUMPI DUP1 PUSH4 0xD0E30DB0 EQ PUSH2 0x14F JUMPI PUSH2 0x83 JUMP JUMPDEST CALLDATASIZE PUSH2 0x83 JUMPI PUSH1 0x40 MLOAD PUSH32 0x1948A7BC00000000000000000000000000000000000000000000000000000000 DUP2 MSTORE PUSH1 0x4 ADD PUSH2 0x7A SWAP1 PUSH2 0x4C9 JUMP JUMPDEST PUSH1 0x40 MLOAD DUP1 SWAP2 SUB SWAP1 REVERT JUMPDEST PUSH1 0x40 MLOAD PUSH32 0x1948A7BC00000000000000000000000000000000000000000000000000000000 DUP2 MSTORE PUSH1 0x4 ADD PUSH2 0xB5 SWAP1 PUSH2 0x4C9 JUMP JUMPDEST PUSH1 0x40 MLOAD DUP1 SWAP2 SUB SWAP1 REVERT JUMPDEST CALLVALUE DUP1 ISZERO PUSH2 0xCA JUMPI PUSH1 0x0 DUP1 REVERT JUMPDEST POP PUSH2 0xE5 PUSH1 0x4 DUP1 CALLDATASIZE SUB DUP2 ADD SWAP1 PUSH2 0xE0 SWAP2 SWAP1 PUSH2 0x54C JUMP JUMPDEST PUSH2 0x159 JUMP JUMPDEST PUSH1 0x40 MLOAD PUSH2 0xF2 SWAP2 SWAP1 PUSH2 0x592 JUMP JUMPDEST PUSH1 0x40 MLOAD DUP1 SWAP2 SUB SWAP1 RETURN JUMPDEST CALLVALUE DUP1 ISZERO PUSH2 0x107 JUMPI PUSH1 0x0 DUP1 REVERT JUMPDEST POP PUSH2 0x122 PUSH1 0x4 DUP1 CALLDATASIZE SUB DUP2 ADD SWAP1 PUSH2 0x11D SWAP2 SWAP1 PUSH2 0x5D9 JUMP JUMPDEST PUSH2 0x171 JUMP JUMPDEST STOP JUMPDEST CALLVALUE DUP1 ISZERO PUSH2 0x130 JUMPI PUSH1 0x0 DUP1 REVERT JUMPDEST POP PUSH2 0x139 PUSH2 0x357 JUMP JUMPDEST PUSH1 0x40 MLOAD PUSH2 0x146 SWAP2 SWAP1 PUSH2 0x592 JUMP JUMPDEST PUSH1 0x40 MLOAD DUP1 SWAP2 SUB SWAP1 RETURN JUMPDEST PUSH2 0x157 PUSH2 0x35D JUMP JUMPDEST STOP JUMPDEST PUSH1 0x1 PUSH1 0x20 MSTORE DUP1 PUSH1 0x0 MSTORE PUSH1 0x40 PUSH1 0x0 KECCAK256 PUSH1 0x0 SWAP2 POP SWAP1 POP SLOAD DUP2 JUMP JUMPDEST DUP1 PUSH1 0x0 DUP2 SUB PUSH2 0x1B5 JUMPI PUSH1 0x40 MLOAD PUSH32 0x8C379A000000000000000000000000000000000000000000000000000000000 DUP2 MSTORE PUSH1 0x4 ADD PUSH2 0x1AC SWAP1 PUSH2 0x678 JUMP JUMPDEST PUSH1 0x40 MLOAD DUP1 SWAP2 SUB SWAP1 REVERT JUMPDEST PUSH1 0x0 DUP1 SLOAD SWAP1 POP DUP3 PUSH1 0x1 PUSH1 0x0 CALLER PUSH20 0xFFFFFFFFFFFFFFFFFFFFFFFFFFFFFFFFFFFFFFFF AND PUSH20 0xFFFFFFFFFFFFFFFFFFFFFFFFFFFFFFFFFFFFFFFF AND DUP2 MSTORE PUSH1 0x20 ADD SWAP1 DUP2 MSTORE PUSH1 0x20 ADD PUSH1 0x0 KECCAK256 SLOAD LT ISZERO PUSH2 0x28B JUMPI CALLER PUSH1 0x1 PUSH1 0x0 CALLER PUSH20 0xFFFFFFFFFFFFFFFFFFFFFFFFFFFFFFFFFFFFFFFF AND PUSH20 0xFFFFFFFFFFFFFFFFFFFFFFFFFFFFFFFFFFFFFFFF AND DUP2 MSTORE PUSH1 0x20 ADD SWAP1 DUP2 MSTORE PUSH1 0x20 ADD PUSH1 0x0 KECCAK256 SLOAD DUP5 PUSH2 0x24E SWAP2 SWAP1 PUSH2 0x6C7 JUMP JUMPDEST PUSH1 0x40 MLOAD PUSH32 0xB31A046900000000000000000000000000000000000000000000000000000000 DUP2 MSTORE PUSH1 0x4 ADD PUSH2 0x282 SWAP3 SWAP2 SWAP1 PUSH2 0x70A JUMP JUMPDEST PUSH1 0x40 MLOAD DUP1 SWAP2 SUB SWAP1 REVERT JUMPDEST DUP3 PUSH1 0x0 DUP1 DUP3 DUP3 SLOAD PUSH2 0x29C SWAP2 SWAP1 PUSH2 0x6C7 JUMP JUMPDEST SWAP3 POP POP DUP2 SWAP1 SSTORE POP DUP3 PUSH1 0x1 PUSH1 0x0 CALLER PUSH20 0xFFFFFFFFFFFFFFFFFFFFFFFFFFFFFFFFFFFFFFFF AND PUSH20 0xFFFFFFFFFFFFFFFFFFFFFFFFFFFFFFFFFFFFFFFF AND DUP2 MSTORE PUSH1 0x20 ADD SWAP1 DUP2 MSTORE PUSH1 0x20 ADD PUSH1 0x0 KECCAK256 PUSH1 0x0 DUP3 DUP3 SLOAD PUSH2 0x2F2 SWAP2 SWAP1 PUSH2 0x6C7 JUMP JUMPDEST SWAP3 POP POP DUP2 SWAP1 SSTORE POP CALLER PUSH20 0xFFFFFFFFFFFFFFFFFFFFFFFFFFFFFFFFFFFFFFFF AND PUSH2 0x8FC DUP5 SWAP1 DUP2 ISZERO MUL SWAP1 PUSH1 0x40 MLOAD PUSH1 0x0 PUSH1 0x40 MLOAD DUP1 DUP4 SUB DUP2 DUP6 DUP9 DUP9 CALL SWAP4 POP POP POP POP ISZERO DUP1 ISZERO PUSH2 0x33F JUMPI RETURNDATASIZE PUSH1 0x0 DUP1 RETURNDATACOPY RETURNDATASIZE PUSH1 0x0 REVERT JUMPDEST POP DUP1 PUSH1 0x0 SLOAD LT PUSH2 0x352 JUMPI PUSH2 0x351 PUSH2 0x733 JUMP JUMPDEST JUMPDEST POP POP POP JUMP JUMPDEST PUSH1 0x0 SLOAD DUP2 JUMP JUMPDEST CALLVALUE PUSH1 0x0 DUP2 SUB PUSH2 0x3A1 JUMPI PUSH1 0x40 MLOAD PUSH32 0x8C379A000000000000000000000000000000000000000000000000000000000 DUP2 MSTORE PUSH1 0x4 ADD PUSH2 0x398 SWAP1 PUSH2 0x678 JUMP JUMPDEST PUSH1 0x40 MLOAD DUP1 SWAP2 SUB SWAP1 REVERT JUMPDEST PUSH8 0xDE0B6B3A7640000 CALLVALUE EQ PUSH2 0x3EB JUMPI PUSH1 0x40 MLOAD PUSH32 0x8C379A000000000000000000000000000000000000000000000000000000000 DUP2 MSTORE PUSH1 0x4 ADD PUSH2 0x3E2 SWAP1 PUSH2 0x7AE JUMP JUMPDEST PUSH1 0x40 MLOAD DUP1 SWAP2 SUB SWAP1 REVERT JUMPDEST PUSH8 0xDE0B6B3A7640000 PUSH1 0x0 DUP1 DUP3 DUP3 SLOAD PUSH2 0x404 SWAP2 SWAP1 PUSH2 0x7CE JUMP JUMPDEST SWAP3 POP POP DUP2 SWAP1 SSTORE POP PUSH8 0xDE0B6B3A7640000 PUSH1 0x1 PUSH1 0x0 CALLER PUSH20 0xFFFFFFFFFFFFFFFFFFFFFFFFFFFFFFFFFFFFFFFF AND PUSH20 0xFFFFFFFFFFFFFFFFFFFFFFFFFFFFFFFFFFFFFFFF AND DUP2 MSTORE PUSH1 0x20 ADD SWAP1 DUP2 MSTORE PUSH1 0x20 ADD PUSH1 0x0 KECCAK256 PUSH1 0x0 DUP3 DUP3 SLOAD PUSH2 0x462 SWAP2 SWAP1 PUSH2 0x7CE JUMP JUMPDEST SWAP3 POP POP DUP2 SWAP1 SSTORE POP POP JUMP JUMPDEST PUSH1 0x0 DUP3 DUP3 MSTORE PUSH1 0x20 DUP3 ADD SWAP1 POP SWAP3 SWAP2 POP POP JUMP JUMPDEST PUSH32 0x4E6F20646972656374207061796D656E74732E00000000000000000000000000 PUSH1 0x0 DUP3 ADD MSTORE POP JUMP JUMPDEST PUSH1 0x0 PUSH2 0x4B3 PUSH1 0x13 DUP4 PUSH2 0x46C JUMP JUMPDEST SWAP2 POP PUSH2 0x4BE DUP3 PUSH2 0x47D JUMP JUMPDEST PUSH1 0x20 DUP3 ADD SWAP1 POP SWAP2 SWAP1 POP JUMP JUMPDEST PUSH1 0x0 PUSH1 0x20 DUP3 ADD SWAP1 POP DUP2 DUP2 SUB PUSH1 0x0 DUP4 ADD MSTORE PUSH2 0x4E2 DUP2 PUSH2 0x4A6 JUMP JUMPDEST SWAP1 POP SWAP2 SWAP1 POP JUMP JUMPDEST PUSH1 0x0 DUP1 REVERT JUMPDEST PUSH1 0x0 PUSH20 0xFFFFFFFFFFFFFFFFFFFFFFFFFFFFFFFFFFFFFFFF DUP3 AND SWAP1 POP SWAP2 SWAP1 POP JUMP JUMPDEST PUSH1 0x0 PUSH2 0x519 DUP3 PUSH2 0x4EE JUMP JUMPDEST SWAP1 POP SWAP2 SWAP1 POP JUMP JUMPDEST PUSH2 0x529 DUP2 PUSH2 0x50E JUMP JUMPDEST DUP2 EQ PUSH2 0x534 JUMPI PUSH1 0x0 DUP1 REVERT JUMPDEST POP JUMP JUMPDEST PUSH1 0x0 DUP2 CALLDATALOAD SWAP1 POP PUSH2 0x546 DUP2 PUSH2 0x520 JUMP JUMPDEST SWAP3 SWAP2 POP POP JUMP JUMPDEST PUSH1 0x0 PUSH1 0x20 DUP3 DUP5 SUB SLT ISZERO PUSH2 0x562 JUMPI PUSH2 0x561 PUSH2 0x4E9 JUMP JUMPDEST JUMPDEST PUSH1 0x0 PUSH2 0x570 DUP5 DUP3 DUP6 ADD PUSH2 0x537 JUMP JUMPDEST SWAP2 POP POP SWAP3 SWAP2 POP POP JUMP JUMPDEST PUSH1 0x0 DUP2 SWAP1 POP SWAP2 SWAP1 POP JUMP JUMPDEST PUSH2 0x58C DUP2 PUSH2 0x579 JUMP JUMPDEST DUP3 MSTORE POP POP JUMP JUMPDEST PUSH1 0x0 PUSH1 0x20 DUP3 ADD SWAP1 POP PUSH2 0x5A7 PUSH1 0x0 DUP4 ADD DUP5 PUSH2 0x583 JUMP JUMPDEST SWAP3 SWAP2 POP POP JUMP JUMPDEST PUSH2 0x5B6 DUP2 PUSH2 0x579 JUMP JUMPDEST DUP2 EQ PUSH2 0x5C1 JUMPI PUSH1 0x0 DUP1 REVERT JUMPDEST POP JUMP JUMPDEST PUSH1 0x0 DUP2 CALLDATALOAD SWAP1 POP PUSH2 0x5D3 DUP2 PUSH2 0x5AD JUMP JUMPDEST SWAP3 SWAP2 POP POP JUMP JUMPDEST PUSH1 0x0 PUSH1 0x20 DUP3 DUP5 SUB SLT ISZERO PUSH2 0x5EF JUMPI PUSH2 0x5EE PUSH2 0x4E9 JUMP JUMPDEST JUMPDEST PUSH1 0x0 PUSH2 0x5FD DUP5 DUP3 DUP6 ADD PUSH2 0x5C4 JUMP JUMPDEST SWAP2 POP POP SWAP3 SWAP2 POP POP JUMP JUMPDEST PUSH32 0x416D6F756E742073686F756C642062652067726561746572207468616E207A65 PUSH1 0x0 DUP3 ADD MSTORE PUSH32 0x726F000000000000000000000000000000000000000000000000000000000000 PUSH1 0x20 DUP3 ADD MSTORE POP JUMP JUMPDEST PUSH1 0x0 PUSH2 0x662 PUSH1 0x22 DUP4 PUSH2 0x46C JUMP JUMPDEST SWAP2 POP PUSH2 0x66D DUP3 PUSH2 0x606 JUMP JUMPDEST PUSH1 0x40 DUP3 ADD SWAP1 POP SWAP2 SWAP1 POP JUMP JUMPDEST PUSH1 0x0 PUSH1 0x20 DUP3 ADD SWAP1 POP DUP2 DUP2 SUB PUSH1 0x0 DUP4 ADD MSTORE PUSH2 0x691 DUP2 PUSH2 0x655 JUMP JUMPDEST SWAP1 POP SWAP2 SWAP1 POP JUMP JUMPDEST PUSH32 0x4E487B7100000000000000000000000000000000000000000000000000000000 PUSH1 0x0 MSTORE PUSH1 0x11 PUSH1 0x4 MSTORE PUSH1 0x24 PUSH1 0x0 REVERT JUMPDEST PUSH1 0x0 PUSH2 0x6D2 DUP3 PUSH2 0x579 JUMP JUMPDEST SWAP2 POP PUSH2 0x6DD DUP4 PUSH2 0x579 JUMP JUMPDEST SWAP3 POP DUP3 DUP3 SUB SWAP1 POP DUP2 DUP2 GT ISZERO PUSH2 0x6F5 JUMPI PUSH2 0x6F4 PUSH2 0x698 JUMP JUMPDEST JUMPDEST SWAP3 SWAP2 POP POP JUMP JUMPDEST PUSH2 0x704 DUP2 PUSH2 0x50E JUMP JUMPDEST DUP3 MSTORE POP POP JUMP JUMPDEST PUSH1 0x0 PUSH1 0x40 DUP3 ADD SWAP1 POP PUSH2 0x71F PUSH1 0x0 DUP4 ADD DUP6 PUSH2 0x6FB JUMP JUMPDEST PUSH2 0x72C PUSH1 0x20 DUP4 ADD DUP5 PUSH2 0x583 JUMP JUMPDEST SWAP4 SWAP3 POP POP POP JUMP JUMPDEST PUSH32 0x4E487B7100000000000000000000000000000000000000000000000000000000 PUSH1 0x0 MSTORE PUSH1 0x1 PUSH1 0x4 MSTORE PUSH1 0x24 PUSH1 0x0 REVERT JUMPDEST PUSH32 0x4F6E6C79207061796D656E747320696E20312065746865720000000000000000 PUSH1 0x0 DUP3 ADD MSTORE POP JUMP JUMPDEST PUSH1 0x0 PUSH2 0x798 PUSH1 0x18 DUP4 PUSH2 0x46C JUMP JUMPDEST SWAP2 POP PUSH2 0x7A3 DUP3 PUSH2 0x762 JUMP JUMPDEST PUSH1 0x20 DUP3 ADD SWAP1 POP SWAP2 SWAP1 POP JUMP JUMPDEST PUSH1 0x0 PUSH1 0x20 DUP3 ADD SWAP1 POP DUP2 DUP2 SUB PUSH1 0x0 DUP4 ADD MSTORE PUSH2 0x7C7 DUP2 PUSH2 0x78B JUMP JUMPDEST SWAP1 POP SWAP2 SWAP1 POP JUMP JUMPDEST PUSH1 0x0 PUSH2 0x7D9 DUP3 PUSH2 0x579 JUMP JUMPDEST SWAP2 POP PUSH2 0x7E4 DUP4 PUSH2 0x579 JUMP JUMPDEST SWAP3 POP DUP3 DUP3 ADD SWAP1 POP DUP1 DUP3 GT ISZERO PUSH2 0x7FC JUMPI PUSH2 0x7FB PUSH2 0x698 JUMP JUMPDEST JUMPDEST SWAP3 SWAP2 POP POP JUMP INVALID LOG2 PUSH5 0x6970667358 0x22 SLT KECCAK256 DUP11 EXTCODEHASH 0xAE PUSH10 0xEE3C6B61FC263DB3F234 0xF6 SLT 0xDF MUL ADDMOD 0xA8 GASPRICE PUSH27 0x6964E1D2049258B921B664736F6C63430008120033000000000000 "
				},
				"gasEstimates": {
					"creation": {
						"codeDepositCost": "420800",
						"executionCost": "455",
						"totalCost": "421255"
					},
					"external": {
						"": "450",
						"deposit()": "infinite",
						"totalBalance()": "2451",
						"userBalances(address)": "2792",
						"withdraw(uint256)": "infinite"
					}
				},
				"methodIdentifiers": {
					"deposit()": "d0e30db0",
					"totalBalance()": "ad7a672f",
					"userBalances(address)": "26224c64",
					"withdraw(uint256)": "2e1a7d4d"
				}
			},
			"storageLayout": {
				"storage": [
					{
						"astId": 3,
						"contract": "contracts/Errors.sol:Errors",
						"label": "totalBalance",
						"offset": 0,
						"slot": "0",
						"type": "t_uint256"
					},
					{
						"astId": 7,
						"contract": "contracts/Errors.sol:Errors",
						"label": "userBalances",
						"offset": 0,
						"slot": "1",
						"type": "t_mapping(t_address,t_uint256)"
					}
				],
				"types": {
					"t_address": {
						"encoding": "inplace",
						"label": "address",
						"numberOfBytes": "20"
					},
					"t_mapping(t_address,t_uint256)": {
						"encoding": "mapping",
						"key": "t_address",
						"label": "mapping(address => uint256)",
						"numberOfBytes": "32",
						"value": "t_uint256"
					},
					"t_uint256": {
						"encoding": "inplace",
						"label": "uint256",
						"numberOfBytes": "32"
					}
				}
			},
			"userdoc": {
				"kind": "user",
				"methods": {},
				"version": 1
			}
		}
	}
}