{
	"contracts/Event.sol": {
		"Event": {
			"abi": [
				{
					"inputs": [],
					"stateMutability": "nonpayable",
					"type": "constructor"
				},
				{
					"anonymous": false,
					"inputs": [
						{
							"indexed": false,
							"internalType": "uint256",
							"name": "_orderId",
							"type": "uint256"
						},
						{
							"indexed": true,
							"internalType": "address",
							"name": "_consumer",
							"type": "address"
						}
					],
					"name": "OrderCreated",
					"type": "event"
				},
				{
					"anonymous": false,
					"inputs": [
						{
							"indexed": false,
							"internalType": "uint256",
							"name": "_orderId",
							"type": "uint256"
						},
						{
							"indexed": false,
							"internalType": "string",
							"name": "_zipCode",
							"type": "string"
						}
					],
					"name": "ZipChanged",
					"type": "event"
				},
				{
					"inputs": [
						{
							"internalType": "uint256",
							"name": "_orderId",
							"type": "uint256"
						}
					],
					"name": "advanceOrder",
					"outputs": [],
					"stateMutability": "nonpayable",
					"type": "function"
				},
				{
					"inputs": [
						{
							"internalType": "string",
							"name": "_zipCode",
							"type": "string"
						},
						{
							"internalType": "uint256[]",
							"name": "_products",
							"type": "uint256[]"
						}
					],
					"name": "createOrder",
					"outputs": [
						{
							"internalType": "uint256",
							"name": "",
							"type": "uint256"
						}
					],
					"stateMutability": "nonpayable",
					"type": "function"
				},
				{
					"inputs": [
						{
							"internalType": "uint256",
							"name": "_orderId",
							"type": "uint256"
						}
					],
					"name": "getOrder",
					"outputs": [
						{
							"components": [
								{
									"internalType": "address",
									"name": "customer",
									"type": "address"
								},
								{
									"internalType": "string",
									"name": "zipCode",
									"type": "string"
								},
								{
									"internalType": "uint256[]",
									"name": "products",
									"type": "uint256[]"
								},
								{
									"internalType": "enum Event.Status",
									"name": "status",
									"type": "uint8"
								}
							],
							"internalType": "struct Event.Order",
							"name": "",
							"type": "tuple"
						}
					],
					"stateMutability": "view",
					"type": "function"
				},
				{
					"inputs": [
						{
							"internalType": "uint256",
							"name": "",
							"type": "uint256"
						}
					],
					"name": "orders",
					"outputs": [
						{
							"internalType": "address",
							"name": "customer",
							"type": "address"
						},
						{
							"internalType": "string",
							"name": "zipCode",
							"type": "string"
						},
						{
							"internalType": "enum Event.Status",
							"name": "status",
							"type": "uint8"
						}
					],
					"stateMutability": "view",
					"type": "function"
				},
				{
					"inputs": [],
					"name": "owner",
					"outputs": [
						{
							"internalType": "address",
							"name": "",
							"type": "address"
						}
					],
					"stateMutability": "view",
					"type": "function"
				},
				{
					"inputs": [],
					"name": "txCount",
					"outputs": [
						{
							"internalType": "uint256",
							"name": "",
							"type": "uint256"
						}
					],
					"stateMutability": "view",
					"type": "function"
				},
				{
					"inputs": [
						{
							"internalType": "uint256",
							"name": "_orderId",
							"type": "uint256"
						},
						{
							"internalType": "string",
							"name": "_zipCode",
							"type": "string"
						}
					],
					"name": "updateZip",
					"outputs": [],
					"stateMutability": "nonpayable",
					"type": "function"
				}
			],
			"devdoc": {
				"kind": "dev",
				"methods": {},
				"version": 1
			},
			"evm": {
				"assembly": "    /* \"contracts/Event.sol\":56:3033  contract Event {... */\n  mstore(0x40, 0x80)\n    /* \"contracts/Event.sol\":524:572  constructor(){... */\n  callvalue\n  dup1\n  iszero\n  tag_1\n  jumpi\n  0x00\n  dup1\n  revert\ntag_1:\n  pop\n    /* \"contracts/Event.sol\":555:565  msg.sender */\n  caller\n    /* \"contracts/Event.sol\":547:552  owner */\n  0x01\n  0x00\n    /* \"contracts/Event.sol\":547:565  owner = msg.sender */\n  0x0100\n  exp\n  dup2\n  sload\n  dup2\n  0xffffffffffffffffffffffffffffffffffffffff\n  mul\n  not\n  and\n  swap1\n  dup4\n  0xffffffffffffffffffffffffffffffffffffffff\n  and\n  mul\n  or\n  swap1\n  sstore\n  pop\n    /* \"contracts/Event.sol\":56:3033  contract Event {... */\n  dataSize(sub_0)\n  dup1\n  dataOffset(sub_0)\n  0x00\n  codecopy\n  0x00\n  return\nstop\n\nsub_0: assembly {\n        /* \"contracts/Event.sol\":56:3033  contract Event {... */\n      mstore(0x40, 0x80)\n      callvalue\n      dup1\n      iszero\n      tag_1\n      jumpi\n      0x00\n      dup1\n      revert\n    tag_1:\n      pop\n      jumpi(tag_2, lt(calldatasize, 0x04))\n      shr(0xe0, calldataload(0x00))\n      dup1\n      0x8da5cb5b\n      gt\n      tag_10\n      jumpi\n      dup1\n      0x8da5cb5b\n      eq\n      tag_6\n      jumpi\n      dup1\n      0xa85c38ef\n      eq\n      tag_7\n      jumpi\n      dup1\n      0xafe13a62\n      eq\n      tag_8\n      jumpi\n      dup1\n      0xd09ef241\n      eq\n      tag_9\n      jumpi\n      jump(tag_2)\n    tag_10:\n      dup1\n      0x3c540687\n      eq\n      tag_3\n      jumpi\n      dup1\n      0x577dc0a0\n      eq\n      tag_4\n      jumpi\n      dup1\n      0x6d9a65d8\n      eq\n      tag_5\n      jumpi\n    tag_2:\n      0x00\n      dup1\n      revert\n        /* \"contracts/Event.sol\":368:390  uint256 public txCount */\n    tag_3:\n      tag_11\n      tag_12\n      jump\t// in\n    tag_11:\n      mload(0x40)\n      tag_13\n      swap2\n      swap1\n      tag_14\n      jump\t// in\n    tag_13:\n      mload(0x40)\n      dup1\n      swap2\n      sub\n      swap1\n      return\n        /* \"contracts/Event.sol\":2182:2447  function updateZip(uint256 _orderId, string memory _zipCode) checkOrderId(_orderId) onlyCustomer(_orderId) incTx external {... */\n    tag_4:\n      tag_15\n      0x04\n      dup1\n      calldatasize\n      sub\n      dup2\n      add\n      swap1\n      tag_16\n      swap2\n      swap1\n      tag_17\n      jump\t// in\n    tag_16:\n      tag_18\n      jump\t// in\n    tag_15:\n      stop\n        /* \"contracts/Event.sol\":578:1440  function createOrder(string memory _zipCode, uint256[] memory _products) checkProducts(_products) incTx external returns(uint256) {... */\n    tag_5:\n      tag_19\n      0x04\n      dup1\n      calldatasize\n      sub\n      dup2\n      add\n      swap1\n      tag_20\n      swap2\n      swap1\n      tag_21\n      jump\t// in\n    tag_20:\n      tag_22\n      jump\t// in\n    tag_19:\n      mload(0x40)\n      tag_23\n      swap2\n      swap1\n      tag_14\n      jump\t// in\n    tag_23:\n      mload(0x40)\n      dup1\n      swap2\n      sub\n      swap1\n      return\n        /* \"contracts/Event.sol\":342:362  address public owner */\n    tag_6:\n      tag_24\n      tag_25\n      jump\t// in\n    tag_24:\n      mload(0x40)\n      tag_26\n      swap2\n      swap1\n      tag_27\n      jump\t// in\n    tag_26:\n      mload(0x40)\n      dup1\n      swap2\n      sub\n      swap1\n      return\n        /* \"contracts/Event.sol\":315:336  Order[] public orders */\n    tag_7:\n      tag_28\n      0x04\n      dup1\n      calldatasize\n      sub\n      dup2\n      add\n      swap1\n      tag_29\n      swap2\n      swap1\n      tag_30\n      jump\t// in\n    tag_29:\n      tag_31\n      jump\t// in\n    tag_28:\n      mload(0x40)\n      tag_32\n      swap4\n      swap3\n      swap2\n      swap1\n      tag_33\n      jump\t// in\n    tag_32:\n      mload(0x40)\n      dup1\n      swap2\n      sub\n      swap1\n      return\n        /* \"contracts/Event.sol\":1446:1945  function advanceOrder(uint256 _orderId) checkOrderId(_orderId) onlyOwner external {... */\n    tag_8:\n      tag_34\n      0x04\n      dup1\n      calldatasize\n      sub\n      dup2\n      add\n      swap1\n      tag_35\n      swap2\n      swap1\n      tag_30\n      jump\t// in\n    tag_35:\n      tag_36\n      jump\t// in\n    tag_34:\n      stop\n        /* \"contracts/Event.sol\":1951:2176  function getOrder(uint256 _orderId) checkOrderId(_orderId) external view returns(Order memory){... */\n    tag_9:\n      tag_37\n      0x04\n      dup1\n      calldatasize\n      sub\n      dup2\n      add\n      swap1\n      tag_38\n      swap2\n      swap1\n      tag_30\n      jump\t// in\n    tag_38:\n      tag_39\n      jump\t// in\n    tag_37:\n      mload(0x40)\n      tag_40\n      swap2\n      swap1\n      tag_41\n      jump\t// in\n    tag_40:\n      mload(0x40)\n      dup1\n      swap2\n      sub\n      swap1\n      return\n        /* \"contracts/Event.sol\":368:390  uint256 public txCount */\n    tag_12:\n      sload(0x02)\n      dup2\n      jump\t// out\n        /* \"contracts/Event.sol\":2182:2447  function updateZip(uint256 _orderId, string memory _zipCode) checkOrderId(_orderId) onlyCustomer(_orderId) incTx external {... */\n    tag_18:\n        /* \"contracts/Event.sol\":2256:2264  _orderId */\n      dup2\n        /* \"contracts/Event.sol\":2651:2657  orders */\n      0x00\n        /* \"contracts/Event.sol\":2651:2664  orders.length */\n      dup1\n      sload\n      swap1\n      pop\n        /* \"contracts/Event.sol\":2640:2648  _orderId */\n      dup2\n        /* \"contracts/Event.sol\":2640:2664  _orderId < orders.length */\n      lt\n        /* \"contracts/Event.sol\":2632:2689  require(_orderId < orders.length, \"Not a valid order id\") */\n      tag_43\n      jumpi\n      mload(0x40)\n      0x08c379a000000000000000000000000000000000000000000000000000000000\n      dup2\n      mstore\n      0x04\n      add\n      tag_44\n      swap1\n      tag_45\n      jump\t// in\n    tag_44:\n      mload(0x40)\n      dup1\n      swap2\n      sub\n      swap1\n      revert\n    tag_43:\n        /* \"contracts/Event.sol\":2279:2287  _orderId */\n      dup3\n        /* \"contracts/Event.sol\":2963:2973  msg.sender */\n      caller\n        /* \"contracts/Event.sol\":2934:2973  orders[_orderId].customer == msg.sender */\n      0xffffffffffffffffffffffffffffffffffffffff\n      and\n        /* \"contracts/Event.sol\":2934:2940  orders */\n      0x00\n        /* \"contracts/Event.sol\":2941:2949  _orderId */\n      dup3\n        /* \"contracts/Event.sol\":2934:2950  orders[_orderId] */\n      dup2\n      sload\n      dup2\n      lt\n      tag_47\n      jumpi\n      tag_48\n      tag_49\n      jump\t// in\n    tag_48:\n    tag_47:\n      swap1\n      0x00\n      mstore\n      keccak256(0x00, 0x20)\n      swap1\n      0x04\n      mul\n      add\n        /* \"contracts/Event.sol\":2934:2959  orders[_orderId].customer */\n      0x00\n      add\n      0x00\n      swap1\n      sload\n      swap1\n      0x0100\n      exp\n      swap1\n      div\n      0xffffffffffffffffffffffffffffffffffffffff\n      and\n        /* \"contracts/Event.sol\":2934:2973  orders[_orderId].customer == msg.sender */\n      0xffffffffffffffffffffffffffffffffffffffff\n      and\n      eq\n        /* \"contracts/Event.sol\":2926:3013  require(orders[_orderId].customer == msg.sender, \"You are not the owner of the order.\") */\n      tag_51\n      jumpi\n      mload(0x40)\n      0x08c379a000000000000000000000000000000000000000000000000000000000\n      dup2\n      mstore\n      0x04\n      add\n      tag_52\n      swap1\n      tag_53\n      jump\t// in\n    tag_52:\n      mload(0x40)\n      dup1\n      swap2\n      sub\n      swap1\n      revert\n    tag_51:\n        /* \"contracts/Event.sol\":2314:2333  Order storage order */\n      0x00\n        /* \"contracts/Event.sol\":2336:2342  orders */\n      dup1\n        /* \"contracts/Event.sol\":2343:2351  _orderId */\n      dup6\n        /* \"contracts/Event.sol\":2336:2352  orders[_orderId] */\n      dup2\n      sload\n      dup2\n      lt\n      tag_56\n      jumpi\n      tag_57\n      tag_49\n      jump\t// in\n    tag_57:\n    tag_56:\n      swap1\n      0x00\n      mstore\n      keccak256(0x00, 0x20)\n      swap1\n      0x04\n      mul\n      add\n        /* \"contracts/Event.sol\":2314:2352  Order storage order = orders[_orderId] */\n      swap1\n      pop\n        /* \"contracts/Event.sol\":2378:2386  _zipCode */\n      dup4\n        /* \"contracts/Event.sol\":2362:2367  order */\n      dup2\n        /* \"contracts/Event.sol\":2362:2375  order.zipCode */\n      0x01\n      add\n        /* \"contracts/Event.sol\":2362:2386  order.zipCode = _zipCode */\n      swap1\n      dup1\n      mload\n      swap1\n      0x20\n      add\n      swap1\n      tag_59\n      swap3\n      swap2\n      swap1\n      tag_60\n      jump\t// in\n    tag_59:\n      pop\n        /* \"contracts/Event.sol\":2410:2440  ZipChanged(_orderId, _zipCode) */\n      0xb635342fc0739647e3ead9d8554f699ce14329ff69a3c75fce31ba5131c4e1cd\n        /* \"contracts/Event.sol\":2421:2429  _orderId */\n      dup6\n        /* \"contracts/Event.sol\":2431:2439  _zipCode */\n      dup6\n        /* \"contracts/Event.sol\":2410:2440  ZipChanged(_orderId, _zipCode) */\n      mload(0x40)\n      tag_61\n      swap3\n      swap2\n      swap1\n      tag_62\n      jump\t// in\n    tag_61:\n      mload(0x40)\n      dup1\n      swap2\n      sub\n      swap1\n      log1\n        /* \"contracts/Event.sol\":2304:2447  {... */\n      pop\n        /* \"contracts/Event.sol\":2749:2756  txCount */\n      0x02\n      0x00\n        /* \"contracts/Event.sol\":2749:2758  txCount++ */\n      dup2\n      sload\n      dup1\n      swap3\n      swap2\n      swap1\n      tag_63\n      swap1\n      tag_64\n      jump\t// in\n    tag_63:\n      swap2\n      swap1\n      pop\n      sstore\n      pop\n        /* \"contracts/Event.sol\":2699:2700  _ */\n      pop\n        /* \"contracts/Event.sol\":2182:2447  function updateZip(uint256 _orderId, string memory _zipCode) checkOrderId(_orderId) onlyCustomer(_orderId) incTx external {... */\n      pop\n      pop\n      pop\n      jump\t// out\n        /* \"contracts/Event.sol\":578:1440  function createOrder(string memory _zipCode, uint256[] memory _products) checkProducts(_products) incTx external returns(uint256) {... */\n    tag_22:\n        /* \"contracts/Event.sol\":699:706  uint256 */\n      0x00\n        /* \"contracts/Event.sol\":665:674  _products */\n      dup2\n        /* \"contracts/Event.sol\":2541:2542  0 */\n      0x00\n        /* \"contracts/Event.sol\":2522:2531  _products */\n      dup2\n        /* \"contracts/Event.sol\":2522:2538  _products.length */\n      mload\n        /* \"contracts/Event.sol\":2522:2542  _products.length > 0 */\n      gt\n        /* \"contracts/Event.sol\":2514:2559  require(_products.length > 0, \"No products.\") */\n      tag_66\n      jumpi\n      mload(0x40)\n      0x08c379a000000000000000000000000000000000000000000000000000000000\n      dup2\n      mstore\n      0x04\n      add\n      tag_67\n      swap1\n      tag_68\n      jump\t// in\n    tag_67:\n      mload(0x40)\n      dup1\n      swap2\n      sub\n      swap1\n      revert\n    tag_66:\n        /* \"contracts/Event.sol\":1029:1035  orders */\n      0x00\n        /* \"contracts/Event.sol\":1054:1223  Order({... */\n      mload(0x40)\n      dup1\n      0x80\n      add\n      0x40\n      mstore\n      dup1\n        /* \"contracts/Event.sol\":1088:1098  msg.sender */\n      caller\n        /* \"contracts/Event.sol\":1054:1223  Order({... */\n      0xffffffffffffffffffffffffffffffffffffffff\n      and\n      dup2\n      mstore\n      0x20\n      add\n        /* \"contracts/Event.sol\":1125:1133  _zipCode */\n      dup7\n        /* \"contracts/Event.sol\":1054:1223  Order({... */\n      dup2\n      mstore\n      0x20\n      add\n        /* \"contracts/Event.sol\":1161:1170  _products */\n      dup6\n        /* \"contracts/Event.sol\":1054:1223  Order({... */\n      dup2\n      mstore\n      0x20\n      add\n        /* \"contracts/Event.sol\":1196:1208  Status.Taken */\n      0x00\n        /* \"contracts/Event.sol\":1054:1223  Order({... */\n      0x03\n      dup2\n      gt\n      iszero\n      tag_71\n      jumpi\n      tag_72\n      tag_73\n      jump\t// in\n    tag_72:\n    tag_71:\n      dup2\n      mstore\n      pop\n        /* \"contracts/Event.sol\":1029:1233  orders.push(... */\n      swap1\n      dup1\n      0x01\n      dup2\n      sload\n      add\n      dup1\n      dup3\n      sstore\n      dup1\n      swap2\n      pop\n      pop\n      0x01\n      swap1\n      sub\n      swap1\n      0x00\n      mstore\n      keccak256(0x00, 0x20)\n      swap1\n      0x04\n      mul\n      add\n      0x00\n      swap1\n      swap2\n      swap1\n      swap2\n      swap1\n      swap2\n      pop\n      0x00\n      dup3\n      add\n      mload\n      dup2\n      0x00\n      add\n      exp(0x0100, 0x00)\n      dup2\n      sload\n      dup2\n      0xffffffffffffffffffffffffffffffffffffffff\n      mul\n      not\n      and\n      swap1\n      dup4\n      0xffffffffffffffffffffffffffffffffffffffff\n      and\n      mul\n      or\n      swap1\n      sstore\n      pop\n      0x20\n      dup3\n      add\n      mload\n      dup2\n      0x01\n      add\n      swap1\n      dup1\n      mload\n      swap1\n      0x20\n      add\n      swap1\n      tag_75\n      swap3\n      swap2\n      swap1\n      tag_60\n      jump\t// in\n    tag_75:\n      pop\n      0x40\n      dup3\n      add\n      mload\n      dup2\n      0x02\n      add\n      swap1\n      dup1\n      mload\n      swap1\n      0x20\n      add\n      swap1\n      tag_76\n      swap3\n      swap2\n      swap1\n      tag_77\n      jump\t// in\n    tag_76:\n      pop\n      0x60\n      dup3\n      add\n      mload\n      dup2\n      0x03\n      add\n      exp(0x0100, 0x00)\n      dup2\n      sload\n      dup2\n      0xff\n      mul\n      not\n      and\n      swap1\n      dup4\n      0x03\n      dup2\n      gt\n      iszero\n      tag_78\n      jumpi\n      tag_79\n      tag_73\n      jump\t// in\n    tag_79:\n    tag_78:\n      mul\n      or\n      swap1\n      sstore\n      pop\n      pop\n      pop\n        /* \"contracts/Event.sol\":1387:1397  msg.sender */\n      caller\n        /* \"contracts/Event.sol\":1355:1398  OrderCreated(orders.length - 1, msg.sender) */\n      0xffffffffffffffffffffffffffffffffffffffff\n      and\n      0x4ceaea0569072c9203c8c195ffccdbca9851b9d0410f577878a6792f12ec9b52\n        /* \"contracts/Event.sol\":1384:1385  1 */\n      0x01\n        /* \"contracts/Event.sol\":1368:1374  orders */\n      0x00\n        /* \"contracts/Event.sol\":1368:1381  orders.length */\n      dup1\n      sload\n      swap1\n      pop\n        /* \"contracts/Event.sol\":1368:1385  orders.length - 1 */\n      tag_80\n      swap2\n      swap1\n      tag_81\n      jump\t// in\n    tag_80:\n        /* \"contracts/Event.sol\":1355:1398  OrderCreated(orders.length - 1, msg.sender) */\n      mload(0x40)\n      tag_82\n      swap2\n      swap1\n      tag_14\n      jump\t// in\n    tag_82:\n      mload(0x40)\n      dup1\n      swap2\n      sub\n      swap1\n      log2\n        /* \"contracts/Event.sol\":1432:1433  1 */\n      0x01\n        /* \"contracts/Event.sol\":1416:1422  orders */\n      0x00\n        /* \"contracts/Event.sol\":1416:1429  orders.length */\n      dup1\n      sload\n      swap1\n      pop\n        /* \"contracts/Event.sol\":1416:1433  orders.length - 1 */\n      tag_83\n      swap2\n      swap1\n      tag_81\n      jump\t// in\n    tag_83:\n        /* \"contracts/Event.sol\":1409:1433  return orders.length - 1 */\n      swap2\n      pop\n        /* \"contracts/Event.sol\":2749:2756  txCount */\n      0x02\n      0x00\n        /* \"contracts/Event.sol\":2749:2758  txCount++ */\n      dup2\n      sload\n      dup1\n      swap3\n      swap2\n      swap1\n      tag_84\n      swap1\n      tag_64\n      jump\t// in\n    tag_84:\n      swap2\n      swap1\n      pop\n      sstore\n      pop\n        /* \"contracts/Event.sol\":578:1440  function createOrder(string memory _zipCode, uint256[] memory _products) checkProducts(_products) incTx external returns(uint256) {... */\n      pop\n      swap3\n      swap2\n      pop\n      pop\n      jump\t// out\n        /* \"contracts/Event.sol\":342:362  address public owner */\n    tag_25:\n      0x01\n      0x00\n      swap1\n      sload\n      swap1\n      0x0100\n      exp\n      swap1\n      div\n      0xffffffffffffffffffffffffffffffffffffffff\n      and\n      dup2\n      jump\t// out\n        /* \"contracts/Event.sol\":315:336  Order[] public orders */\n    tag_31:\n      0x00\n      dup2\n      dup2\n      sload\n      dup2\n      lt\n      tag_85\n      jumpi\n      0x00\n      dup1\n      revert\n    tag_85:\n      swap1\n      0x00\n      mstore\n      keccak256(0x00, 0x20)\n      swap1\n      0x04\n      mul\n      add\n      0x00\n      swap2\n      pop\n      swap1\n      pop\n      dup1\n      0x00\n      add\n      0x00\n      swap1\n      sload\n      swap1\n      0x0100\n      exp\n      swap1\n      div\n      0xffffffffffffffffffffffffffffffffffffffff\n      and\n      swap1\n      dup1\n      0x01\n      add\n      dup1\n      sload\n      tag_87\n      swap1\n      tag_88\n      jump\t// in\n    tag_87:\n      dup1\n      0x1f\n      add\n      0x20\n      dup1\n      swap2\n      div\n      mul\n      0x20\n      add\n      mload(0x40)\n      swap1\n      dup2\n      add\n      0x40\n      mstore\n      dup1\n      swap3\n      swap2\n      swap1\n      dup2\n      dup2\n      mstore\n      0x20\n      add\n      dup3\n      dup1\n      sload\n      tag_89\n      swap1\n      tag_88\n      jump\t// in\n    tag_89:\n      dup1\n      iszero\n      tag_90\n      jumpi\n      dup1\n      0x1f\n      lt\n      tag_91\n      jumpi\n      0x0100\n      dup1\n      dup4\n      sload\n      div\n      mul\n      dup4\n      mstore\n      swap2\n      0x20\n      add\n      swap2\n      jump(tag_90)\n    tag_91:\n      dup3\n      add\n      swap2\n      swap1\n      0x00\n      mstore\n      keccak256(0x00, 0x20)\n      swap1\n    tag_92:\n      dup2\n      sload\n      dup2\n      mstore\n      swap1\n      0x01\n      add\n      swap1\n      0x20\n      add\n      dup1\n      dup4\n      gt\n      tag_92\n      jumpi\n      dup3\n      swap1\n      sub\n      0x1f\n      and\n      dup3\n      add\n      swap2\n    tag_90:\n      pop\n      pop\n      pop\n      pop\n      pop\n      swap1\n      dup1\n      0x03\n      add\n      0x00\n      swap1\n      sload\n      swap1\n      0x0100\n      exp\n      swap1\n      div\n      0xff\n      and\n      swap1\n      pop\n      dup4\n      jump\t// out\n        /* \"contracts/Event.sol\":1446:1945  function advanceOrder(uint256 _orderId) checkOrderId(_orderId) onlyOwner external {... */\n    tag_36:\n        /* \"contracts/Event.sol\":1499:1507  _orderId */\n      dup1\n        /* \"contracts/Event.sol\":2651:2657  orders */\n      0x00\n        /* \"contracts/Event.sol\":2651:2664  orders.length */\n      dup1\n      sload\n      swap1\n      pop\n        /* \"contracts/Event.sol\":2640:2648  _orderId */\n      dup2\n        /* \"contracts/Event.sol\":2640:2664  _orderId < orders.length */\n      lt\n        /* \"contracts/Event.sol\":2632:2689  require(_orderId < orders.length, \"Not a valid order id\") */\n      tag_94\n      jumpi\n      mload(0x40)\n      0x08c379a000000000000000000000000000000000000000000000000000000000\n      dup2\n      mstore\n      0x04\n      add\n      tag_95\n      swap1\n      tag_45\n      jump\t// in\n    tag_95:\n      mload(0x40)\n      dup1\n      swap2\n      sub\n      swap1\n      revert\n    tag_94:\n        /* \"contracts/Event.sol\":2816:2826  msg.sender */\n      caller\n        /* \"contracts/Event.sol\":2807:2826  owner == msg.sender */\n      0xffffffffffffffffffffffffffffffffffffffff\n      and\n        /* \"contracts/Event.sol\":2807:2812  owner */\n      0x01\n      0x00\n      swap1\n      sload\n      swap1\n      0x0100\n      exp\n      swap1\n      div\n      0xffffffffffffffffffffffffffffffffffffffff\n      and\n        /* \"contracts/Event.sol\":2807:2826  owner == msg.sender */\n      0xffffffffffffffffffffffffffffffffffffffff\n      and\n      eq\n        /* \"contracts/Event.sol\":2799:2853  require(owner == msg.sender,\"You are not authorized.\") */\n      tag_97\n      jumpi\n      mload(0x40)\n      0x08c379a000000000000000000000000000000000000000000000000000000000\n      dup2\n      mstore\n      0x04\n      add\n      tag_98\n      swap1\n      tag_99\n      jump\t// in\n    tag_98:\n      mload(0x40)\n      dup1\n      swap2\n      sub\n      swap1\n      revert\n    tag_97:\n        /* \"contracts/Event.sol\":1539:1558  Order storage order */\n      0x00\n        /* \"contracts/Event.sol\":1561:1567  orders */\n      dup1\n        /* \"contracts/Event.sol\":1568:1576  _orderId */\n      dup4\n        /* \"contracts/Event.sol\":1561:1577  orders[_orderId] */\n      dup2\n      sload\n      dup2\n      lt\n      tag_101\n      jumpi\n      tag_102\n      tag_49\n      jump\t// in\n    tag_102:\n    tag_101:\n      swap1\n      0x00\n      mstore\n      keccak256(0x00, 0x20)\n      swap1\n      0x04\n      mul\n      add\n        /* \"contracts/Event.sol\":1539:1577  Order storage order = orders[_orderId] */\n      swap1\n      pop\n        /* \"contracts/Event.sol\":1611:1625  Status.Shipped */\n      0x03\n        /* \"contracts/Event.sol\":1595:1625  order.status != Status.Shipped */\n      dup1\n      dup2\n      gt\n      iszero\n      tag_104\n      jumpi\n      tag_105\n      tag_73\n      jump\t// in\n    tag_105:\n    tag_104:\n        /* \"contracts/Event.sol\":1595:1600  order */\n      dup2\n        /* \"contracts/Event.sol\":1595:1607  order.status */\n      0x03\n      add\n      0x00\n      swap1\n      sload\n      swap1\n      0x0100\n      exp\n      swap1\n      div\n      0xff\n      and\n        /* \"contracts/Event.sol\":1595:1625  order.status != Status.Shipped */\n      0x03\n      dup2\n      gt\n      iszero\n      tag_106\n      jumpi\n      tag_107\n      tag_73\n      jump\t// in\n    tag_107:\n    tag_106:\n      eq\n      iszero\n        /* \"contracts/Event.sol\":1587:1654  require(order.status != Status.Shipped,\"Order is already shipped.\") */\n      tag_108\n      jumpi\n      mload(0x40)\n      0x08c379a000000000000000000000000000000000000000000000000000000000\n      dup2\n      mstore\n      0x04\n      add\n      tag_109\n      swap1\n      tag_110\n      jump\t// in\n    tag_109:\n      mload(0x40)\n      dup1\n      swap2\n      sub\n      swap1\n      revert\n    tag_108:\n        /* \"contracts/Event.sol\":1684:1696  Status.Taken */\n      0x00\n        /* \"contracts/Event.sol\":1668:1696  order.status == Status.Taken */\n      0x03\n      dup2\n      gt\n      iszero\n      tag_111\n      jumpi\n      tag_112\n      tag_73\n      jump\t// in\n    tag_112:\n    tag_111:\n        /* \"contracts/Event.sol\":1668:1673  order */\n      dup2\n        /* \"contracts/Event.sol\":1668:1680  order.status */\n      0x03\n      add\n      0x00\n      swap1\n      sload\n      swap1\n      0x0100\n      exp\n      swap1\n      div\n      0xff\n      and\n        /* \"contracts/Event.sol\":1668:1696  order.status == Status.Taken */\n      0x03\n      dup2\n      gt\n      iszero\n      tag_113\n      jumpi\n      tag_114\n      tag_73\n      jump\t// in\n    tag_114:\n    tag_113:\n      eq\n        /* \"contracts/Event.sol\":1665:1939  if(order.status == Status.Taken){... */\n      iszero\n      tag_115\n      jumpi\n        /* \"contracts/Event.sol\":1726:1742  Status.Preparing */\n      0x01\n        /* \"contracts/Event.sol\":1711:1716  order */\n      dup2\n        /* \"contracts/Event.sol\":1711:1723  order.status */\n      0x03\n      add\n      0x00\n        /* \"contracts/Event.sol\":1711:1742  order.status = Status.Preparing */\n      0x0100\n      exp\n      dup2\n      sload\n      dup2\n      0xff\n      mul\n      not\n      and\n      swap1\n      dup4\n      0x03\n      dup2\n      gt\n      iszero\n      tag_116\n      jumpi\n      tag_117\n      tag_73\n      jump\t// in\n    tag_117:\n    tag_116:\n      mul\n      or\n      swap1\n      sstore\n      pop\n        /* \"contracts/Event.sol\":1665:1939  if(order.status == Status.Taken){... */\n      jump(tag_118)\n    tag_115:\n        /* \"contracts/Event.sol\":1778:1794  Status.Preparing */\n      0x01\n        /* \"contracts/Event.sol\":1762:1794  order.status == Status.Preparing */\n      0x03\n      dup2\n      gt\n      iszero\n      tag_119\n      jumpi\n      tag_120\n      tag_73\n      jump\t// in\n    tag_120:\n    tag_119:\n        /* \"contracts/Event.sol\":1762:1767  order */\n      dup2\n        /* \"contracts/Event.sol\":1762:1774  order.status */\n      0x03\n      add\n      0x00\n      swap1\n      sload\n      swap1\n      0x0100\n      exp\n      swap1\n      div\n      0xff\n      and\n        /* \"contracts/Event.sol\":1762:1794  order.status == Status.Preparing */\n      0x03\n      dup2\n      gt\n      iszero\n      tag_121\n      jumpi\n      tag_122\n      tag_73\n      jump\t// in\n    tag_122:\n    tag_121:\n      eq\n        /* \"contracts/Event.sol\":1759:1939  if(order.status == Status.Preparing){... */\n      iszero\n      tag_123\n      jumpi\n        /* \"contracts/Event.sol\":1824:1836  Status.Boxed */\n      0x02\n        /* \"contracts/Event.sol\":1809:1814  order */\n      dup2\n        /* \"contracts/Event.sol\":1809:1821  order.status */\n      0x03\n      add\n      0x00\n        /* \"contracts/Event.sol\":1809:1836  order.status = Status.Boxed */\n      0x0100\n      exp\n      dup2\n      sload\n      dup2\n      0xff\n      mul\n      not\n      and\n      swap1\n      dup4\n      0x03\n      dup2\n      gt\n      iszero\n      tag_124\n      jumpi\n      tag_125\n      tag_73\n      jump\t// in\n    tag_125:\n    tag_124:\n      mul\n      or\n      swap1\n      sstore\n      pop\n        /* \"contracts/Event.sol\":1759:1939  if(order.status == Status.Preparing){... */\n      jump(tag_126)\n    tag_123:\n        /* \"contracts/Event.sol\":1872:1884  Status.Boxed */\n      0x02\n        /* \"contracts/Event.sol\":1856:1884  order.status == Status.Boxed */\n      0x03\n      dup2\n      gt\n      iszero\n      tag_127\n      jumpi\n      tag_128\n      tag_73\n      jump\t// in\n    tag_128:\n    tag_127:\n        /* \"contracts/Event.sol\":1856:1861  order */\n      dup2\n        /* \"contracts/Event.sol\":1856:1868  order.status */\n      0x03\n      add\n      0x00\n      swap1\n      sload\n      swap1\n      0x0100\n      exp\n      swap1\n      div\n      0xff\n      and\n        /* \"contracts/Event.sol\":1856:1884  order.status == Status.Boxed */\n      0x03\n      dup2\n      gt\n      iszero\n      tag_129\n      jumpi\n      tag_130\n      tag_73\n      jump\t// in\n    tag_130:\n    tag_129:\n      eq\n        /* \"contracts/Event.sol\":1853:1939  if(order.status == Status.Boxed){... */\n      iszero\n      tag_131\n      jumpi\n        /* \"contracts/Event.sol\":1914:1928  Status.Shipped */\n      0x03\n        /* \"contracts/Event.sol\":1899:1904  order */\n      dup2\n        /* \"contracts/Event.sol\":1899:1911  order.status */\n      0x03\n      add\n      0x00\n        /* \"contracts/Event.sol\":1899:1928  order.status = Status.Shipped */\n      0x0100\n      exp\n      dup2\n      sload\n      dup2\n      0xff\n      mul\n      not\n      and\n      swap1\n      dup4\n      0x03\n      dup2\n      gt\n      iszero\n      tag_132\n      jumpi\n      tag_133\n      tag_73\n      jump\t// in\n    tag_133:\n    tag_132:\n      mul\n      or\n      swap1\n      sstore\n      pop\n        /* \"contracts/Event.sol\":1853:1939  if(order.status == Status.Boxed){... */\n    tag_131:\n        /* \"contracts/Event.sol\":1759:1939  if(order.status == Status.Preparing){... */\n    tag_126:\n        /* \"contracts/Event.sol\":1665:1939  if(order.status == Status.Taken){... */\n    tag_118:\n        /* \"contracts/Event.sol\":1528:1945  {... */\n      pop\n        /* \"contracts/Event.sol\":1446:1945  function advanceOrder(uint256 _orderId) checkOrderId(_orderId) onlyOwner external {... */\n      pop\n      pop\n      jump\t// out\n        /* \"contracts/Event.sol\":1951:2176  function getOrder(uint256 _orderId) checkOrderId(_orderId) external view returns(Order memory){... */\n    tag_39:\n        /* \"contracts/Event.sol\":2032:2044  Order memory */\n      tag_134\n      tag_135\n      jump\t// in\n    tag_134:\n        /* \"contracts/Event.sol\":2000:2008  _orderId */\n      dup2\n        /* \"contracts/Event.sol\":2651:2657  orders */\n      0x00\n        /* \"contracts/Event.sol\":2651:2664  orders.length */\n      dup1\n      sload\n      swap1\n      pop\n        /* \"contracts/Event.sol\":2640:2648  _orderId */\n      dup2\n        /* \"contracts/Event.sol\":2640:2664  _orderId < orders.length */\n      lt\n        /* \"contracts/Event.sol\":2632:2689  require(_orderId < orders.length, \"Not a valid order id\") */\n      tag_137\n      jumpi\n      mload(0x40)\n      0x08c379a000000000000000000000000000000000000000000000000000000000\n      dup2\n      mstore\n      0x04\n      add\n      tag_138\n      swap1\n      tag_45\n      jump\t// in\n    tag_138:\n      mload(0x40)\n      dup1\n      swap2\n      sub\n      swap1\n      revert\n    tag_137:\n        /* \"contracts/Event.sol\":2153:2159  orders */\n      0x00\n        /* \"contracts/Event.sol\":2160:2168  _orderId */\n      dup4\n        /* \"contracts/Event.sol\":2153:2169  orders[_orderId] */\n      dup2\n      sload\n      dup2\n      lt\n      tag_140\n      jumpi\n      tag_141\n      tag_49\n      jump\t// in\n    tag_141:\n    tag_140:\n      swap1\n      0x00\n      mstore\n      keccak256(0x00, 0x20)\n      swap1\n      0x04\n      mul\n      add\n        /* \"contracts/Event.sol\":2146:2169  return orders[_orderId] */\n      mload(0x40)\n      dup1\n      0x80\n      add\n      0x40\n      mstore\n      swap1\n      dup2\n      0x00\n      dup3\n      add\n      0x00\n      swap1\n      sload\n      swap1\n      0x0100\n      exp\n      swap1\n      div\n      0xffffffffffffffffffffffffffffffffffffffff\n      and\n      0xffffffffffffffffffffffffffffffffffffffff\n      and\n      0xffffffffffffffffffffffffffffffffffffffff\n      and\n      dup2\n      mstore\n      0x20\n      add\n      0x01\n      dup3\n      add\n      dup1\n      sload\n      tag_143\n      swap1\n      tag_88\n      jump\t// in\n    tag_143:\n      dup1\n      0x1f\n      add\n      0x20\n      dup1\n      swap2\n      div\n      mul\n      0x20\n      add\n      mload(0x40)\n      swap1\n      dup2\n      add\n      0x40\n      mstore\n      dup1\n      swap3\n      swap2\n      swap1\n      dup2\n      dup2\n      mstore\n      0x20\n      add\n      dup3\n      dup1\n      sload\n      tag_144\n      swap1\n      tag_88\n      jump\t// in\n    tag_144:\n      dup1\n      iszero\n      tag_145\n      jumpi\n      dup1\n      0x1f\n      lt\n      tag_146\n      jumpi\n      0x0100\n      dup1\n      dup4\n      sload\n      div\n      mul\n      dup4\n      mstore\n      swap2\n      0x20\n      add\n      swap2\n      jump(tag_145)\n    tag_146:\n      dup3\n      add\n      swap2\n      swap1\n      0x00\n      mstore\n      keccak256(0x00, 0x20)\n      swap1\n    tag_147:\n      dup2\n      sload\n      dup2\n      mstore\n      swap1\n      0x01\n      add\n      swap1\n      0x20\n      add\n      dup1\n      dup4\n      gt\n      tag_147\n      jumpi\n      dup3\n      swap1\n      sub\n      0x1f\n      and\n      dup3\n      add\n      swap2\n    tag_145:\n      pop\n      pop\n      pop\n      pop\n      pop\n      dup2\n      mstore\n      0x20\n      add\n      0x02\n      dup3\n      add\n      dup1\n      sload\n      dup1\n      0x20\n      mul\n      0x20\n      add\n      mload(0x40)\n      swap1\n      dup2\n      add\n      0x40\n      mstore\n      dup1\n      swap3\n      swap2\n      swap1\n      dup2\n      dup2\n      mstore\n      0x20\n      add\n      dup3\n      dup1\n      sload\n      dup1\n      iszero\n      tag_148\n      jumpi\n      0x20\n      mul\n      dup3\n      add\n      swap2\n      swap1\n      0x00\n      mstore\n      keccak256(0x00, 0x20)\n      swap1\n    tag_149:\n      dup2\n      sload\n      dup2\n      mstore\n      0x20\n      add\n      swap1\n      0x01\n      add\n      swap1\n      dup1\n      dup4\n      gt\n      tag_149\n      jumpi\n    tag_148:\n      pop\n      pop\n      pop\n      pop\n      pop\n      dup2\n      mstore\n      0x20\n      add\n      0x03\n      dup3\n      add\n      0x00\n      swap1\n      sload\n      swap1\n      0x0100\n      exp\n      swap1\n      div\n      0xff\n      and\n      0x03\n      dup2\n      gt\n      iszero\n      tag_150\n      jumpi\n      tag_151\n      tag_73\n      jump\t// in\n    tag_151:\n    tag_150:\n      0x03\n      dup2\n      gt\n      iszero\n      tag_152\n      jumpi\n      tag_153\n      tag_73\n      jump\t// in\n    tag_153:\n    tag_152:\n      dup2\n      mstore\n      pop\n      pop\n      swap2\n      pop\n        /* \"contracts/Event.sol\":1951:2176  function getOrder(uint256 _orderId) checkOrderId(_orderId) external view returns(Order memory){... */\n      pop\n      swap2\n      swap1\n      pop\n      jump\t// out\n    tag_60:\n      dup3\n      dup1\n      sload\n      tag_154\n      swap1\n      tag_88\n      jump\t// in\n    tag_154:\n      swap1\n      0x00\n      mstore\n      keccak256(0x00, 0x20)\n      swap1\n      0x1f\n      add\n      0x20\n      swap1\n      div\n      dup2\n      add\n      swap3\n      dup3\n      tag_156\n      jumpi\n      0x00\n      dup6\n      sstore\n      jump(tag_155)\n    tag_156:\n      dup3\n      0x1f\n      lt\n      tag_157\n      jumpi\n      dup1\n      mload\n      not(0xff)\n      and\n      dup4\n      dup1\n      add\n      or\n      dup6\n      sstore\n      jump(tag_155)\n    tag_157:\n      dup3\n      dup1\n      add\n      0x01\n      add\n      dup6\n      sstore\n      dup3\n      iszero\n      tag_155\n      jumpi\n      swap2\n      dup3\n      add\n    tag_158:\n      dup3\n      dup2\n      gt\n      iszero\n      tag_159\n      jumpi\n      dup3\n      mload\n      dup3\n      sstore\n      swap2\n      0x20\n      add\n      swap2\n      swap1\n      0x01\n      add\n      swap1\n      jump(tag_158)\n    tag_159:\n    tag_155:\n      pop\n      swap1\n      pop\n      tag_160\n      swap2\n      swap1\n      tag_161\n      jump\t// in\n    tag_160:\n      pop\n      swap1\n      jump\t// out\n    tag_77:\n      dup3\n      dup1\n      sload\n      dup3\n      dup3\n      sstore\n      swap1\n      0x00\n      mstore\n      keccak256(0x00, 0x20)\n      swap1\n      dup2\n      add\n      swap3\n      dup3\n      iszero\n      tag_162\n      jumpi\n      swap2\n      0x20\n      mul\n      dup3\n      add\n    tag_163:\n      dup3\n      dup2\n      gt\n      iszero\n      tag_164\n      jumpi\n      dup3\n      mload\n      dup3\n      sstore\n      swap2\n      0x20\n      add\n      swap2\n      swap1\n      0x01\n      add\n      swap1\n      jump(tag_163)\n    tag_164:\n    tag_162:\n      pop\n      swap1\n      pop\n      tag_165\n      swap2\n      swap1\n      tag_161\n      jump\t// in\n    tag_165:\n      pop\n      swap1\n      jump\t// out\n    tag_135:\n      mload(0x40)\n      dup1\n      0x80\n      add\n      0x40\n      mstore\n      dup1\n      and(0xffffffffffffffffffffffffffffffffffffffff, 0x00)\n      dup2\n      mstore\n      0x20\n      add\n      0x60\n      dup2\n      mstore\n      0x20\n      add\n      0x60\n      dup2\n      mstore\n      0x20\n      add\n      0x00\n      0x03\n      dup2\n      gt\n      iszero\n      tag_166\n      jumpi\n      tag_167\n      tag_73\n      jump\t// in\n    tag_167:\n    tag_166:\n      dup2\n      mstore\n      pop\n      swap1\n      jump\t// out\n    tag_161:\n    tag_168:\n      dup1\n      dup3\n      gt\n      iszero\n      tag_169\n      jumpi\n      0x00\n      dup2\n      0x00\n      swap1\n      sstore\n      pop\n      0x01\n      add\n      jump(tag_168)\n    tag_169:\n      pop\n      swap1\n      jump\t// out\n        /* \"#utility.yul\":24:746   */\n    tag_171:\n        /* \"#utility.yul\":120:125   */\n      0x00\n        /* \"#utility.yul\":145:226   */\n      tag_173\n        /* \"#utility.yul\":161:225   */\n      tag_174\n        /* \"#utility.yul\":218:224   */\n      dup5\n        /* \"#utility.yul\":161:225   */\n      tag_175\n      jump\t// in\n    tag_174:\n        /* \"#utility.yul\":145:226   */\n      tag_176\n      jump\t// in\n    tag_173:\n        /* \"#utility.yul\":136:226   */\n      swap1\n      pop\n        /* \"#utility.yul\":246:251   */\n      dup1\n        /* \"#utility.yul\":275:281   */\n      dup4\n        /* \"#utility.yul\":268:273   */\n      dup3\n        /* \"#utility.yul\":261:282   */\n      mstore\n        /* \"#utility.yul\":309:313   */\n      0x20\n        /* \"#utility.yul\":302:307   */\n      dup3\n        /* \"#utility.yul\":298:314   */\n      add\n        /* \"#utility.yul\":291:314   */\n      swap1\n      pop\n        /* \"#utility.yul\":335:341   */\n      dup3\n        /* \"#utility.yul\":385:388   */\n      dup6\n        /* \"#utility.yul\":377:381   */\n      0x20\n        /* \"#utility.yul\":369:375   */\n      dup7\n        /* \"#utility.yul\":365:382   */\n      mul\n        /* \"#utility.yul\":360:363   */\n      dup3\n        /* \"#utility.yul\":356:383   */\n      add\n        /* \"#utility.yul\":353:389   */\n      gt\n        /* \"#utility.yul\":350:493   */\n      iszero\n      tag_177\n      jumpi\n        /* \"#utility.yul\":404:483   */\n      tag_178\n      tag_179\n      jump\t// in\n    tag_178:\n        /* \"#utility.yul\":350:493   */\n    tag_177:\n        /* \"#utility.yul\":517:518   */\n      0x00\n        /* \"#utility.yul\":502:740   */\n    tag_180:\n        /* \"#utility.yul\":527:533   */\n      dup6\n        /* \"#utility.yul\":524:525   */\n      dup2\n        /* \"#utility.yul\":521:534   */\n      lt\n        /* \"#utility.yul\":502:740   */\n      iszero\n      tag_182\n      jumpi\n        /* \"#utility.yul\":595:598   */\n      dup2\n        /* \"#utility.yul\":624:661   */\n      tag_183\n        /* \"#utility.yul\":657:660   */\n      dup9\n        /* \"#utility.yul\":645:655   */\n      dup3\n        /* \"#utility.yul\":624:661   */\n      tag_184\n      jump\t// in\n    tag_183:\n        /* \"#utility.yul\":619:622   */\n      dup5\n        /* \"#utility.yul\":612:662   */\n      mstore\n        /* \"#utility.yul\":691:695   */\n      0x20\n        /* \"#utility.yul\":686:689   */\n      dup5\n        /* \"#utility.yul\":682:696   */\n      add\n        /* \"#utility.yul\":675:696   */\n      swap4\n      pop\n        /* \"#utility.yul\":725:729   */\n      0x20\n        /* \"#utility.yul\":720:723   */\n      dup4\n        /* \"#utility.yul\":716:730   */\n      add\n        /* \"#utility.yul\":709:730   */\n      swap3\n      pop\n        /* \"#utility.yul\":562:740   */\n      pop\n        /* \"#utility.yul\":549:550   */\n      0x01\n        /* \"#utility.yul\":546:547   */\n      dup2\n        /* \"#utility.yul\":542:551   */\n      add\n        /* \"#utility.yul\":537:551   */\n      swap1\n      pop\n        /* \"#utility.yul\":502:740   */\n      jump(tag_180)\n    tag_182:\n        /* \"#utility.yul\":506:520   */\n      pop\n        /* \"#utility.yul\":126:746   */\n      pop\n      pop\n        /* \"#utility.yul\":24:746   */\n      swap4\n      swap3\n      pop\n      pop\n      pop\n      jump\t// out\n        /* \"#utility.yul\":752:1164   */\n    tag_185:\n        /* \"#utility.yul\":830:835   */\n      0x00\n        /* \"#utility.yul\":855:921   */\n      tag_187\n        /* \"#utility.yul\":871:920   */\n      tag_188\n        /* \"#utility.yul\":913:919   */\n      dup5\n        /* \"#utility.yul\":871:920   */\n      tag_189\n      jump\t// in\n    tag_188:\n        /* \"#utility.yul\":855:921   */\n      tag_176\n      jump\t// in\n    tag_187:\n        /* \"#utility.yul\":846:921   */\n      swap1\n      pop\n        /* \"#utility.yul\":944:950   */\n      dup3\n        /* \"#utility.yul\":937:942   */\n      dup2\n        /* \"#utility.yul\":930:951   */\n      mstore\n        /* \"#utility.yul\":982:986   */\n      0x20\n        /* \"#utility.yul\":975:980   */\n      dup2\n        /* \"#utility.yul\":971:987   */\n      add\n        /* \"#utility.yul\":1020:1023   */\n      dup5\n        /* \"#utility.yul\":1011:1017   */\n      dup5\n        /* \"#utility.yul\":1006:1009   */\n      dup5\n        /* \"#utility.yul\":1002:1018   */\n      add\n        /* \"#utility.yul\":999:1024   */\n      gt\n        /* \"#utility.yul\":996:1108   */\n      iszero\n      tag_190\n      jumpi\n        /* \"#utility.yul\":1027:1106   */\n      tag_191\n      tag_192\n      jump\t// in\n    tag_191:\n        /* \"#utility.yul\":996:1108   */\n    tag_190:\n        /* \"#utility.yul\":1117:1158   */\n      tag_193\n        /* \"#utility.yul\":1151:1157   */\n      dup5\n        /* \"#utility.yul\":1146:1149   */\n      dup3\n        /* \"#utility.yul\":1141:1144   */\n      dup6\n        /* \"#utility.yul\":1117:1158   */\n      tag_194\n      jump\t// in\n    tag_193:\n        /* \"#utility.yul\":836:1164   */\n      pop\n        /* \"#utility.yul\":752:1164   */\n      swap4\n      swap3\n      pop\n      pop\n      pop\n      jump\t// out\n        /* \"#utility.yul\":1187:1557   */\n    tag_195:\n        /* \"#utility.yul\":1258:1263   */\n      0x00\n        /* \"#utility.yul\":1307:1310   */\n      dup3\n        /* \"#utility.yul\":1300:1304   */\n      0x1f\n        /* \"#utility.yul\":1292:1298   */\n      dup4\n        /* \"#utility.yul\":1288:1305   */\n      add\n        /* \"#utility.yul\":1284:1311   */\n      slt\n        /* \"#utility.yul\":1274:1396   */\n      tag_197\n      jumpi\n        /* \"#utility.yul\":1315:1394   */\n      tag_198\n      tag_199\n      jump\t// in\n    tag_198:\n        /* \"#utility.yul\":1274:1396   */\n    tag_197:\n        /* \"#utility.yul\":1432:1438   */\n      dup2\n        /* \"#utility.yul\":1419:1439   */\n      calldataload\n        /* \"#utility.yul\":1457:1551   */\n      tag_200\n        /* \"#utility.yul\":1547:1550   */\n      dup5\n        /* \"#utility.yul\":1539:1545   */\n      dup3\n        /* \"#utility.yul\":1532:1536   */\n      0x20\n        /* \"#utility.yul\":1524:1530   */\n      dup7\n        /* \"#utility.yul\":1520:1537   */\n      add\n        /* \"#utility.yul\":1457:1551   */\n      tag_171\n      jump\t// in\n    tag_200:\n        /* \"#utility.yul\":1448:1551   */\n      swap2\n      pop\n        /* \"#utility.yul\":1264:1557   */\n      pop\n        /* \"#utility.yul\":1187:1557   */\n      swap3\n      swap2\n      pop\n      pop\n      jump\t// out\n        /* \"#utility.yul\":1577:1917   */\n    tag_201:\n        /* \"#utility.yul\":1633:1638   */\n      0x00\n        /* \"#utility.yul\":1682:1685   */\n      dup3\n        /* \"#utility.yul\":1675:1679   */\n      0x1f\n        /* \"#utility.yul\":1667:1673   */\n      dup4\n        /* \"#utility.yul\":1663:1680   */\n      add\n        /* \"#utility.yul\":1659:1686   */\n      slt\n        /* \"#utility.yul\":1649:1771   */\n      tag_203\n      jumpi\n        /* \"#utility.yul\":1690:1769   */\n      tag_204\n      tag_199\n      jump\t// in\n    tag_204:\n        /* \"#utility.yul\":1649:1771   */\n    tag_203:\n        /* \"#utility.yul\":1807:1813   */\n      dup2\n        /* \"#utility.yul\":1794:1814   */\n      calldataload\n        /* \"#utility.yul\":1832:1911   */\n      tag_205\n        /* \"#utility.yul\":1907:1910   */\n      dup5\n        /* \"#utility.yul\":1899:1905   */\n      dup3\n        /* \"#utility.yul\":1892:1896   */\n      0x20\n        /* \"#utility.yul\":1884:1890   */\n      dup7\n        /* \"#utility.yul\":1880:1897   */\n      add\n        /* \"#utility.yul\":1832:1911   */\n      tag_185\n      jump\t// in\n    tag_205:\n        /* \"#utility.yul\":1823:1911   */\n      swap2\n      pop\n        /* \"#utility.yul\":1639:1917   */\n      pop\n        /* \"#utility.yul\":1577:1917   */\n      swap3\n      swap2\n      pop\n      pop\n      jump\t// out\n        /* \"#utility.yul\":1923:2062   */\n    tag_184:\n        /* \"#utility.yul\":1969:1974   */\n      0x00\n        /* \"#utility.yul\":2007:2013   */\n      dup2\n        /* \"#utility.yul\":1994:2014   */\n      calldataload\n        /* \"#utility.yul\":1985:2014   */\n      swap1\n      pop\n        /* \"#utility.yul\":2023:2056   */\n      tag_207\n        /* \"#utility.yul\":2050:2055   */\n      dup2\n        /* \"#utility.yul\":2023:2056   */\n      tag_208\n      jump\t// in\n    tag_207:\n        /* \"#utility.yul\":1923:2062   */\n      swap3\n      swap2\n      pop\n      pop\n      jump\t// out\n        /* \"#utility.yul\":2068:2932   */\n    tag_21:\n        /* \"#utility.yul\":2171:2177   */\n      0x00\n        /* \"#utility.yul\":2179:2185   */\n      dup1\n        /* \"#utility.yul\":2228:2230   */\n      0x40\n        /* \"#utility.yul\":2216:2225   */\n      dup4\n        /* \"#utility.yul\":2207:2214   */\n      dup6\n        /* \"#utility.yul\":2203:2226   */\n      sub\n        /* \"#utility.yul\":2199:2231   */\n      slt\n        /* \"#utility.yul\":2196:2315   */\n      iszero\n      tag_210\n      jumpi\n        /* \"#utility.yul\":2234:2313   */\n      tag_211\n      tag_212\n      jump\t// in\n    tag_211:\n        /* \"#utility.yul\":2196:2315   */\n    tag_210:\n        /* \"#utility.yul\":2382:2383   */\n      0x00\n        /* \"#utility.yul\":2371:2380   */\n      dup4\n        /* \"#utility.yul\":2367:2384   */\n      add\n        /* \"#utility.yul\":2354:2385   */\n      calldataload\n        /* \"#utility.yul\":2412:2430   */\n      0xffffffffffffffff\n        /* \"#utility.yul\":2404:2410   */\n      dup2\n        /* \"#utility.yul\":2401:2431   */\n      gt\n        /* \"#utility.yul\":2398:2515   */\n      iszero\n      tag_213\n      jumpi\n        /* \"#utility.yul\":2434:2513   */\n      tag_214\n      tag_215\n      jump\t// in\n    tag_214:\n        /* \"#utility.yul\":2398:2515   */\n    tag_213:\n        /* \"#utility.yul\":2539:2602   */\n      tag_216\n        /* \"#utility.yul\":2594:2601   */\n      dup6\n        /* \"#utility.yul\":2585:2591   */\n      dup3\n        /* \"#utility.yul\":2574:2583   */\n      dup7\n        /* \"#utility.yul\":2570:2592   */\n      add\n        /* \"#utility.yul\":2539:2602   */\n      tag_201\n      jump\t// in\n    tag_216:\n        /* \"#utility.yul\":2529:2602   */\n      swap3\n      pop\n        /* \"#utility.yul\":2325:2612   */\n      pop\n        /* \"#utility.yul\":2679:2681   */\n      0x20\n        /* \"#utility.yul\":2668:2677   */\n      dup4\n        /* \"#utility.yul\":2664:2682   */\n      add\n        /* \"#utility.yul\":2651:2683   */\n      calldataload\n        /* \"#utility.yul\":2710:2728   */\n      0xffffffffffffffff\n        /* \"#utility.yul\":2702:2708   */\n      dup2\n        /* \"#utility.yul\":2699:2729   */\n      gt\n        /* \"#utility.yul\":2696:2813   */\n      iszero\n      tag_217\n      jumpi\n        /* \"#utility.yul\":2732:2811   */\n      tag_218\n      tag_215\n      jump\t// in\n    tag_218:\n        /* \"#utility.yul\":2696:2813   */\n    tag_217:\n        /* \"#utility.yul\":2837:2915   */\n      tag_219\n        /* \"#utility.yul\":2907:2914   */\n      dup6\n        /* \"#utility.yul\":2898:2904   */\n      dup3\n        /* \"#utility.yul\":2887:2896   */\n      dup7\n        /* \"#utility.yul\":2883:2905   */\n      add\n        /* \"#utility.yul\":2837:2915   */\n      tag_195\n      jump\t// in\n    tag_219:\n        /* \"#utility.yul\":2827:2915   */\n      swap2\n      pop\n        /* \"#utility.yul\":2622:2925   */\n      pop\n        /* \"#utility.yul\":2068:2932   */\n      swap3\n      pop\n      swap3\n      swap1\n      pop\n      jump\t// out\n        /* \"#utility.yul\":2938:3267   */\n    tag_30:\n        /* \"#utility.yul\":2997:3003   */\n      0x00\n        /* \"#utility.yul\":3046:3048   */\n      0x20\n        /* \"#utility.yul\":3034:3043   */\n      dup3\n        /* \"#utility.yul\":3025:3032   */\n      dup5\n        /* \"#utility.yul\":3021:3044   */\n      sub\n        /* \"#utility.yul\":3017:3049   */\n      slt\n        /* \"#utility.yul\":3014:3133   */\n      iszero\n      tag_221\n      jumpi\n        /* \"#utility.yul\":3052:3131   */\n      tag_222\n      tag_212\n      jump\t// in\n    tag_222:\n        /* \"#utility.yul\":3014:3133   */\n    tag_221:\n        /* \"#utility.yul\":3172:3173   */\n      0x00\n        /* \"#utility.yul\":3197:3250   */\n      tag_223\n        /* \"#utility.yul\":3242:3249   */\n      dup5\n        /* \"#utility.yul\":3233:3239   */\n      dup3\n        /* \"#utility.yul\":3222:3231   */\n      dup6\n        /* \"#utility.yul\":3218:3240   */\n      add\n        /* \"#utility.yul\":3197:3250   */\n      tag_184\n      jump\t// in\n    tag_223:\n        /* \"#utility.yul\":3187:3250   */\n      swap2\n      pop\n        /* \"#utility.yul\":3143:3260   */\n      pop\n        /* \"#utility.yul\":2938:3267   */\n      swap3\n      swap2\n      pop\n      pop\n      jump\t// out\n        /* \"#utility.yul\":3273:3927   */\n    tag_17:\n        /* \"#utility.yul\":3351:3357   */\n      0x00\n        /* \"#utility.yul\":3359:3365   */\n      dup1\n        /* \"#utility.yul\":3408:3410   */\n      0x40\n        /* \"#utility.yul\":3396:3405   */\n      dup4\n        /* \"#utility.yul\":3387:3394   */\n      dup6\n        /* \"#utility.yul\":3383:3406   */\n      sub\n        /* \"#utility.yul\":3379:3411   */\n      slt\n        /* \"#utility.yul\":3376:3495   */\n      iszero\n      tag_225\n      jumpi\n        /* \"#utility.yul\":3414:3493   */\n      tag_226\n      tag_212\n      jump\t// in\n    tag_226:\n        /* \"#utility.yul\":3376:3495   */\n    tag_225:\n        /* \"#utility.yul\":3534:3535   */\n      0x00\n        /* \"#utility.yul\":3559:3612   */\n      tag_227\n        /* \"#utility.yul\":3604:3611   */\n      dup6\n        /* \"#utility.yul\":3595:3601   */\n      dup3\n        /* \"#utility.yul\":3584:3593   */\n      dup7\n        /* \"#utility.yul\":3580:3602   */\n      add\n        /* \"#utility.yul\":3559:3612   */\n      tag_184\n      jump\t// in\n    tag_227:\n        /* \"#utility.yul\":3549:3612   */\n      swap3\n      pop\n        /* \"#utility.yul\":3505:3622   */\n      pop\n        /* \"#utility.yul\":3689:3691   */\n      0x20\n        /* \"#utility.yul\":3678:3687   */\n      dup4\n        /* \"#utility.yul\":3674:3692   */\n      add\n        /* \"#utility.yul\":3661:3693   */\n      calldataload\n        /* \"#utility.yul\":3720:3738   */\n      0xffffffffffffffff\n        /* \"#utility.yul\":3712:3718   */\n      dup2\n        /* \"#utility.yul\":3709:3739   */\n      gt\n        /* \"#utility.yul\":3706:3823   */\n      iszero\n      tag_228\n      jumpi\n        /* \"#utility.yul\":3742:3821   */\n      tag_229\n      tag_215\n      jump\t// in\n    tag_229:\n        /* \"#utility.yul\":3706:3823   */\n    tag_228:\n        /* \"#utility.yul\":3847:3910   */\n      tag_230\n        /* \"#utility.yul\":3902:3909   */\n      dup6\n        /* \"#utility.yul\":3893:3899   */\n      dup3\n        /* \"#utility.yul\":3882:3891   */\n      dup7\n        /* \"#utility.yul\":3878:3900   */\n      add\n        /* \"#utility.yul\":3847:3910   */\n      tag_201\n      jump\t// in\n    tag_230:\n        /* \"#utility.yul\":3837:3910   */\n      swap2\n      pop\n        /* \"#utility.yul\":3632:3920   */\n      pop\n        /* \"#utility.yul\":3273:3927   */\n      swap3\n      pop\n      swap3\n      swap1\n      pop\n      jump\t// out\n        /* \"#utility.yul\":3933:4112   */\n    tag_231:\n        /* \"#utility.yul\":4002:4012   */\n      0x00\n        /* \"#utility.yul\":4023:4069   */\n      tag_233\n        /* \"#utility.yul\":4065:4068   */\n      dup4\n        /* \"#utility.yul\":4057:4063   */\n      dup4\n        /* \"#utility.yul\":4023:4069   */\n      tag_234\n      jump\t// in\n    tag_233:\n        /* \"#utility.yul\":4101:4105   */\n      0x20\n        /* \"#utility.yul\":4096:4099   */\n      dup4\n        /* \"#utility.yul\":4092:4106   */\n      add\n        /* \"#utility.yul\":4078:4106   */\n      swap1\n      pop\n        /* \"#utility.yul\":3933:4112   */\n      swap3\n      swap2\n      pop\n      pop\n      jump\t// out\n        /* \"#utility.yul\":4118:4226   */\n    tag_235:\n        /* \"#utility.yul\":4195:4219   */\n      tag_237\n        /* \"#utility.yul\":4213:4218   */\n      dup2\n        /* \"#utility.yul\":4195:4219   */\n      tag_238\n      jump\t// in\n    tag_237:\n        /* \"#utility.yul\":4190:4193   */\n      dup3\n        /* \"#utility.yul\":4183:4220   */\n      mstore\n        /* \"#utility.yul\":4118:4226   */\n      pop\n      pop\n      jump\t// out\n        /* \"#utility.yul\":4232:4350   */\n    tag_239:\n        /* \"#utility.yul\":4319:4343   */\n      tag_241\n        /* \"#utility.yul\":4337:4342   */\n      dup2\n        /* \"#utility.yul\":4319:4343   */\n      tag_238\n      jump\t// in\n    tag_241:\n        /* \"#utility.yul\":4314:4317   */\n      dup3\n        /* \"#utility.yul\":4307:4344   */\n      mstore\n        /* \"#utility.yul\":4232:4350   */\n      pop\n      pop\n      jump\t// out\n        /* \"#utility.yul\":4386:5098   */\n    tag_242:\n        /* \"#utility.yul\":4495:4498   */\n      0x00\n        /* \"#utility.yul\":4524:4578   */\n      tag_244\n        /* \"#utility.yul\":4572:4577   */\n      dup3\n        /* \"#utility.yul\":4524:4578   */\n      tag_245\n      jump\t// in\n    tag_244:\n        /* \"#utility.yul\":4594:4670   */\n      tag_246\n        /* \"#utility.yul\":4663:4669   */\n      dup2\n        /* \"#utility.yul\":4658:4661   */\n      dup6\n        /* \"#utility.yul\":4594:4670   */\n      tag_247\n      jump\t// in\n    tag_246:\n        /* \"#utility.yul\":4587:4670   */\n      swap4\n      pop\n        /* \"#utility.yul\":4694:4750   */\n      tag_248\n        /* \"#utility.yul\":4744:4749   */\n      dup4\n        /* \"#utility.yul\":4694:4750   */\n      tag_249\n      jump\t// in\n    tag_248:\n        /* \"#utility.yul\":4773:4780   */\n      dup1\n        /* \"#utility.yul\":4804:4805   */\n      0x00\n        /* \"#utility.yul\":4789:5073   */\n    tag_250:\n        /* \"#utility.yul\":4814:4820   */\n      dup4\n        /* \"#utility.yul\":4811:4812   */\n      dup2\n        /* \"#utility.yul\":4808:4821   */\n      lt\n        /* \"#utility.yul\":4789:5073   */\n      iszero\n      tag_252\n      jumpi\n        /* \"#utility.yul\":4890:4896   */\n      dup2\n        /* \"#utility.yul\":4884:4897   */\n      mload\n        /* \"#utility.yul\":4917:4980   */\n      tag_253\n        /* \"#utility.yul\":4976:4979   */\n      dup9\n        /* \"#utility.yul\":4961:4974   */\n      dup3\n        /* \"#utility.yul\":4917:4980   */\n      tag_231\n      jump\t// in\n    tag_253:\n        /* \"#utility.yul\":4910:4980   */\n      swap8\n      pop\n        /* \"#utility.yul\":5003:5063   */\n      tag_254\n        /* \"#utility.yul\":5056:5062   */\n      dup4\n        /* \"#utility.yul\":5003:5063   */\n      tag_255\n      jump\t// in\n    tag_254:\n        /* \"#utility.yul\":4993:5063   */\n      swap3\n      pop\n        /* \"#utility.yul\":4849:5073   */\n      pop\n        /* \"#utility.yul\":4836:4837   */\n      0x01\n        /* \"#utility.yul\":4833:4834   */\n      dup2\n        /* \"#utility.yul\":4829:4838   */\n      add\n        /* \"#utility.yul\":4824:4838   */\n      swap1\n      pop\n        /* \"#utility.yul\":4789:5073   */\n      jump(tag_250)\n    tag_252:\n        /* \"#utility.yul\":4793:4807   */\n      pop\n        /* \"#utility.yul\":5089:5092   */\n      dup6\n        /* \"#utility.yul\":5082:5092   */\n      swap4\n      pop\n        /* \"#utility.yul\":4500:5098   */\n      pop\n      pop\n      pop\n        /* \"#utility.yul\":4386:5098   */\n      swap3\n      swap2\n      pop\n      pop\n      jump\t// out\n        /* \"#utility.yul\":5104:5237   */\n    tag_256:\n        /* \"#utility.yul\":5187:5230   */\n      tag_258\n        /* \"#utility.yul\":5224:5229   */\n      dup2\n        /* \"#utility.yul\":5187:5230   */\n      tag_259\n      jump\t// in\n    tag_258:\n        /* \"#utility.yul\":5182:5185   */\n      dup3\n        /* \"#utility.yul\":5175:5231   */\n      mstore\n        /* \"#utility.yul\":5104:5237   */\n      pop\n      pop\n      jump\t// out\n        /* \"#utility.yul\":5243:5386   */\n    tag_260:\n        /* \"#utility.yul\":5336:5379   */\n      tag_262\n        /* \"#utility.yul\":5373:5378   */\n      dup2\n        /* \"#utility.yul\":5336:5379   */\n      tag_259\n      jump\t// in\n    tag_262:\n        /* \"#utility.yul\":5331:5334   */\n      dup3\n        /* \"#utility.yul\":5324:5380   */\n      mstore\n        /* \"#utility.yul\":5243:5386   */\n      pop\n      pop\n      jump\t// out\n        /* \"#utility.yul\":5392:5736   */\n    tag_263:\n        /* \"#utility.yul\":5470:5473   */\n      0x00\n        /* \"#utility.yul\":5498:5537   */\n      tag_265\n        /* \"#utility.yul\":5531:5536   */\n      dup3\n        /* \"#utility.yul\":5498:5537   */\n      tag_266\n      jump\t// in\n    tag_265:\n        /* \"#utility.yul\":5553:5614   */\n      tag_267\n        /* \"#utility.yul\":5607:5613   */\n      dup2\n        /* \"#utility.yul\":5602:5605   */\n      dup6\n        /* \"#utility.yul\":5553:5614   */\n      tag_268\n      jump\t// in\n    tag_267:\n        /* \"#utility.yul\":5546:5614   */\n      swap4\n      pop\n        /* \"#utility.yul\":5623:5675   */\n      tag_269\n        /* \"#utility.yul\":5668:5674   */\n      dup2\n        /* \"#utility.yul\":5663:5666   */\n      dup6\n        /* \"#utility.yul\":5656:5660   */\n      0x20\n        /* \"#utility.yul\":5649:5654   */\n      dup7\n        /* \"#utility.yul\":5645:5661   */\n      add\n        /* \"#utility.yul\":5623:5675   */\n      tag_270\n      jump\t// in\n    tag_269:\n        /* \"#utility.yul\":5700:5729   */\n      tag_271\n        /* \"#utility.yul\":5722:5728   */\n      dup2\n        /* \"#utility.yul\":5700:5729   */\n      tag_272\n      jump\t// in\n    tag_271:\n        /* \"#utility.yul\":5695:5698   */\n      dup5\n        /* \"#utility.yul\":5691:5730   */\n      add\n        /* \"#utility.yul\":5684:5730   */\n      swap2\n      pop\n        /* \"#utility.yul\":5474:5736   */\n      pop\n        /* \"#utility.yul\":5392:5736   */\n      swap3\n      swap2\n      pop\n      pop\n      jump\t// out\n        /* \"#utility.yul\":5742:6106   */\n    tag_273:\n        /* \"#utility.yul\":5830:5833   */\n      0x00\n        /* \"#utility.yul\":5858:5897   */\n      tag_275\n        /* \"#utility.yul\":5891:5896   */\n      dup3\n        /* \"#utility.yul\":5858:5897   */\n      tag_266\n      jump\t// in\n    tag_275:\n        /* \"#utility.yul\":5913:5984   */\n      tag_276\n        /* \"#utility.yul\":5977:5983   */\n      dup2\n        /* \"#utility.yul\":5972:5975   */\n      dup6\n        /* \"#utility.yul\":5913:5984   */\n      tag_277\n      jump\t// in\n    tag_276:\n        /* \"#utility.yul\":5906:5984   */\n      swap4\n      pop\n        /* \"#utility.yul\":5993:6045   */\n      tag_278\n        /* \"#utility.yul\":6038:6044   */\n      dup2\n        /* \"#utility.yul\":6033:6036   */\n      dup6\n        /* \"#utility.yul\":6026:6030   */\n      0x20\n        /* \"#utility.yul\":6019:6024   */\n      dup7\n        /* \"#utility.yul\":6015:6031   */\n      add\n        /* \"#utility.yul\":5993:6045   */\n      tag_270\n      jump\t// in\n    tag_278:\n        /* \"#utility.yul\":6070:6099   */\n      tag_279\n        /* \"#utility.yul\":6092:6098   */\n      dup2\n        /* \"#utility.yul\":6070:6099   */\n      tag_272\n      jump\t// in\n    tag_279:\n        /* \"#utility.yul\":6065:6068   */\n      dup5\n        /* \"#utility.yul\":6061:6100   */\n      add\n        /* \"#utility.yul\":6054:6100   */\n      swap2\n      pop\n        /* \"#utility.yul\":5834:6106   */\n      pop\n        /* \"#utility.yul\":5742:6106   */\n      swap3\n      swap2\n      pop\n      pop\n      jump\t// out\n        /* \"#utility.yul\":6112:6478   */\n    tag_280:\n        /* \"#utility.yul\":6254:6257   */\n      0x00\n        /* \"#utility.yul\":6275:6342   */\n      tag_282\n        /* \"#utility.yul\":6339:6341   */\n      0x17\n        /* \"#utility.yul\":6334:6337   */\n      dup4\n        /* \"#utility.yul\":6275:6342   */\n      tag_277\n      jump\t// in\n    tag_282:\n        /* \"#utility.yul\":6268:6342   */\n      swap2\n      pop\n        /* \"#utility.yul\":6351:6444   */\n      tag_283\n        /* \"#utility.yul\":6440:6443   */\n      dup3\n        /* \"#utility.yul\":6351:6444   */\n      tag_284\n      jump\t// in\n    tag_283:\n        /* \"#utility.yul\":6469:6471   */\n      0x20\n        /* \"#utility.yul\":6464:6467   */\n      dup3\n        /* \"#utility.yul\":6460:6472   */\n      add\n        /* \"#utility.yul\":6453:6472   */\n      swap1\n      pop\n        /* \"#utility.yul\":6112:6478   */\n      swap2\n      swap1\n      pop\n      jump\t// out\n        /* \"#utility.yul\":6484:6850   */\n    tag_285:\n        /* \"#utility.yul\":6626:6629   */\n      0x00\n        /* \"#utility.yul\":6647:6714   */\n      tag_287\n        /* \"#utility.yul\":6711:6713   */\n      0x23\n        /* \"#utility.yul\":6706:6709   */\n      dup4\n        /* \"#utility.yul\":6647:6714   */\n      tag_277\n      jump\t// in\n    tag_287:\n        /* \"#utility.yul\":6640:6714   */\n      swap2\n      pop\n        /* \"#utility.yul\":6723:6816   */\n      tag_288\n        /* \"#utility.yul\":6812:6815   */\n      dup3\n        /* \"#utility.yul\":6723:6816   */\n      tag_289\n      jump\t// in\n    tag_288:\n        /* \"#utility.yul\":6841:6843   */\n      0x40\n        /* \"#utility.yul\":6836:6839   */\n      dup3\n        /* \"#utility.yul\":6832:6844   */\n      add\n        /* \"#utility.yul\":6825:6844   */\n      swap1\n      pop\n        /* \"#utility.yul\":6484:6850   */\n      swap2\n      swap1\n      pop\n      jump\t// out\n        /* \"#utility.yul\":6856:7222   */\n    tag_290:\n        /* \"#utility.yul\":6998:7001   */\n      0x00\n        /* \"#utility.yul\":7019:7086   */\n      tag_292\n        /* \"#utility.yul\":7083:7085   */\n      0x19\n        /* \"#utility.yul\":7078:7081   */\n      dup4\n        /* \"#utility.yul\":7019:7086   */\n      tag_277\n      jump\t// in\n    tag_292:\n        /* \"#utility.yul\":7012:7086   */\n      swap2\n      pop\n        /* \"#utility.yul\":7095:7188   */\n      tag_293\n        /* \"#utility.yul\":7184:7187   */\n      dup3\n        /* \"#utility.yul\":7095:7188   */\n      tag_294\n      jump\t// in\n    tag_293:\n        /* \"#utility.yul\":7213:7215   */\n      0x20\n        /* \"#utility.yul\":7208:7211   */\n      dup3\n        /* \"#utility.yul\":7204:7216   */\n      add\n        /* \"#utility.yul\":7197:7216   */\n      swap1\n      pop\n        /* \"#utility.yul\":6856:7222   */\n      swap2\n      swap1\n      pop\n      jump\t// out\n        /* \"#utility.yul\":7228:7594   */\n    tag_295:\n        /* \"#utility.yul\":7370:7373   */\n      0x00\n        /* \"#utility.yul\":7391:7458   */\n      tag_297\n        /* \"#utility.yul\":7455:7457   */\n      0x0c\n        /* \"#utility.yul\":7450:7453   */\n      dup4\n        /* \"#utility.yul\":7391:7458   */\n      tag_277\n      jump\t// in\n    tag_297:\n        /* \"#utility.yul\":7384:7458   */\n      swap2\n      pop\n        /* \"#utility.yul\":7467:7560   */\n      tag_298\n        /* \"#utility.yul\":7556:7559   */\n      dup3\n        /* \"#utility.yul\":7467:7560   */\n      tag_299\n      jump\t// in\n    tag_298:\n        /* \"#utility.yul\":7585:7587   */\n      0x20\n        /* \"#utility.yul\":7580:7583   */\n      dup3\n        /* \"#utility.yul\":7576:7588   */\n      add\n        /* \"#utility.yul\":7569:7588   */\n      swap1\n      pop\n        /* \"#utility.yul\":7228:7594   */\n      swap2\n      swap1\n      pop\n      jump\t// out\n        /* \"#utility.yul\":7600:7966   */\n    tag_300:\n        /* \"#utility.yul\":7742:7745   */\n      0x00\n        /* \"#utility.yul\":7763:7830   */\n      tag_302\n        /* \"#utility.yul\":7827:7829   */\n      0x14\n        /* \"#utility.yul\":7822:7825   */\n      dup4\n        /* \"#utility.yul\":7763:7830   */\n      tag_277\n      jump\t// in\n    tag_302:\n        /* \"#utility.yul\":7756:7830   */\n      swap2\n      pop\n        /* \"#utility.yul\":7839:7932   */\n      tag_303\n        /* \"#utility.yul\":7928:7931   */\n      dup3\n        /* \"#utility.yul\":7839:7932   */\n      tag_304\n      jump\t// in\n    tag_303:\n        /* \"#utility.yul\":7957:7959   */\n      0x20\n        /* \"#utility.yul\":7952:7955   */\n      dup3\n        /* \"#utility.yul\":7948:7960   */\n      add\n        /* \"#utility.yul\":7941:7960   */\n      swap1\n      pop\n        /* \"#utility.yul\":7600:7966   */\n      swap2\n      swap1\n      pop\n      jump\t// out\n        /* \"#utility.yul\":8020:9086   */\n    tag_305:\n        /* \"#utility.yul\":8131:8134   */\n      0x00\n        /* \"#utility.yul\":8167:8171   */\n      0x80\n        /* \"#utility.yul\":8162:8165   */\n      dup4\n        /* \"#utility.yul\":8158:8172   */\n      add\n        /* \"#utility.yul\":8258:8262   */\n      0x00\n        /* \"#utility.yul\":8251:8256   */\n      dup4\n        /* \"#utility.yul\":8247:8263   */\n      add\n        /* \"#utility.yul\":8241:8264   */\n      mload\n        /* \"#utility.yul\":8277:8340   */\n      tag_307\n        /* \"#utility.yul\":8334:8338   */\n      0x00\n        /* \"#utility.yul\":8329:8332   */\n      dup7\n        /* \"#utility.yul\":8325:8339   */\n      add\n        /* \"#utility.yul\":8311:8323   */\n      dup3\n        /* \"#utility.yul\":8277:8340   */\n      tag_235\n      jump\t// in\n    tag_307:\n        /* \"#utility.yul\":8182:8350   */\n      pop\n        /* \"#utility.yul\":8435:8439   */\n      0x20\n        /* \"#utility.yul\":8428:8433   */\n      dup4\n        /* \"#utility.yul\":8424:8440   */\n      add\n        /* \"#utility.yul\":8418:8441   */\n      mload\n        /* \"#utility.yul\":8488:8491   */\n      dup5\n        /* \"#utility.yul\":8482:8486   */\n      dup3\n        /* \"#utility.yul\":8478:8492   */\n      sub\n        /* \"#utility.yul\":8471:8475   */\n      0x20\n        /* \"#utility.yul\":8466:8469   */\n      dup7\n        /* \"#utility.yul\":8462:8476   */\n      add\n        /* \"#utility.yul\":8455:8493   */\n      mstore\n        /* \"#utility.yul\":8514:8587   */\n      tag_308\n        /* \"#utility.yul\":8582:8586   */\n      dup3\n        /* \"#utility.yul\":8568:8580   */\n      dup3\n        /* \"#utility.yul\":8514:8587   */\n      tag_263\n      jump\t// in\n    tag_308:\n        /* \"#utility.yul\":8506:8587   */\n      swap2\n      pop\n        /* \"#utility.yul\":8360:8598   */\n      pop\n        /* \"#utility.yul\":8684:8688   */\n      0x40\n        /* \"#utility.yul\":8677:8682   */\n      dup4\n        /* \"#utility.yul\":8673:8689   */\n      add\n        /* \"#utility.yul\":8667:8690   */\n      mload\n        /* \"#utility.yul\":8737:8740   */\n      dup5\n        /* \"#utility.yul\":8731:8735   */\n      dup3\n        /* \"#utility.yul\":8727:8741   */\n      sub\n        /* \"#utility.yul\":8720:8724   */\n      0x40\n        /* \"#utility.yul\":8715:8718   */\n      dup7\n        /* \"#utility.yul\":8711:8725   */\n      add\n        /* \"#utility.yul\":8704:8742   */\n      mstore\n        /* \"#utility.yul\":8763:8866   */\n      tag_309\n        /* \"#utility.yul\":8861:8865   */\n      dup3\n        /* \"#utility.yul\":8847:8859   */\n      dup3\n        /* \"#utility.yul\":8763:8866   */\n      tag_242\n      jump\t// in\n    tag_309:\n        /* \"#utility.yul\":8755:8866   */\n      swap2\n      pop\n        /* \"#utility.yul\":8608:8877   */\n      pop\n        /* \"#utility.yul\":8961:8965   */\n      0x60\n        /* \"#utility.yul\":8954:8959   */\n      dup4\n        /* \"#utility.yul\":8950:8966   */\n      add\n        /* \"#utility.yul\":8944:8967   */\n      mload\n        /* \"#utility.yul\":8980:9049   */\n      tag_310\n        /* \"#utility.yul\":9043:9047   */\n      0x60\n        /* \"#utility.yul\":9038:9041   */\n      dup7\n        /* \"#utility.yul\":9034:9048   */\n      add\n        /* \"#utility.yul\":9020:9032   */\n      dup3\n        /* \"#utility.yul\":8980:9049   */\n      tag_256\n      jump\t// in\n    tag_310:\n        /* \"#utility.yul\":8887:9059   */\n      pop\n        /* \"#utility.yul\":9076:9080   */\n      dup1\n        /* \"#utility.yul\":9069:9080   */\n      swap2\n      pop\n        /* \"#utility.yul\":8136:9086   */\n      pop\n        /* \"#utility.yul\":8020:9086   */\n      swap3\n      swap2\n      pop\n      pop\n      jump\t// out\n        /* \"#utility.yul\":9092:9200   */\n    tag_234:\n        /* \"#utility.yul\":9169:9193   */\n      tag_312\n        /* \"#utility.yul\":9187:9192   */\n      dup2\n        /* \"#utility.yul\":9169:9193   */\n      tag_313\n      jump\t// in\n    tag_312:\n        /* \"#utility.yul\":9164:9167   */\n      dup3\n        /* \"#utility.yul\":9157:9194   */\n      mstore\n        /* \"#utility.yul\":9092:9200   */\n      pop\n      pop\n      jump\t// out\n        /* \"#utility.yul\":9206:9324   */\n    tag_314:\n        /* \"#utility.yul\":9293:9317   */\n      tag_316\n        /* \"#utility.yul\":9311:9316   */\n      dup2\n        /* \"#utility.yul\":9293:9317   */\n      tag_313\n      jump\t// in\n    tag_316:\n        /* \"#utility.yul\":9288:9291   */\n      dup3\n        /* \"#utility.yul\":9281:9318   */\n      mstore\n        /* \"#utility.yul\":9206:9324   */\n      pop\n      pop\n      jump\t// out\n        /* \"#utility.yul\":9330:9552   */\n    tag_27:\n        /* \"#utility.yul\":9423:9427   */\n      0x00\n        /* \"#utility.yul\":9461:9463   */\n      0x20\n        /* \"#utility.yul\":9450:9459   */\n      dup3\n        /* \"#utility.yul\":9446:9464   */\n      add\n        /* \"#utility.yul\":9438:9464   */\n      swap1\n      pop\n        /* \"#utility.yul\":9474:9545   */\n      tag_318\n        /* \"#utility.yul\":9542:9543   */\n      0x00\n        /* \"#utility.yul\":9531:9540   */\n      dup4\n        /* \"#utility.yul\":9527:9544   */\n      add\n        /* \"#utility.yul\":9518:9524   */\n      dup5\n        /* \"#utility.yul\":9474:9545   */\n      tag_239\n      jump\t// in\n    tag_318:\n        /* \"#utility.yul\":9330:9552   */\n      swap3\n      swap2\n      pop\n      pop\n      jump\t// out\n        /* \"#utility.yul\":9558:10103   */\n    tag_33:\n        /* \"#utility.yul\":9733:9737   */\n      0x00\n        /* \"#utility.yul\":9771:9773   */\n      0x60\n        /* \"#utility.yul\":9760:9769   */\n      dup3\n        /* \"#utility.yul\":9756:9774   */\n      add\n        /* \"#utility.yul\":9748:9774   */\n      swap1\n      pop\n        /* \"#utility.yul\":9784:9855   */\n      tag_320\n        /* \"#utility.yul\":9852:9853   */\n      0x00\n        /* \"#utility.yul\":9841:9850   */\n      dup4\n        /* \"#utility.yul\":9837:9854   */\n      add\n        /* \"#utility.yul\":9828:9834   */\n      dup7\n        /* \"#utility.yul\":9784:9855   */\n      tag_239\n      jump\t// in\n    tag_320:\n        /* \"#utility.yul\":9902:9911   */\n      dup2\n        /* \"#utility.yul\":9896:9900   */\n      dup2\n        /* \"#utility.yul\":9892:9912   */\n      sub\n        /* \"#utility.yul\":9887:9889   */\n      0x20\n        /* \"#utility.yul\":9876:9885   */\n      dup4\n        /* \"#utility.yul\":9872:9890   */\n      add\n        /* \"#utility.yul\":9865:9913   */\n      mstore\n        /* \"#utility.yul\":9930:10008   */\n      tag_321\n        /* \"#utility.yul\":10003:10007   */\n      dup2\n        /* \"#utility.yul\":9994:10000   */\n      dup6\n        /* \"#utility.yul\":9930:10008   */\n      tag_273\n      jump\t// in\n    tag_321:\n        /* \"#utility.yul\":9922:10008   */\n      swap1\n      pop\n        /* \"#utility.yul\":10018:10096   */\n      tag_322\n        /* \"#utility.yul\":10092:10094   */\n      0x40\n        /* \"#utility.yul\":10081:10090   */\n      dup4\n        /* \"#utility.yul\":10077:10095   */\n      add\n        /* \"#utility.yul\":10068:10074   */\n      dup5\n        /* \"#utility.yul\":10018:10096   */\n      tag_260\n      jump\t// in\n    tag_322:\n        /* \"#utility.yul\":9558:10103   */\n      swap5\n      swap4\n      pop\n      pop\n      pop\n      pop\n      jump\t// out\n        /* \"#utility.yul\":10109:10528   */\n    tag_99:\n        /* \"#utility.yul\":10275:10279   */\n      0x00\n        /* \"#utility.yul\":10313:10315   */\n      0x20\n        /* \"#utility.yul\":10302:10311   */\n      dup3\n        /* \"#utility.yul\":10298:10316   */\n      add\n        /* \"#utility.yul\":10290:10316   */\n      swap1\n      pop\n        /* \"#utility.yul\":10362:10371   */\n      dup2\n        /* \"#utility.yul\":10356:10360   */\n      dup2\n        /* \"#utility.yul\":10352:10372   */\n      sub\n        /* \"#utility.yul\":10348:10349   */\n      0x00\n        /* \"#utility.yul\":10337:10346   */\n      dup4\n        /* \"#utility.yul\":10333:10350   */\n      add\n        /* \"#utility.yul\":10326:10373   */\n      mstore\n        /* \"#utility.yul\":10390:10521   */\n      tag_324\n        /* \"#utility.yul\":10516:10520   */\n      dup2\n        /* \"#utility.yul\":10390:10521   */\n      tag_280\n      jump\t// in\n    tag_324:\n        /* \"#utility.yul\":10382:10521   */\n      swap1\n      pop\n        /* \"#utility.yul\":10109:10528   */\n      swap2\n      swap1\n      pop\n      jump\t// out\n        /* \"#utility.yul\":10534:10953   */\n    tag_53:\n        /* \"#utility.yul\":10700:10704   */\n      0x00\n        /* \"#utility.yul\":10738:10740   */\n      0x20\n        /* \"#utility.yul\":10727:10736   */\n      dup3\n        /* \"#utility.yul\":10723:10741   */\n      add\n        /* \"#utility.yul\":10715:10741   */\n      swap1\n      pop\n        /* \"#utility.yul\":10787:10796   */\n      dup2\n        /* \"#utility.yul\":10781:10785   */\n      dup2\n        /* \"#utility.yul\":10777:10797   */\n      sub\n        /* \"#utility.yul\":10773:10774   */\n      0x00\n        /* \"#utility.yul\":10762:10771   */\n      dup4\n        /* \"#utility.yul\":10758:10775   */\n      add\n        /* \"#utility.yul\":10751:10798   */\n      mstore\n        /* \"#utility.yul\":10815:10946   */\n      tag_326\n        /* \"#utility.yul\":10941:10945   */\n      dup2\n        /* \"#utility.yul\":10815:10946   */\n      tag_285\n      jump\t// in\n    tag_326:\n        /* \"#utility.yul\":10807:10946   */\n      swap1\n      pop\n        /* \"#utility.yul\":10534:10953   */\n      swap2\n      swap1\n      pop\n      jump\t// out\n        /* \"#utility.yul\":10959:11378   */\n    tag_110:\n        /* \"#utility.yul\":11125:11129   */\n      0x00\n        /* \"#utility.yul\":11163:11165   */\n      0x20\n        /* \"#utility.yul\":11152:11161   */\n      dup3\n        /* \"#utility.yul\":11148:11166   */\n      add\n        /* \"#utility.yul\":11140:11166   */\n      swap1\n      pop\n        /* \"#utility.yul\":11212:11221   */\n      dup2\n        /* \"#utility.yul\":11206:11210   */\n      dup2\n        /* \"#utility.yul\":11202:11222   */\n      sub\n        /* \"#utility.yul\":11198:11199   */\n      0x00\n        /* \"#utility.yul\":11187:11196   */\n      dup4\n        /* \"#utility.yul\":11183:11200   */\n      add\n        /* \"#utility.yul\":11176:11223   */\n      mstore\n        /* \"#utility.yul\":11240:11371   */\n      tag_328\n        /* \"#utility.yul\":11366:11370   */\n      dup2\n        /* \"#utility.yul\":11240:11371   */\n      tag_290\n      jump\t// in\n    tag_328:\n        /* \"#utility.yul\":11232:11371   */\n      swap1\n      pop\n        /* \"#utility.yul\":10959:11378   */\n      swap2\n      swap1\n      pop\n      jump\t// out\n        /* \"#utility.yul\":11384:11803   */\n    tag_68:\n        /* \"#utility.yul\":11550:11554   */\n      0x00\n        /* \"#utility.yul\":11588:11590   */\n      0x20\n        /* \"#utility.yul\":11577:11586   */\n      dup3\n        /* \"#utility.yul\":11573:11591   */\n      add\n        /* \"#utility.yul\":11565:11591   */\n      swap1\n      pop\n        /* \"#utility.yul\":11637:11646   */\n      dup2\n        /* \"#utility.yul\":11631:11635   */\n      dup2\n        /* \"#utility.yul\":11627:11647   */\n      sub\n        /* \"#utility.yul\":11623:11624   */\n      0x00\n        /* \"#utility.yul\":11612:11621   */\n      dup4\n        /* \"#utility.yul\":11608:11625   */\n      add\n        /* \"#utility.yul\":11601:11648   */\n      mstore\n        /* \"#utility.yul\":11665:11796   */\n      tag_330\n        /* \"#utility.yul\":11791:11795   */\n      dup2\n        /* \"#utility.yul\":11665:11796   */\n      tag_295\n      jump\t// in\n    tag_330:\n        /* \"#utility.yul\":11657:11796   */\n      swap1\n      pop\n        /* \"#utility.yul\":11384:11803   */\n      swap2\n      swap1\n      pop\n      jump\t// out\n        /* \"#utility.yul\":11809:12228   */\n    tag_45:\n        /* \"#utility.yul\":11975:11979   */\n      0x00\n        /* \"#utility.yul\":12013:12015   */\n      0x20\n        /* \"#utility.yul\":12002:12011   */\n      dup3\n        /* \"#utility.yul\":11998:12016   */\n      add\n        /* \"#utility.yul\":11990:12016   */\n      swap1\n      pop\n        /* \"#utility.yul\":12062:12071   */\n      dup2\n        /* \"#utility.yul\":12056:12060   */\n      dup2\n        /* \"#utility.yul\":12052:12072   */\n      sub\n        /* \"#utility.yul\":12048:12049   */\n      0x00\n        /* \"#utility.yul\":12037:12046   */\n      dup4\n        /* \"#utility.yul\":12033:12050   */\n      add\n        /* \"#utility.yul\":12026:12073   */\n      mstore\n        /* \"#utility.yul\":12090:12221   */\n      tag_332\n        /* \"#utility.yul\":12216:12220   */\n      dup2\n        /* \"#utility.yul\":12090:12221   */\n      tag_300\n      jump\t// in\n    tag_332:\n        /* \"#utility.yul\":12082:12221   */\n      swap1\n      pop\n        /* \"#utility.yul\":11809:12228   */\n      swap2\n      swap1\n      pop\n      jump\t// out\n        /* \"#utility.yul\":12234:12591   */\n    tag_41:\n        /* \"#utility.yul\":12369:12373   */\n      0x00\n        /* \"#utility.yul\":12407:12409   */\n      0x20\n        /* \"#utility.yul\":12396:12405   */\n      dup3\n        /* \"#utility.yul\":12392:12410   */\n      add\n        /* \"#utility.yul\":12384:12410   */\n      swap1\n      pop\n        /* \"#utility.yul\":12456:12465   */\n      dup2\n        /* \"#utility.yul\":12450:12454   */\n      dup2\n        /* \"#utility.yul\":12446:12466   */\n      sub\n        /* \"#utility.yul\":12442:12443   */\n      0x00\n        /* \"#utility.yul\":12431:12440   */\n      dup4\n        /* \"#utility.yul\":12427:12444   */\n      add\n        /* \"#utility.yul\":12420:12467   */\n      mstore\n        /* \"#utility.yul\":12484:12584   */\n      tag_334\n        /* \"#utility.yul\":12579:12583   */\n      dup2\n        /* \"#utility.yul\":12570:12576   */\n      dup5\n        /* \"#utility.yul\":12484:12584   */\n      tag_305\n      jump\t// in\n    tag_334:\n        /* \"#utility.yul\":12476:12584   */\n      swap1\n      pop\n        /* \"#utility.yul\":12234:12591   */\n      swap3\n      swap2\n      pop\n      pop\n      jump\t// out\n        /* \"#utility.yul\":12597:12819   */\n    tag_14:\n        /* \"#utility.yul\":12690:12694   */\n      0x00\n        /* \"#utility.yul\":12728:12730   */\n      0x20\n        /* \"#utility.yul\":12717:12726   */\n      dup3\n        /* \"#utility.yul\":12713:12731   */\n      add\n        /* \"#utility.yul\":12705:12731   */\n      swap1\n      pop\n        /* \"#utility.yul\":12741:12812   */\n      tag_336\n        /* \"#utility.yul\":12809:12810   */\n      0x00\n        /* \"#utility.yul\":12798:12807   */\n      dup4\n        /* \"#utility.yul\":12794:12811   */\n      add\n        /* \"#utility.yul\":12785:12791   */\n      dup5\n        /* \"#utility.yul\":12741:12812   */\n      tag_314\n      jump\t// in\n    tag_336:\n        /* \"#utility.yul\":12597:12819   */\n      swap3\n      swap2\n      pop\n      pop\n      jump\t// out\n        /* \"#utility.yul\":12825:13248   */\n    tag_62:\n        /* \"#utility.yul\":12966:12970   */\n      0x00\n        /* \"#utility.yul\":13004:13006   */\n      0x40\n        /* \"#utility.yul\":12993:13002   */\n      dup3\n        /* \"#utility.yul\":12989:13007   */\n      add\n        /* \"#utility.yul\":12981:13007   */\n      swap1\n      pop\n        /* \"#utility.yul\":13017:13088   */\n      tag_338\n        /* \"#utility.yul\":13085:13086   */\n      0x00\n        /* \"#utility.yul\":13074:13083   */\n      dup4\n        /* \"#utility.yul\":13070:13087   */\n      add\n        /* \"#utility.yul\":13061:13067   */\n      dup6\n        /* \"#utility.yul\":13017:13088   */\n      tag_314\n      jump\t// in\n    tag_338:\n        /* \"#utility.yul\":13135:13144   */\n      dup2\n        /* \"#utility.yul\":13129:13133   */\n      dup2\n        /* \"#utility.yul\":13125:13145   */\n      sub\n        /* \"#utility.yul\":13120:13122   */\n      0x20\n        /* \"#utility.yul\":13109:13118   */\n      dup4\n        /* \"#utility.yul\":13105:13123   */\n      add\n        /* \"#utility.yul\":13098:13146   */\n      mstore\n        /* \"#utility.yul\":13163:13241   */\n      tag_339\n        /* \"#utility.yul\":13236:13240   */\n      dup2\n        /* \"#utility.yul\":13227:13233   */\n      dup5\n        /* \"#utility.yul\":13163:13241   */\n      tag_273\n      jump\t// in\n    tag_339:\n        /* \"#utility.yul\":13155:13241   */\n      swap1\n      pop\n        /* \"#utility.yul\":12825:13248   */\n      swap4\n      swap3\n      pop\n      pop\n      pop\n      jump\t// out\n        /* \"#utility.yul\":13254:13383   */\n    tag_176:\n        /* \"#utility.yul\":13288:13294   */\n      0x00\n        /* \"#utility.yul\":13315:13335   */\n      tag_341\n      tag_342\n      jump\t// in\n    tag_341:\n        /* \"#utility.yul\":13305:13335   */\n      swap1\n      pop\n        /* \"#utility.yul\":13344:13377   */\n      tag_343\n        /* \"#utility.yul\":13372:13376   */\n      dup3\n        /* \"#utility.yul\":13364:13370   */\n      dup3\n        /* \"#utility.yul\":13344:13377   */\n      tag_344\n      jump\t// in\n    tag_343:\n        /* \"#utility.yul\":13254:13383   */\n      swap2\n      swap1\n      pop\n      jump\t// out\n        /* \"#utility.yul\":13389:13464   */\n    tag_342:\n        /* \"#utility.yul\":13422:13428   */\n      0x00\n        /* \"#utility.yul\":13455:13457   */\n      0x40\n        /* \"#utility.yul\":13449:13458   */\n      mload\n        /* \"#utility.yul\":13439:13458   */\n      swap1\n      pop\n        /* \"#utility.yul\":13389:13464   */\n      swap1\n      jump\t// out\n        /* \"#utility.yul\":13470:13781   */\n    tag_175:\n        /* \"#utility.yul\":13547:13551   */\n      0x00\n        /* \"#utility.yul\":13637:13655   */\n      0xffffffffffffffff\n        /* \"#utility.yul\":13629:13635   */\n      dup3\n        /* \"#utility.yul\":13626:13656   */\n      gt\n        /* \"#utility.yul\":13623:13679   */\n      iszero\n      tag_347\n      jumpi\n        /* \"#utility.yul\":13659:13677   */\n      tag_348\n      tag_349\n      jump\t// in\n    tag_348:\n        /* \"#utility.yul\":13623:13679   */\n    tag_347:\n        /* \"#utility.yul\":13709:13713   */\n      0x20\n        /* \"#utility.yul\":13701:13707   */\n      dup3\n        /* \"#utility.yul\":13697:13714   */\n      mul\n        /* \"#utility.yul\":13689:13714   */\n      swap1\n      pop\n        /* \"#utility.yul\":13769:13773   */\n      0x20\n        /* \"#utility.yul\":13763:13767   */\n      dup2\n        /* \"#utility.yul\":13759:13774   */\n      add\n        /* \"#utility.yul\":13751:13774   */\n      swap1\n      pop\n        /* \"#utility.yul\":13470:13781   */\n      swap2\n      swap1\n      pop\n      jump\t// out\n        /* \"#utility.yul\":13787:14095   */\n    tag_189:\n        /* \"#utility.yul\":13849:13853   */\n      0x00\n        /* \"#utility.yul\":13939:13957   */\n      0xffffffffffffffff\n        /* \"#utility.yul\":13931:13937   */\n      dup3\n        /* \"#utility.yul\":13928:13958   */\n      gt\n        /* \"#utility.yul\":13925:13981   */\n      iszero\n      tag_351\n      jumpi\n        /* \"#utility.yul\":13961:13979   */\n      tag_352\n      tag_349\n      jump\t// in\n    tag_352:\n        /* \"#utility.yul\":13925:13981   */\n    tag_351:\n        /* \"#utility.yul\":13999:14028   */\n      tag_353\n        /* \"#utility.yul\":14021:14027   */\n      dup3\n        /* \"#utility.yul\":13999:14028   */\n      tag_272\n      jump\t// in\n    tag_353:\n        /* \"#utility.yul\":13991:14028   */\n      swap1\n      pop\n        /* \"#utility.yul\":14083:14087   */\n      0x20\n        /* \"#utility.yul\":14077:14081   */\n      dup2\n        /* \"#utility.yul\":14073:14088   */\n      add\n        /* \"#utility.yul\":14065:14088   */\n      swap1\n      pop\n        /* \"#utility.yul\":13787:14095   */\n      swap2\n      swap1\n      pop\n      jump\t// out\n        /* \"#utility.yul\":14101:14233   */\n    tag_249:\n        /* \"#utility.yul\":14168:14172   */\n      0x00\n        /* \"#utility.yul\":14191:14194   */\n      dup2\n        /* \"#utility.yul\":14183:14194   */\n      swap1\n      pop\n        /* \"#utility.yul\":14221:14225   */\n      0x20\n        /* \"#utility.yul\":14216:14219   */\n      dup3\n        /* \"#utility.yul\":14212:14226   */\n      add\n        /* \"#utility.yul\":14204:14226   */\n      swap1\n      pop\n        /* \"#utility.yul\":14101:14233   */\n      swap2\n      swap1\n      pop\n      jump\t// out\n        /* \"#utility.yul\":14239:14353   */\n    tag_245:\n        /* \"#utility.yul\":14306:14312   */\n      0x00\n        /* \"#utility.yul\":14340:14345   */\n      dup2\n        /* \"#utility.yul\":14334:14346   */\n      mload\n        /* \"#utility.yul\":14324:14346   */\n      swap1\n      pop\n        /* \"#utility.yul\":14239:14353   */\n      swap2\n      swap1\n      pop\n      jump\t// out\n        /* \"#utility.yul\":14359:14458   */\n    tag_266:\n        /* \"#utility.yul\":14411:14417   */\n      0x00\n        /* \"#utility.yul\":14445:14450   */\n      dup2\n        /* \"#utility.yul\":14439:14451   */\n      mload\n        /* \"#utility.yul\":14429:14451   */\n      swap1\n      pop\n        /* \"#utility.yul\":14359:14458   */\n      swap2\n      swap1\n      pop\n      jump\t// out\n        /* \"#utility.yul\":14464:14577   */\n    tag_255:\n        /* \"#utility.yul\":14534:14538   */\n      0x00\n        /* \"#utility.yul\":14566:14570   */\n      0x20\n        /* \"#utility.yul\":14561:14564   */\n      dup3\n        /* \"#utility.yul\":14557:14571   */\n      add\n        /* \"#utility.yul\":14549:14571   */\n      swap1\n      pop\n        /* \"#utility.yul\":14464:14577   */\n      swap2\n      swap1\n      pop\n      jump\t// out\n        /* \"#utility.yul\":14583:14757   */\n    tag_247:\n        /* \"#utility.yul\":14672:14683   */\n      0x00\n        /* \"#utility.yul\":14706:14712   */\n      dup3\n        /* \"#utility.yul\":14701:14704   */\n      dup3\n        /* \"#utility.yul\":14694:14713   */\n      mstore\n        /* \"#utility.yul\":14746:14750   */\n      0x20\n        /* \"#utility.yul\":14741:14744   */\n      dup3\n        /* \"#utility.yul\":14737:14751   */\n      add\n        /* \"#utility.yul\":14722:14751   */\n      swap1\n      pop\n        /* \"#utility.yul\":14583:14757   */\n      swap3\n      swap2\n      pop\n      pop\n      jump\t// out\n        /* \"#utility.yul\":14763:14922   */\n    tag_268:\n        /* \"#utility.yul\":14837:14848   */\n      0x00\n        /* \"#utility.yul\":14871:14877   */\n      dup3\n        /* \"#utility.yul\":14866:14869   */\n      dup3\n        /* \"#utility.yul\":14859:14878   */\n      mstore\n        /* \"#utility.yul\":14911:14915   */\n      0x20\n        /* \"#utility.yul\":14906:14909   */\n      dup3\n        /* \"#utility.yul\":14902:14916   */\n      add\n        /* \"#utility.yul\":14887:14916   */\n      swap1\n      pop\n        /* \"#utility.yul\":14763:14922   */\n      swap3\n      swap2\n      pop\n      pop\n      jump\t// out\n        /* \"#utility.yul\":14928:15097   */\n    tag_277:\n        /* \"#utility.yul\":15012:15023   */\n      0x00\n        /* \"#utility.yul\":15046:15052   */\n      dup3\n        /* \"#utility.yul\":15041:15044   */\n      dup3\n        /* \"#utility.yul\":15034:15053   */\n      mstore\n        /* \"#utility.yul\":15086:15090   */\n      0x20\n        /* \"#utility.yul\":15081:15084   */\n      dup3\n        /* \"#utility.yul\":15077:15091   */\n      add\n        /* \"#utility.yul\":15062:15091   */\n      swap1\n      pop\n        /* \"#utility.yul\":14928:15097   */\n      swap3\n      swap2\n      pop\n      pop\n      jump\t// out\n        /* \"#utility.yul\":15103:15294   */\n    tag_81:\n        /* \"#utility.yul\":15143:15147   */\n      0x00\n        /* \"#utility.yul\":15163:15183   */\n      tag_362\n        /* \"#utility.yul\":15181:15182   */\n      dup3\n        /* \"#utility.yul\":15163:15183   */\n      tag_313\n      jump\t// in\n    tag_362:\n        /* \"#utility.yul\":15158:15183   */\n      swap2\n      pop\n        /* \"#utility.yul\":15197:15217   */\n      tag_363\n        /* \"#utility.yul\":15215:15216   */\n      dup4\n        /* \"#utility.yul\":15197:15217   */\n      tag_313\n      jump\t// in\n    tag_363:\n        /* \"#utility.yul\":15192:15217   */\n      swap3\n      pop\n        /* \"#utility.yul\":15236:15237   */\n      dup3\n        /* \"#utility.yul\":15233:15234   */\n      dup3\n        /* \"#utility.yul\":15230:15238   */\n      lt\n        /* \"#utility.yul\":15227:15261   */\n      iszero\n      tag_364\n      jumpi\n        /* \"#utility.yul\":15241:15259   */\n      tag_365\n      tag_366\n      jump\t// in\n    tag_365:\n        /* \"#utility.yul\":15227:15261   */\n    tag_364:\n        /* \"#utility.yul\":15286:15287   */\n      dup3\n        /* \"#utility.yul\":15283:15284   */\n      dup3\n        /* \"#utility.yul\":15279:15288   */\n      sub\n        /* \"#utility.yul\":15271:15288   */\n      swap1\n      pop\n        /* \"#utility.yul\":15103:15294   */\n      swap3\n      swap2\n      pop\n      pop\n      jump\t// out\n        /* \"#utility.yul\":15300:15396   */\n    tag_238:\n        /* \"#utility.yul\":15337:15344   */\n      0x00\n        /* \"#utility.yul\":15366:15390   */\n      tag_368\n        /* \"#utility.yul\":15384:15389   */\n      dup3\n        /* \"#utility.yul\":15366:15390   */\n      tag_369\n      jump\t// in\n    tag_368:\n        /* \"#utility.yul\":15355:15390   */\n      swap1\n      pop\n        /* \"#utility.yul\":15300:15396   */\n      swap2\n      swap1\n      pop\n      jump\t// out\n        /* \"#utility.yul\":15402:15529   */\n    tag_370:\n        /* \"#utility.yul\":15447:15454   */\n      0x00\n        /* \"#utility.yul\":15476:15481   */\n      dup2\n        /* \"#utility.yul\":15465:15481   */\n      swap1\n      pop\n        /* \"#utility.yul\":15482:15523   */\n      tag_372\n        /* \"#utility.yul\":15517:15522   */\n      dup3\n        /* \"#utility.yul\":15482:15523   */\n      tag_373\n      jump\t// in\n    tag_372:\n        /* \"#utility.yul\":15402:15529   */\n      swap2\n      swap1\n      pop\n      jump\t// out\n        /* \"#utility.yul\":15535:15661   */\n    tag_369:\n        /* \"#utility.yul\":15572:15579   */\n      0x00\n        /* \"#utility.yul\":15612:15654   */\n      0xffffffffffffffffffffffffffffffffffffffff\n        /* \"#utility.yul\":15605:15610   */\n      dup3\n        /* \"#utility.yul\":15601:15655   */\n      and\n        /* \"#utility.yul\":15590:15655   */\n      swap1\n      pop\n        /* \"#utility.yul\":15535:15661   */\n      swap2\n      swap1\n      pop\n      jump\t// out\n        /* \"#utility.yul\":15667:15744   */\n    tag_313:\n        /* \"#utility.yul\":15704:15711   */\n      0x00\n        /* \"#utility.yul\":15733:15738   */\n      dup2\n        /* \"#utility.yul\":15722:15738   */\n      swap1\n      pop\n        /* \"#utility.yul\":15667:15744   */\n      swap2\n      swap1\n      pop\n      jump\t// out\n        /* \"#utility.yul\":15750:15877   */\n    tag_259:\n        /* \"#utility.yul\":15806:15815   */\n      0x00\n        /* \"#utility.yul\":15839:15871   */\n      tag_377\n        /* \"#utility.yul\":15865:15870   */\n      dup3\n        /* \"#utility.yul\":15839:15871   */\n      tag_370\n      jump\t// in\n    tag_377:\n        /* \"#utility.yul\":15826:15871   */\n      swap1\n      pop\n        /* \"#utility.yul\":15750:15877   */\n      swap2\n      swap1\n      pop\n      jump\t// out\n        /* \"#utility.yul\":15883:16037   */\n    tag_194:\n        /* \"#utility.yul\":15967:15973   */\n      dup3\n        /* \"#utility.yul\":15962:15965   */\n      dup2\n        /* \"#utility.yul\":15957:15960   */\n      dup4\n        /* \"#utility.yul\":15944:15974   */\n      calldatacopy\n        /* \"#utility.yul\":16029:16030   */\n      0x00\n        /* \"#utility.yul\":16020:16026   */\n      dup4\n        /* \"#utility.yul\":16015:16018   */\n      dup4\n        /* \"#utility.yul\":16011:16027   */\n      add\n        /* \"#utility.yul\":16004:16031   */\n      mstore\n        /* \"#utility.yul\":15883:16037   */\n      pop\n      pop\n      pop\n      jump\t// out\n        /* \"#utility.yul\":16043:16350   */\n    tag_270:\n        /* \"#utility.yul\":16111:16112   */\n      0x00\n        /* \"#utility.yul\":16121:16234   */\n    tag_380:\n        /* \"#utility.yul\":16135:16141   */\n      dup4\n        /* \"#utility.yul\":16132:16133   */\n      dup2\n        /* \"#utility.yul\":16129:16142   */\n      lt\n        /* \"#utility.yul\":16121:16234   */\n      iszero\n      tag_382\n      jumpi\n        /* \"#utility.yul\":16220:16221   */\n      dup1\n        /* \"#utility.yul\":16215:16218   */\n      dup3\n        /* \"#utility.yul\":16211:16222   */\n      add\n        /* \"#utility.yul\":16205:16223   */\n      mload\n        /* \"#utility.yul\":16201:16202   */\n      dup2\n        /* \"#utility.yul\":16196:16199   */\n      dup5\n        /* \"#utility.yul\":16192:16203   */\n      add\n        /* \"#utility.yul\":16185:16224   */\n      mstore\n        /* \"#utility.yul\":16157:16159   */\n      0x20\n        /* \"#utility.yul\":16154:16155   */\n      dup2\n        /* \"#utility.yul\":16150:16160   */\n      add\n        /* \"#utility.yul\":16145:16160   */\n      swap1\n      pop\n        /* \"#utility.yul\":16121:16234   */\n      jump(tag_380)\n    tag_382:\n        /* \"#utility.yul\":16252:16258   */\n      dup4\n        /* \"#utility.yul\":16249:16250   */\n      dup2\n        /* \"#utility.yul\":16246:16259   */\n      gt\n        /* \"#utility.yul\":16243:16344   */\n      iszero\n      tag_383\n      jumpi\n        /* \"#utility.yul\":16332:16333   */\n      0x00\n        /* \"#utility.yul\":16323:16329   */\n      dup5\n        /* \"#utility.yul\":16318:16321   */\n      dup5\n        /* \"#utility.yul\":16314:16330   */\n      add\n        /* \"#utility.yul\":16307:16334   */\n      mstore\n        /* \"#utility.yul\":16243:16344   */\n    tag_383:\n        /* \"#utility.yul\":16092:16350   */\n      pop\n        /* \"#utility.yul\":16043:16350   */\n      pop\n      pop\n      pop\n      jump\t// out\n        /* \"#utility.yul\":16356:16676   */\n    tag_88:\n        /* \"#utility.yul\":16400:16406   */\n      0x00\n        /* \"#utility.yul\":16437:16438   */\n      0x02\n        /* \"#utility.yul\":16431:16435   */\n      dup3\n        /* \"#utility.yul\":16427:16439   */\n      div\n        /* \"#utility.yul\":16417:16439   */\n      swap1\n      pop\n        /* \"#utility.yul\":16484:16485   */\n      0x01\n        /* \"#utility.yul\":16478:16482   */\n      dup3\n        /* \"#utility.yul\":16474:16486   */\n      and\n        /* \"#utility.yul\":16505:16523   */\n      dup1\n        /* \"#utility.yul\":16495:16576   */\n      tag_385\n      jumpi\n        /* \"#utility.yul\":16561:16565   */\n      0x7f\n        /* \"#utility.yul\":16553:16559   */\n      dup3\n        /* \"#utility.yul\":16549:16566   */\n      and\n        /* \"#utility.yul\":16539:16566   */\n      swap2\n      pop\n        /* \"#utility.yul\":16495:16576   */\n    tag_385:\n        /* \"#utility.yul\":16623:16625   */\n      0x20\n        /* \"#utility.yul\":16615:16621   */\n      dup3\n        /* \"#utility.yul\":16612:16626   */\n      lt\n        /* \"#utility.yul\":16592:16610   */\n      dup2\n        /* \"#utility.yul\":16589:16627   */\n      eq\n        /* \"#utility.yul\":16586:16670   */\n      iszero\n      tag_386\n      jumpi\n        /* \"#utility.yul\":16642:16660   */\n      tag_387\n      tag_388\n      jump\t// in\n    tag_387:\n        /* \"#utility.yul\":16586:16670   */\n    tag_386:\n        /* \"#utility.yul\":16407:16676   */\n      pop\n        /* \"#utility.yul\":16356:16676   */\n      swap2\n      swap1\n      pop\n      jump\t// out\n        /* \"#utility.yul\":16682:16963   */\n    tag_344:\n        /* \"#utility.yul\":16765:16792   */\n      tag_390\n        /* \"#utility.yul\":16787:16791   */\n      dup3\n        /* \"#utility.yul\":16765:16792   */\n      tag_272\n      jump\t// in\n    tag_390:\n        /* \"#utility.yul\":16757:16763   */\n      dup2\n        /* \"#utility.yul\":16753:16793   */\n      add\n        /* \"#utility.yul\":16895:16901   */\n      dup2\n        /* \"#utility.yul\":16883:16893   */\n      dup2\n        /* \"#utility.yul\":16880:16902   */\n      lt\n        /* \"#utility.yul\":16859:16877   */\n      0xffffffffffffffff\n        /* \"#utility.yul\":16847:16857   */\n      dup3\n        /* \"#utility.yul\":16844:16878   */\n      gt\n        /* \"#utility.yul\":16841:16903   */\n      or\n        /* \"#utility.yul\":16838:16926   */\n      iszero\n      tag_391\n      jumpi\n        /* \"#utility.yul\":16906:16924   */\n      tag_392\n      tag_349\n      jump\t// in\n    tag_392:\n        /* \"#utility.yul\":16838:16926   */\n    tag_391:\n        /* \"#utility.yul\":16946:16956   */\n      dup1\n        /* \"#utility.yul\":16942:16944   */\n      0x40\n        /* \"#utility.yul\":16935:16957   */\n      mstore\n        /* \"#utility.yul\":16725:16963   */\n      pop\n        /* \"#utility.yul\":16682:16963   */\n      pop\n      pop\n      jump\t// out\n        /* \"#utility.yul\":16969:17202   */\n    tag_64:\n        /* \"#utility.yul\":17008:17011   */\n      0x00\n        /* \"#utility.yul\":17031:17055   */\n      tag_394\n        /* \"#utility.yul\":17049:17054   */\n      dup3\n        /* \"#utility.yul\":17031:17055   */\n      tag_313\n      jump\t// in\n    tag_394:\n        /* \"#utility.yul\":17022:17055   */\n      swap2\n      pop\n        /* \"#utility.yul\":17077:17143   */\n      0xffffffffffffffffffffffffffffffffffffffffffffffffffffffffffffffff\n        /* \"#utility.yul\":17070:17075   */\n      dup3\n        /* \"#utility.yul\":17067:17144   */\n      eq\n        /* \"#utility.yul\":17064:17167   */\n      iszero\n      tag_395\n      jumpi\n        /* \"#utility.yul\":17147:17165   */\n      tag_396\n      tag_366\n      jump\t// in\n    tag_396:\n        /* \"#utility.yul\":17064:17167   */\n    tag_395:\n        /* \"#utility.yul\":17194:17195   */\n      0x01\n        /* \"#utility.yul\":17187:17192   */\n      dup3\n        /* \"#utility.yul\":17183:17196   */\n      add\n        /* \"#utility.yul\":17176:17196   */\n      swap1\n      pop\n        /* \"#utility.yul\":16969:17202   */\n      swap2\n      swap1\n      pop\n      jump\t// out\n        /* \"#utility.yul\":17208:17388   */\n    tag_366:\n        /* \"#utility.yul\":17256:17333   */\n      0x4e487b7100000000000000000000000000000000000000000000000000000000\n        /* \"#utility.yul\":17253:17254   */\n      0x00\n        /* \"#utility.yul\":17246:17334   */\n      mstore\n        /* \"#utility.yul\":17353:17357   */\n      0x11\n        /* \"#utility.yul\":17350:17351   */\n      0x04\n        /* \"#utility.yul\":17343:17358   */\n      mstore\n        /* \"#utility.yul\":17377:17381   */\n      0x24\n        /* \"#utility.yul\":17374:17375   */\n      0x00\n        /* \"#utility.yul\":17367:17382   */\n      revert\n        /* \"#utility.yul\":17394:17574   */\n    tag_73:\n        /* \"#utility.yul\":17442:17519   */\n      0x4e487b7100000000000000000000000000000000000000000000000000000000\n        /* \"#utility.yul\":17439:17440   */\n      0x00\n        /* \"#utility.yul\":17432:17520   */\n      mstore\n        /* \"#utility.yul\":17539:17543   */\n      0x21\n        /* \"#utility.yul\":17536:17537   */\n      0x04\n        /* \"#utility.yul\":17529:17544   */\n      mstore\n        /* \"#utility.yul\":17563:17567   */\n      0x24\n        /* \"#utility.yul\":17560:17561   */\n      0x00\n        /* \"#utility.yul\":17553:17568   */\n      revert\n        /* \"#utility.yul\":17580:17760   */\n    tag_388:\n        /* \"#utility.yul\":17628:17705   */\n      0x4e487b7100000000000000000000000000000000000000000000000000000000\n        /* \"#utility.yul\":17625:17626   */\n      0x00\n        /* \"#utility.yul\":17618:17706   */\n      mstore\n        /* \"#utility.yul\":17725:17729   */\n      0x22\n        /* \"#utility.yul\":17722:17723   */\n      0x04\n        /* \"#utility.yul\":17715:17730   */\n      mstore\n        /* \"#utility.yul\":17749:17753   */\n      0x24\n        /* \"#utility.yul\":17746:17747   */\n      0x00\n        /* \"#utility.yul\":17739:17754   */\n      revert\n        /* \"#utility.yul\":17766:17946   */\n    tag_49:\n        /* \"#utility.yul\":17814:17891   */\n      0x4e487b7100000000000000000000000000000000000000000000000000000000\n        /* \"#utility.yul\":17811:17812   */\n      0x00\n        /* \"#utility.yul\":17804:17892   */\n      mstore\n        /* \"#utility.yul\":17911:17915   */\n      0x32\n        /* \"#utility.yul\":17908:17909   */\n      0x04\n        /* \"#utility.yul\":17901:17916   */\n      mstore\n        /* \"#utility.yul\":17935:17939   */\n      0x24\n        /* \"#utility.yul\":17932:17933   */\n      0x00\n        /* \"#utility.yul\":17925:17940   */\n      revert\n        /* \"#utility.yul\":17952:18132   */\n    tag_349:\n        /* \"#utility.yul\":18000:18077   */\n      0x4e487b7100000000000000000000000000000000000000000000000000000000\n        /* \"#utility.yul\":17997:17998   */\n      0x00\n        /* \"#utility.yul\":17990:18078   */\n      mstore\n        /* \"#utility.yul\":18097:18101   */\n      0x41\n        /* \"#utility.yul\":18094:18095   */\n      0x04\n        /* \"#utility.yul\":18087:18102   */\n      mstore\n        /* \"#utility.yul\":18121:18125   */\n      0x24\n        /* \"#utility.yul\":18118:18119   */\n      0x00\n        /* \"#utility.yul\":18111:18126   */\n      revert\n        /* \"#utility.yul\":18138:18255   */\n    tag_199:\n        /* \"#utility.yul\":18247:18248   */\n      0x00\n        /* \"#utility.yul\":18244:18245   */\n      dup1\n        /* \"#utility.yul\":18237:18249   */\n      revert\n        /* \"#utility.yul\":18261:18378   */\n    tag_179:\n        /* \"#utility.yul\":18370:18371   */\n      0x00\n        /* \"#utility.yul\":18367:18368   */\n      dup1\n        /* \"#utility.yul\":18360:18372   */\n      revert\n        /* \"#utility.yul\":18384:18501   */\n    tag_192:\n        /* \"#utility.yul\":18493:18494   */\n      0x00\n        /* \"#utility.yul\":18490:18491   */\n      dup1\n        /* \"#utility.yul\":18483:18495   */\n      revert\n        /* \"#utility.yul\":18507:18624   */\n    tag_215:\n        /* \"#utility.yul\":18616:18617   */\n      0x00\n        /* \"#utility.yul\":18613:18614   */\n      dup1\n        /* \"#utility.yul\":18606:18618   */\n      revert\n        /* \"#utility.yul\":18630:18747   */\n    tag_212:\n        /* \"#utility.yul\":18739:18740   */\n      0x00\n        /* \"#utility.yul\":18736:18737   */\n      dup1\n        /* \"#utility.yul\":18729:18741   */\n      revert\n        /* \"#utility.yul\":18753:18855   */\n    tag_272:\n        /* \"#utility.yul\":18794:18800   */\n      0x00\n        /* \"#utility.yul\":18845:18847   */\n      0x1f\n        /* \"#utility.yul\":18841:18848   */\n      not\n        /* \"#utility.yul\":18836:18838   */\n      0x1f\n        /* \"#utility.yul\":18829:18834   */\n      dup4\n        /* \"#utility.yul\":18825:18839   */\n      add\n        /* \"#utility.yul\":18821:18849   */\n      and\n        /* \"#utility.yul\":18811:18849   */\n      swap1\n      pop\n        /* \"#utility.yul\":18753:18855   */\n      swap2\n      swap1\n      pop\n      jump\t// out\n        /* \"#utility.yul\":18861:19034   */\n    tag_284:\n        /* \"#utility.yul\":19001:19026   */\n      0x596f7520617265206e6f7420617574686f72697a65642e000000000000000000\n        /* \"#utility.yul\":18997:18998   */\n      0x00\n        /* \"#utility.yul\":18989:18995   */\n      dup3\n        /* \"#utility.yul\":18985:18999   */\n      add\n        /* \"#utility.yul\":18978:19027   */\n      mstore\n        /* \"#utility.yul\":18861:19034   */\n      pop\n      jump\t// out\n        /* \"#utility.yul\":19040:19262   */\n    tag_289:\n        /* \"#utility.yul\":19180:19214   */\n      0x596f7520617265206e6f7420746865206f776e6572206f6620746865206f7264\n        /* \"#utility.yul\":19176:19177   */\n      0x00\n        /* \"#utility.yul\":19168:19174   */\n      dup3\n        /* \"#utility.yul\":19164:19178   */\n      add\n        /* \"#utility.yul\":19157:19215   */\n      mstore\n        /* \"#utility.yul\":19249:19254   */\n      0x65722e0000000000000000000000000000000000000000000000000000000000\n        /* \"#utility.yul\":19244:19246   */\n      0x20\n        /* \"#utility.yul\":19236:19242   */\n      dup3\n        /* \"#utility.yul\":19232:19247   */\n      add\n        /* \"#utility.yul\":19225:19255   */\n      mstore\n        /* \"#utility.yul\":19040:19262   */\n      pop\n      jump\t// out\n        /* \"#utility.yul\":19268:19443   */\n    tag_294:\n        /* \"#utility.yul\":19408:19435   */\n      0x4f7264657220697320616c726561647920736869707065642e00000000000000\n        /* \"#utility.yul\":19404:19405   */\n      0x00\n        /* \"#utility.yul\":19396:19402   */\n      dup3\n        /* \"#utility.yul\":19392:19406   */\n      add\n        /* \"#utility.yul\":19385:19436   */\n      mstore\n        /* \"#utility.yul\":19268:19443   */\n      pop\n      jump\t// out\n        /* \"#utility.yul\":19449:19611   */\n    tag_299:\n        /* \"#utility.yul\":19589:19603   */\n      0x4e6f2070726f64756374732e0000000000000000000000000000000000000000\n        /* \"#utility.yul\":19585:19586   */\n      0x00\n        /* \"#utility.yul\":19577:19583   */\n      dup3\n        /* \"#utility.yul\":19573:19587   */\n      add\n        /* \"#utility.yul\":19566:19604   */\n      mstore\n        /* \"#utility.yul\":19449:19611   */\n      pop\n      jump\t// out\n        /* \"#utility.yul\":19617:19787   */\n    tag_304:\n        /* \"#utility.yul\":19757:19779   */\n      0x4e6f7420612076616c6964206f72646572206964000000000000000000000000\n        /* \"#utility.yul\":19753:19754   */\n      0x00\n        /* \"#utility.yul\":19745:19751   */\n      dup3\n        /* \"#utility.yul\":19741:19755   */\n      add\n        /* \"#utility.yul\":19734:19780   */\n      mstore\n        /* \"#utility.yul\":19617:19787   */\n      pop\n      jump\t// out\n        /* \"#utility.yul\":19793:19906   */\n    tag_373:\n        /* \"#utility.yul\":19874:19875   */\n      0x04\n        /* \"#utility.yul\":19867:19872   */\n      dup2\n        /* \"#utility.yul\":19864:19876   */\n      lt\n        /* \"#utility.yul\":19854:19900   */\n      tag_414\n      jumpi\n        /* \"#utility.yul\":19880:19898   */\n      tag_415\n      tag_73\n      jump\t// in\n    tag_415:\n        /* \"#utility.yul\":19854:19900   */\n    tag_414:\n        /* \"#utility.yul\":19793:19906   */\n      pop\n      jump\t// out\n        /* \"#utility.yul\":19912:20034   */\n    tag_208:\n        /* \"#utility.yul\":19985:20009   */\n      tag_417\n        /* \"#utility.yul\":20003:20008   */\n      dup2\n        /* \"#utility.yul\":19985:20009   */\n      tag_313\n      jump\t// in\n    tag_417:\n        /* \"#utility.yul\":19978:19983   */\n      dup2\n        /* \"#utility.yul\":19975:20010   */\n      eq\n        /* \"#utility.yul\":19965:20028   */\n      tag_418\n      jumpi\n        /* \"#utility.yul\":20024:20025   */\n      0x00\n        /* \"#utility.yul\":20021:20022   */\n      dup1\n        /* \"#utility.yul\":20014:20026   */\n      revert\n        /* \"#utility.yul\":19965:20028   */\n    tag_418:\n        /* \"#utility.yul\":19912:20034   */\n      pop\n      jump\t// out\n\n    auxdata: 0xa2646970667358221220181b7a14cf807494f34a444d588ab368565ecb86cc2139f61b5c1f2496fa2e6c64736f6c63430008070033\n}\n",
				"bytecode": {
					"linkReferences": {},
					"object": "608060405234801561001057600080fd5b5033600160006101000a81548173ffffffffffffffffffffffffffffffffffffffff021916908373ffffffffffffffffffffffffffffffffffffffff1602179055506116f7806100616000396000f3fe608060405234801561001057600080fd5b506004361061007d5760003560e01c80638da5cb5b1161005b5780638da5cb5b146100ec578063a85c38ef1461010a578063afe13a621461013c578063d09ef241146101585761007d565b80633c54068714610082578063577dc0a0146100a05780636d9a65d8146100bc575b600080fd5b61008a610188565b60405161009791906111d8565b60405180910390f35b6100ba60048036038101906100b59190610e06565b61018e565b005b6100d660048036038101906100d19190610d61565b610320565b6040516100e391906111d8565b60405180910390f35b6100f4610521565b60405161010191906110bd565b60405180910390f35b610124600480360381019061011f9190610dd9565b610547565b604051610133939291906110d8565b60405180910390f35b61015660048036038101906101519190610dd9565b610636565b005b610172600480360381019061016d9190610dd9565b6108fe565b60405161017f91906111b6565b60405180910390f35b60025481565b8160008054905081106101d6576040517f08c379a00000000000000000000000000000000000000000000000000000000081526004016101cd90611196565b60405180910390fd5b823373ffffffffffffffffffffffffffffffffffffffff16600082815481106102025761020161151b565b5b906000526020600020906004020160000160009054906101000a900473ffffffffffffffffffffffffffffffffffffffff1673ffffffffffffffffffffffffffffffffffffffff161461028a576040517f08c379a000000000000000000000000000000000000000000000000000000000815260040161028190611136565b60405180910390fd5b600080858154811061029f5761029e61151b565b5b90600052602060002090600402019050838160010190805190602001906102c7929190610afe565b507fb635342fc0739647e3ead9d8554f699ce14329ff69a3c75fce31ba5131c4e1cd85856040516102f99291906111f3565b60405180910390a1506002600081548092919061031590611445565b919050555050505050565b6000816000815111610367576040517f08c379a000000000000000000000000000000000000000000000000000000000815260040161035e90611176565b60405180910390fd5b600060405180608001604052803373ffffffffffffffffffffffffffffffffffffffff168152602001868152602001858152602001600060038111156103b0576103af6114bd565b5b815250908060018154018082558091505060019003906000526020600020906004020160009091909190915060008201518160000160006101000a81548173ffffffffffffffffffffffffffffffffffffffff021916908373ffffffffffffffffffffffffffffffffffffffff160217905550602082015181600101908051906020019061043f929190610afe565b50604082015181600201908051906020019061045c929190610b84565b5060608201518160030160006101000a81548160ff02191690836003811115610488576104876114bd565b5b021790555050503373ffffffffffffffffffffffffffffffffffffffff167f4ceaea0569072c9203c8c195ffccdbca9851b9d0410f577878a6792f12ec9b5260016000805490506104d9919061130b565b6040516104e691906111d8565b60405180910390a26001600080549050610500919061130b565b91506002600081548092919061051590611445565b91905055505092915050565b600160009054906101000a900473ffffffffffffffffffffffffffffffffffffffff1681565b6000818154811061055757600080fd5b90600052602060002090600402016000915090508060000160009054906101000a900473ffffffffffffffffffffffffffffffffffffffff16908060010180546105a0906113e2565b80601f01602080910402602001604051908101604052809291908181526020018280546105cc906113e2565b80156106195780601f106105ee57610100808354040283529160200191610619565b820191906000526020600020905b8154815290600101906020018083116105fc57829003601f168201915b5050505050908060030160009054906101000a900460ff16905083565b80600080549050811061067e576040517f08c379a000000000000000000000000000000000000000000000000000000000815260040161067590611196565b60405180910390fd5b3373ffffffffffffffffffffffffffffffffffffffff16600160009054906101000a900473ffffffffffffffffffffffffffffffffffffffff1673ffffffffffffffffffffffffffffffffffffffff161461070e576040517f08c379a000000000000000000000000000000000000000000000000000000000815260040161070590611116565b60405180910390fd5b60008083815481106107235761072261151b565b5b90600052602060002090600402019050600380811115610746576107456114bd565b5b8160030160009054906101000a900460ff16600381111561076a576107696114bd565b5b14156107ab576040517f08c379a00000000000000000000000000000000000000000000000000000000081526004016107a290611156565b60405180910390fd5b600060038111156107bf576107be6114bd565b5b8160030160009054906101000a900460ff1660038111156107e3576107e26114bd565b5b141561081b5760018160030160006101000a81548160ff02191690836003811115610811576108106114bd565b5b02179055506108f9565b6001600381111561082f5761082e6114bd565b5b8160030160009054906101000a900460ff166003811115610853576108526114bd565b5b141561088b5760028160030160006101000a81548160ff02191690836003811115610881576108806114bd565b5b02179055506108f8565b6002600381111561089f5761089e6114bd565b5b8160030160009054906101000a900460ff1660038111156108c3576108c26114bd565b5b14156108f75760038160030160006101000a81548160ff021916908360038111156108f1576108f06114bd565b5b02179055505b5b5b505050565b610906610bd1565b81600080549050811061094e576040517f08c379a000000000000000000000000000000000000000000000000000000000815260040161094590611196565b60405180910390fd5b600083815481106109625761096161151b565b5b90600052602060002090600402016040518060800160405290816000820160009054906101000a900473ffffffffffffffffffffffffffffffffffffffff1673ffffffffffffffffffffffffffffffffffffffff1673ffffffffffffffffffffffffffffffffffffffff1681526020016001820180546109e1906113e2565b80601f0160208091040260200160405190810160405280929190818152602001828054610a0d906113e2565b8015610a5a5780601f10610a2f57610100808354040283529160200191610a5a565b820191906000526020600020905b815481529060010190602001808311610a3d57829003601f168201915b5050505050815260200160028201805480602002602001604051908101604052809291908181526020018280548015610ab257602002820191906000526020600020905b815481526020019060010190808311610a9e575b505050505081526020016003820160009054906101000a900460ff166003811115610ae057610adf6114bd565b5b6003811115610af257610af16114bd565b5b81525050915050919050565b828054610b0a906113e2565b90600052602060002090601f016020900481019282610b2c5760008555610b73565b82601f10610b4557805160ff1916838001178555610b73565b82800160010185558215610b73579182015b82811115610b72578251825591602001919060010190610b57565b5b509050610b809190610c21565b5090565b828054828255906000526020600020908101928215610bc0579160200282015b82811115610bbf578251825591602001919060010190610ba4565b5b509050610bcd9190610c21565b5090565b6040518060800160405280600073ffffffffffffffffffffffffffffffffffffffff168152602001606081526020016060815260200160006003811115610c1b57610c1a6114bd565b5b81525090565b5b80821115610c3a576000816000905550600101610c22565b5090565b6000610c51610c4c84611248565b611223565b90508083825260208201905082856020860282011115610c7457610c7361157e565b5b60005b85811015610ca45781610c8a8882610d4c565b845260208401935060208301925050600181019050610c77565b5050509392505050565b6000610cc1610cbc84611274565b611223565b905082815260208101848484011115610cdd57610cdc611583565b5b610ce88482856113a0565b509392505050565b600082601f830112610d0557610d04611579565b5b8135610d15848260208601610c3e565b91505092915050565b600082601f830112610d3357610d32611579565b5b8135610d43848260208601610cae565b91505092915050565b600081359050610d5b816116aa565b92915050565b60008060408385031215610d7857610d7761158d565b5b600083013567ffffffffffffffff811115610d9657610d95611588565b5b610da285828601610d1e565b925050602083013567ffffffffffffffff811115610dc357610dc2611588565b5b610dcf85828601610cf0565b9150509250929050565b600060208284031215610def57610dee61158d565b5b6000610dfd84828501610d4c565b91505092915050565b60008060408385031215610e1d57610e1c61158d565b5b6000610e2b85828601610d4c565b925050602083013567ffffffffffffffff811115610e4c57610e4b611588565b5b610e5885828601610d1e565b9150509250929050565b6000610e6e838361109f565b60208301905092915050565b610e838161133f565b82525050565b610e928161133f565b82525050565b6000610ea3826112b5565b610ead81856112d8565b9350610eb8836112a5565b8060005b83811015610ee9578151610ed08882610e62565b9750610edb836112cb565b925050600181019050610ebc565b5085935050505092915050565b610eff8161138e565b82525050565b610f0e8161138e565b82525050565b6000610f1f826112c0565b610f2981856112e9565b9350610f398185602086016113af565b610f4281611592565b840191505092915050565b6000610f58826112c0565b610f6281856112fa565b9350610f728185602086016113af565b610f7b81611592565b840191505092915050565b6000610f936017836112fa565b9150610f9e826115a3565b602082019050919050565b6000610fb66023836112fa565b9150610fc1826115cc565b604082019050919050565b6000610fd96019836112fa565b9150610fe48261161b565b602082019050919050565b6000610ffc600c836112fa565b915061100782611644565b602082019050919050565b600061101f6014836112fa565b915061102a8261166d565b602082019050919050565b600060808301600083015161104d6000860182610e7a565b50602083015184820360208601526110658282610f14565b9150506040830151848203604086015261107f8282610e98565b91505060608301516110946060860182610ef6565b508091505092915050565b6110a881611384565b82525050565b6110b781611384565b82525050565b60006020820190506110d26000830184610e89565b92915050565b60006060820190506110ed6000830186610e89565b81810360208301526110ff8185610f4d565b905061110e6040830184610f05565b949350505050565b6000602082019050818103600083015261112f81610f86565b9050919050565b6000602082019050818103600083015261114f81610fa9565b9050919050565b6000602082019050818103600083015261116f81610fcc565b9050919050565b6000602082019050818103600083015261118f81610fef565b9050919050565b600060208201905081810360008301526111af81611012565b9050919050565b600060208201905081810360008301526111d08184611035565b905092915050565b60006020820190506111ed60008301846110ae565b92915050565b600060408201905061120860008301856110ae565b818103602083015261121a8184610f4d565b90509392505050565b600061122d61123e565b90506112398282611414565b919050565b6000604051905090565b600067ffffffffffffffff8211156112635761126261154a565b5b602082029050602081019050919050565b600067ffffffffffffffff82111561128f5761128e61154a565b5b61129882611592565b9050602081019050919050565b6000819050602082019050919050565b600081519050919050565b600081519050919050565b6000602082019050919050565b600082825260208201905092915050565b600082825260208201905092915050565b600082825260208201905092915050565b600061131682611384565b915061132183611384565b9250828210156113345761133361148e565b5b828203905092915050565b600061134a82611364565b9050919050565b600081905061135f82611696565b919050565b600073ffffffffffffffffffffffffffffffffffffffff82169050919050565b6000819050919050565b600061139982611351565b9050919050565b82818337600083830152505050565b60005b838110156113cd5780820151818401526020810190506113b2565b838111156113dc576000848401525b50505050565b600060028204905060018216806113fa57607f821691505b6020821081141561140e5761140d6114ec565b5b50919050565b61141d82611592565b810181811067ffffffffffffffff8211171561143c5761143b61154a565b5b80604052505050565b600061145082611384565b91507fffffffffffffffffffffffffffffffffffffffffffffffffffffffffffffffff8214156114835761148261148e565b5b600182019050919050565b7f4e487b7100000000000000000000000000000000000000000000000000000000600052601160045260246000fd5b7f4e487b7100000000000000000000000000000000000000000000000000000000600052602160045260246000fd5b7f4e487b7100000000000000000000000000000000000000000000000000000000600052602260045260246000fd5b7f4e487b7100000000000000000000000000000000000000000000000000000000600052603260045260246000fd5b7f4e487b7100000000000000000000000000000000000000000000000000000000600052604160045260246000fd5b600080fd5b600080fd5b600080fd5b600080fd5b600080fd5b6000601f19601f8301169050919050565b7f596f7520617265206e6f7420617574686f72697a65642e000000000000000000600082015250565b7f596f7520617265206e6f7420746865206f776e6572206f6620746865206f726460008201527f65722e0000000000000000000000000000000000000000000000000000000000602082015250565b7f4f7264657220697320616c726561647920736869707065642e00000000000000600082015250565b7f4e6f2070726f64756374732e0000000000000000000000000000000000000000600082015250565b7f4e6f7420612076616c6964206f72646572206964000000000000000000000000600082015250565b600481106116a7576116a66114bd565b5b50565b6116b381611384565b81146116be57600080fd5b5056fea2646970667358221220181b7a14cf807494f34a444d588ab368565ecb86cc2139f61b5c1f2496fa2e6c64736f6c63430008070033",
					"opcodes": "PUSH1 0x80 PUSH1 0x40 MSTORE CALLVALUE DUP1 ISZERO PUSH2 0x10 JUMPI PUSH1 0x0 DUP1 REVERT JUMPDEST POP CALLER PUSH1 0x1 PUSH1 0x0 PUSH2 0x100 EXP DUP2 SLOAD DUP2 PUSH20 0xFFFFFFFFFFFFFFFFFFFFFFFFFFFFFFFFFFFFFFFF MUL NOT AND SWAP1 DUP4 PUSH20 0xFFFFFFFFFFFFFFFFFFFFFFFFFFFFFFFFFFFFFFFF AND MUL OR SWAP1 SSTORE POP PUSH2 0x16F7 DUP1 PUSH2 0x61 PUSH1 0x0 CODECOPY PUSH1 0x0 RETURN INVALID PUSH1 0x80 PUSH1 0x40 MSTORE CALLVALUE DUP1 ISZERO PUSH2 0x10 JUMPI PUSH1 0x0 DUP1 REVERT JUMPDEST POP PUSH1 0x4 CALLDATASIZE LT PUSH2 0x7D JUMPI PUSH1 0x0 CALLDATALOAD PUSH1 0xE0 SHR DUP1 PUSH4 0x8DA5CB5B GT PUSH2 0x5B JUMPI DUP1 PUSH4 0x8DA5CB5B EQ PUSH2 0xEC JUMPI DUP1 PUSH4 0xA85C38EF EQ PUSH2 0x10A JUMPI DUP1 PUSH4 0xAFE13A62 EQ PUSH2 0x13C JUMPI DUP1 PUSH4 0xD09EF241 EQ PUSH2 0x158 JUMPI PUSH2 0x7D JUMP JUMPDEST DUP1 PUSH4 0x3C540687 EQ PUSH2 0x82 JUMPI DUP1 PUSH4 0x577DC0A0 EQ PUSH2 0xA0 JUMPI DUP1 PUSH4 0x6D9A65D8 EQ PUSH2 0xBC JUMPI JUMPDEST PUSH1 0x0 DUP1 REVERT JUMPDEST PUSH2 0x8A PUSH2 0x188 JUMP JUMPDEST PUSH1 0x40 MLOAD PUSH2 0x97 SWAP2 SWAP1 PUSH2 0x11D8 JUMP JUMPDEST PUSH1 0x40 MLOAD DUP1 SWAP2 SUB SWAP1 RETURN JUMPDEST PUSH2 0xBA PUSH1 0x4 DUP1 CALLDATASIZE SUB DUP2 ADD SWAP1 PUSH2 0xB5 SWAP2 SWAP1 PUSH2 0xE06 JUMP JUMPDEST PUSH2 0x18E JUMP JUMPDEST STOP JUMPDEST PUSH2 0xD6 PUSH1 0x4 DUP1 CALLDATASIZE SUB DUP2 ADD SWAP1 PUSH2 0xD1 SWAP2 SWAP1 PUSH2 0xD61 JUMP JUMPDEST PUSH2 0x320 JUMP JUMPDEST PUSH1 0x40 MLOAD PUSH2 0xE3 SWAP2 SWAP1 PUSH2 0x11D8 JUMP JUMPDEST PUSH1 0x40 MLOAD DUP1 SWAP2 SUB SWAP1 RETURN JUMPDEST PUSH2 0xF4 PUSH2 0x521 JUMP JUMPDEST PUSH1 0x40 MLOAD PUSH2 0x101 SWAP2 SWAP1 PUSH2 0x10BD JUMP JUMPDEST PUSH1 0x40 MLOAD DUP1 SWAP2 SUB SWAP1 RETURN JUMPDEST PUSH2 0x124 PUSH1 0x4 DUP1 CALLDATASIZE SUB DUP2 ADD SWAP1 PUSH2 0x11F SWAP2 SWAP1 PUSH2 0xDD9 JUMP JUMPDEST PUSH2 0x547 JUMP JUMPDEST PUSH1 0x40 MLOAD PUSH2 0x133 SWAP4 SWAP3 SWAP2 SWAP1 PUSH2 0x10D8 JUMP JUMPDEST PUSH1 0x40 MLOAD DUP1 SWAP2 SUB SWAP1 RETURN JUMPDEST PUSH2 0x156 PUSH1 0x4 DUP1 CALLDATASIZE SUB DUP2 ADD SWAP1 PUSH2 0x151 SWAP2 SWAP1 PUSH2 0xDD9 JUMP JUMPDEST PUSH2 0x636 JUMP JUMPDEST STOP JUMPDEST PUSH2 0x172 PUSH1 0x4 DUP1 CALLDATASIZE SUB DUP2 ADD SWAP1 PUSH2 0x16D SWAP2 SWAP1 PUSH2 0xDD9 JUMP JUMPDEST PUSH2 0x8FE JUMP JUMPDEST PUSH1 0x40 MLOAD PUSH2 0x17F SWAP2 SWAP1 PUSH2 0x11B6 JUMP JUMPDEST PUSH1 0x40 MLOAD DUP1 SWAP2 SUB SWAP1 RETURN JUMPDEST PUSH1 0x2 SLOAD DUP2 JUMP JUMPDEST DUP2 PUSH1 0x0 DUP1 SLOAD SWAP1 POP DUP2 LT PUSH2 0x1D6 JUMPI PUSH1 0x40 MLOAD PUSH32 0x8C379A000000000000000000000000000000000000000000000000000000000 DUP2 MSTORE PUSH1 0x4 ADD PUSH2 0x1CD SWAP1 PUSH2 0x1196 JUMP JUMPDEST PUSH1 0x40 MLOAD DUP1 SWAP2 SUB SWAP1 REVERT JUMPDEST DUP3 CALLER PUSH20 0xFFFFFFFFFFFFFFFFFFFFFFFFFFFFFFFFFFFFFFFF AND PUSH1 0x0 DUP3 DUP2 SLOAD DUP2 LT PUSH2 0x202 JUMPI PUSH2 0x201 PUSH2 0x151B JUMP JUMPDEST JUMPDEST SWAP1 PUSH1 0x0 MSTORE PUSH1 0x20 PUSH1 0x0 KECCAK256 SWAP1 PUSH1 0x4 MUL ADD PUSH1 0x0 ADD PUSH1 0x0 SWAP1 SLOAD SWAP1 PUSH2 0x100 EXP SWAP1 DIV PUSH20 0xFFFFFFFFFFFFFFFFFFFFFFFFFFFFFFFFFFFFFFFF AND PUSH20 0xFFFFFFFFFFFFFFFFFFFFFFFFFFFFFFFFFFFFFFFF AND EQ PUSH2 0x28A JUMPI PUSH1 0x40 MLOAD PUSH32 0x8C379A000000000000000000000000000000000000000000000000000000000 DUP2 MSTORE PUSH1 0x4 ADD PUSH2 0x281 SWAP1 PUSH2 0x1136 JUMP JUMPDEST PUSH1 0x40 MLOAD DUP1 SWAP2 SUB SWAP1 REVERT JUMPDEST PUSH1 0x0 DUP1 DUP6 DUP2 SLOAD DUP2 LT PUSH2 0x29F JUMPI PUSH2 0x29E PUSH2 0x151B JUMP JUMPDEST JUMPDEST SWAP1 PUSH1 0x0 MSTORE PUSH1 0x20 PUSH1 0x0 KECCAK256 SWAP1 PUSH1 0x4 MUL ADD SWAP1 POP DUP4 DUP2 PUSH1 0x1 ADD SWAP1 DUP1 MLOAD SWAP1 PUSH1 0x20 ADD SWAP1 PUSH2 0x2C7 SWAP3 SWAP2 SWAP1 PUSH2 0xAFE JUMP JUMPDEST POP PUSH32 0xB635342FC0739647E3EAD9D8554F699CE14329FF69A3C75FCE31BA5131C4E1CD DUP6 DUP6 PUSH1 0x40 MLOAD PUSH2 0x2F9 SWAP3 SWAP2 SWAP1 PUSH2 0x11F3 JUMP JUMPDEST PUSH1 0x40 MLOAD DUP1 SWAP2 SUB SWAP1 LOG1 POP PUSH1 0x2 PUSH1 0x0 DUP2 SLOAD DUP1 SWAP3 SWAP2 SWAP1 PUSH2 0x315 SWAP1 PUSH2 0x1445 JUMP JUMPDEST SWAP2 SWAP1 POP SSTORE POP POP POP POP POP JUMP JUMPDEST PUSH1 0x0 DUP2 PUSH1 0x0 DUP2 MLOAD GT PUSH2 0x367 JUMPI PUSH1 0x40 MLOAD PUSH32 0x8C379A000000000000000000000000000000000000000000000000000000000 DUP2 MSTORE PUSH1 0x4 ADD PUSH2 0x35E SWAP1 PUSH2 0x1176 JUMP JUMPDEST PUSH1 0x40 MLOAD DUP1 SWAP2 SUB SWAP1 REVERT JUMPDEST PUSH1 0x0 PUSH1 0x40 MLOAD DUP1 PUSH1 0x80 ADD PUSH1 0x40 MSTORE DUP1 CALLER PUSH20 0xFFFFFFFFFFFFFFFFFFFFFFFFFFFFFFFFFFFFFFFF AND DUP2 MSTORE PUSH1 0x20 ADD DUP7 DUP2 MSTORE PUSH1 0x20 ADD DUP6 DUP2 MSTORE PUSH1 0x20 ADD PUSH1 0x0 PUSH1 0x3 DUP2 GT ISZERO PUSH2 0x3B0 JUMPI PUSH2 0x3AF PUSH2 0x14BD JUMP JUMPDEST JUMPDEST DUP2 MSTORE POP SWAP1 DUP1 PUSH1 0x1 DUP2 SLOAD ADD DUP1 DUP3 SSTORE DUP1 SWAP2 POP POP PUSH1 0x1 SWAP1 SUB SWAP1 PUSH1 0x0 MSTORE PUSH1 0x20 PUSH1 0x0 KECCAK256 SWAP1 PUSH1 0x4 MUL ADD PUSH1 0x0 SWAP1 SWAP2 SWAP1 SWAP2 SWAP1 SWAP2 POP PUSH1 0x0 DUP3 ADD MLOAD DUP2 PUSH1 0x0 ADD PUSH1 0x0 PUSH2 0x100 EXP DUP2 SLOAD DUP2 PUSH20 0xFFFFFFFFFFFFFFFFFFFFFFFFFFFFFFFFFFFFFFFF MUL NOT AND SWAP1 DUP4 PUSH20 0xFFFFFFFFFFFFFFFFFFFFFFFFFFFFFFFFFFFFFFFF AND MUL OR SWAP1 SSTORE POP PUSH1 0x20 DUP3 ADD MLOAD DUP2 PUSH1 0x1 ADD SWAP1 DUP1 MLOAD SWAP1 PUSH1 0x20 ADD SWAP1 PUSH2 0x43F SWAP3 SWAP2 SWAP1 PUSH2 0xAFE JUMP JUMPDEST POP PUSH1 0x40 DUP3 ADD MLOAD DUP2 PUSH1 0x2 ADD SWAP1 DUP1 MLOAD SWAP1 PUSH1 0x20 ADD SWAP1 PUSH2 0x45C SWAP3 SWAP2 SWAP1 PUSH2 0xB84 JUMP JUMPDEST POP PUSH1 0x60 DUP3 ADD MLOAD DUP2 PUSH1 0x3 ADD PUSH1 0x0 PUSH2 0x100 EXP DUP2 SLOAD DUP2 PUSH1 0xFF MUL NOT AND SWAP1 DUP4 PUSH1 0x3 DUP2 GT ISZERO PUSH2 0x488 JUMPI PUSH2 0x487 PUSH2 0x14BD JUMP JUMPDEST JUMPDEST MUL OR SWAP1 SSTORE POP POP POP CALLER PUSH20 0xFFFFFFFFFFFFFFFFFFFFFFFFFFFFFFFFFFFFFFFF AND PUSH32 0x4CEAEA0569072C9203C8C195FFCCDBCA9851B9D0410F577878A6792F12EC9B52 PUSH1 0x1 PUSH1 0x0 DUP1 SLOAD SWAP1 POP PUSH2 0x4D9 SWAP2 SWAP1 PUSH2 0x130B JUMP JUMPDEST PUSH1 0x40 MLOAD PUSH2 0x4E6 SWAP2 SWAP1 PUSH2 0x11D8 JUMP JUMPDEST PUSH1 0x40 MLOAD DUP1 SWAP2 SUB SWAP1 LOG2 PUSH1 0x1 PUSH1 0x0 DUP1 SLOAD SWAP1 POP PUSH2 0x500 SWAP2 SWAP1 PUSH2 0x130B JUMP JUMPDEST SWAP2 POP PUSH1 0x2 PUSH1 0x0 DUP2 SLOAD DUP1 SWAP3 SWAP2 SWAP1 PUSH2 0x515 SWAP1 PUSH2 0x1445 JUMP JUMPDEST SWAP2 SWAP1 POP SSTORE POP POP SWAP3 SWAP2 POP POP JUMP JUMPDEST PUSH1 0x1 PUSH1 0x0 SWAP1 SLOAD SWAP1 PUSH2 0x100 EXP SWAP1 DIV PUSH20 0xFFFFFFFFFFFFFFFFFFFFFFFFFFFFFFFFFFFFFFFF AND DUP2 JUMP JUMPDEST PUSH1 0x0 DUP2 DUP2 SLOAD DUP2 LT PUSH2 0x557 JUMPI PUSH1 0x0 DUP1 REVERT JUMPDEST SWAP1 PUSH1 0x0 MSTORE PUSH1 0x20 PUSH1 0x0 KECCAK256 SWAP1 PUSH1 0x4 MUL ADD PUSH1 0x0 SWAP2 POP SWAP1 POP DUP1 PUSH1 0x0 ADD PUSH1 0x0 SWAP1 SLOAD SWAP1 PUSH2 0x100 EXP SWAP1 DIV PUSH20 0xFFFFFFFFFFFFFFFFFFFFFFFFFFFFFFFFFFFFFFFF AND SWAP1 DUP1 PUSH1 0x1 ADD DUP1 SLOAD PUSH2 0x5A0 SWAP1 PUSH2 0x13E2 JUMP JUMPDEST DUP1 PUSH1 0x1F ADD PUSH1 0x20 DUP1 SWAP2 DIV MUL PUSH1 0x20 ADD PUSH1 0x40 MLOAD SWAP1 DUP2 ADD PUSH1 0x40 MSTORE DUP1 SWAP3 SWAP2 SWAP1 DUP2 DUP2 MSTORE PUSH1 0x20 ADD DUP3 DUP1 SLOAD PUSH2 0x5CC SWAP1 PUSH2 0x13E2 JUMP JUMPDEST DUP1 ISZERO PUSH2 0x619 JUMPI DUP1 PUSH1 0x1F LT PUSH2 0x5EE JUMPI PUSH2 0x100 DUP1 DUP4 SLOAD DIV MUL DUP4 MSTORE SWAP2 PUSH1 0x20 ADD SWAP2 PUSH2 0x619 JUMP JUMPDEST DUP3 ADD SWAP2 SWAP1 PUSH1 0x0 MSTORE PUSH1 0x20 PUSH1 0x0 KECCAK256 SWAP1 JUMPDEST DUP2 SLOAD DUP2 MSTORE SWAP1 PUSH1 0x1 ADD SWAP1 PUSH1 0x20 ADD DUP1 DUP4 GT PUSH2 0x5FC JUMPI DUP3 SWAP1 SUB PUSH1 0x1F AND DUP3 ADD SWAP2 JUMPDEST POP POP POP POP POP SWAP1 DUP1 PUSH1 0x3 ADD PUSH1 0x0 SWAP1 SLOAD SWAP1 PUSH2 0x100 EXP SWAP1 DIV PUSH1 0xFF AND SWAP1 POP DUP4 JUMP JUMPDEST DUP1 PUSH1 0x0 DUP1 SLOAD SWAP1 POP DUP2 LT PUSH2 0x67E JUMPI PUSH1 0x40 MLOAD PUSH32 0x8C379A000000000000000000000000000000000000000000000000000000000 DUP2 MSTORE PUSH1 0x4 ADD PUSH2 0x675 SWAP1 PUSH2 0x1196 JUMP JUMPDEST PUSH1 0x40 MLOAD DUP1 SWAP2 SUB SWAP1 REVERT JUMPDEST CALLER PUSH20 0xFFFFFFFFFFFFFFFFFFFFFFFFFFFFFFFFFFFFFFFF AND PUSH1 0x1 PUSH1 0x0 SWAP1 SLOAD SWAP1 PUSH2 0x100 EXP SWAP1 DIV PUSH20 0xFFFFFFFFFFFFFFFFFFFFFFFFFFFFFFFFFFFFFFFF AND PUSH20 0xFFFFFFFFFFFFFFFFFFFFFFFFFFFFFFFFFFFFFFFF AND EQ PUSH2 0x70E JUMPI PUSH1 0x40 MLOAD PUSH32 0x8C379A000000000000000000000000000000000000000000000000000000000 DUP2 MSTORE PUSH1 0x4 ADD PUSH2 0x705 SWAP1 PUSH2 0x1116 JUMP JUMPDEST PUSH1 0x40 MLOAD DUP1 SWAP2 SUB SWAP1 REVERT JUMPDEST PUSH1 0x0 DUP1 DUP4 DUP2 SLOAD DUP2 LT PUSH2 0x723 JUMPI PUSH2 0x722 PUSH2 0x151B JUMP JUMPDEST JUMPDEST SWAP1 PUSH1 0x0 MSTORE PUSH1 0x20 PUSH1 0x0 KECCAK256 SWAP1 PUSH1 0x4 MUL ADD SWAP1 POP PUSH1 0x3 DUP1 DUP2 GT ISZERO PUSH2 0x746 JUMPI PUSH2 0x745 PUSH2 0x14BD JUMP JUMPDEST JUMPDEST DUP2 PUSH1 0x3 ADD PUSH1 0x0 SWAP1 SLOAD SWAP1 PUSH2 0x100 EXP SWAP1 DIV PUSH1 0xFF AND PUSH1 0x3 DUP2 GT ISZERO PUSH2 0x76A JUMPI PUSH2 0x769 PUSH2 0x14BD JUMP JUMPDEST JUMPDEST EQ ISZERO PUSH2 0x7AB JUMPI PUSH1 0x40 MLOAD PUSH32 0x8C379A000000000000000000000000000000000000000000000000000000000 DUP2 MSTORE PUSH1 0x4 ADD PUSH2 0x7A2 SWAP1 PUSH2 0x1156 JUMP JUMPDEST PUSH1 0x40 MLOAD DUP1 SWAP2 SUB SWAP1 REVERT JUMPDEST PUSH1 0x0 PUSH1 0x3 DUP2 GT ISZERO PUSH2 0x7BF JUMPI PUSH2 0x7BE PUSH2 0x14BD JUMP JUMPDEST JUMPDEST DUP2 PUSH1 0x3 ADD PUSH1 0x0 SWAP1 SLOAD SWAP1 PUSH2 0x100 EXP SWAP1 DIV PUSH1 0xFF AND PUSH1 0x3 DUP2 GT ISZERO PUSH2 0x7E3 JUMPI PUSH2 0x7E2 PUSH2 0x14BD JUMP JUMPDEST JUMPDEST EQ ISZERO PUSH2 0x81B JUMPI PUSH1 0x1 DUP2 PUSH1 0x3 ADD PUSH1 0x0 PUSH2 0x100 EXP DUP2 SLOAD DUP2 PUSH1 0xFF MUL NOT AND SWAP1 DUP4 PUSH1 0x3 DUP2 GT ISZERO PUSH2 0x811 JUMPI PUSH2 0x810 PUSH2 0x14BD JUMP JUMPDEST JUMPDEST MUL OR SWAP1 SSTORE POP PUSH2 0x8F9 JUMP JUMPDEST PUSH1 0x1 PUSH1 0x3 DUP2 GT ISZERO PUSH2 0x82F JUMPI PUSH2 0x82E PUSH2 0x14BD JUMP JUMPDEST JUMPDEST DUP2 PUSH1 0x3 ADD PUSH1 0x0 SWAP1 SLOAD SWAP1 PUSH2 0x100 EXP SWAP1 DIV PUSH1 0xFF AND PUSH1 0x3 DUP2 GT ISZERO PUSH2 0x853 JUMPI PUSH2 0x852 PUSH2 0x14BD JUMP JUMPDEST JUMPDEST EQ ISZERO PUSH2 0x88B JUMPI PUSH1 0x2 DUP2 PUSH1 0x3 ADD PUSH1 0x0 PUSH2 0x100 EXP DUP2 SLOAD DUP2 PUSH1 0xFF MUL NOT AND SWAP1 DUP4 PUSH1 0x3 DUP2 GT ISZERO PUSH2 0x881 JUMPI PUSH2 0x880 PUSH2 0x14BD JUMP JUMPDEST JUMPDEST MUL OR SWAP1 SSTORE POP PUSH2 0x8F8 JUMP JUMPDEST PUSH1 0x2 PUSH1 0x3 DUP2 GT ISZERO PUSH2 0x89F JUMPI PUSH2 0x89E PUSH2 0x14BD JUMP JUMPDEST JUMPDEST DUP2 PUSH1 0x3 ADD PUSH1 0x0 SWAP1 SLOAD SWAP1 PUSH2 0x100 EXP SWAP1 DIV PUSH1 0xFF AND PUSH1 0x3 DUP2 GT ISZERO PUSH2 0x8C3 JUMPI PUSH2 0x8C2 PUSH2 0x14BD JUMP JUMPDEST JUMPDEST EQ ISZERO PUSH2 0x8F7 JUMPI PUSH1 0x3 DUP2 PUSH1 0x3 ADD PUSH1 0x0 PUSH2 0x100 EXP DUP2 SLOAD DUP2 PUSH1 0xFF MUL NOT AND SWAP1 DUP4 PUSH1 0x3 DUP2 GT ISZERO PUSH2 0x8F1 JUMPI PUSH2 0x8F0 PUSH2 0x14BD JUMP JUMPDEST JUMPDEST MUL OR SWAP1 SSTORE POP JUMPDEST JUMPDEST JUMPDEST POP POP POP JUMP JUMPDEST PUSH2 0x906 PUSH2 0xBD1 JUMP JUMPDEST DUP2 PUSH1 0x0 DUP1 SLOAD SWAP1 POP DUP2 LT PUSH2 0x94E JUMPI PUSH1 0x40 MLOAD PUSH32 0x8C379A000000000000000000000000000000000000000000000000000000000 DUP2 MSTORE PUSH1 0x4 ADD PUSH2 0x945 SWAP1 PUSH2 0x1196 JUMP JUMPDEST PUSH1 0x40 MLOAD DUP1 SWAP2 SUB SWAP1 REVERT JUMPDEST PUSH1 0x0 DUP4 DUP2 SLOAD DUP2 LT PUSH2 0x962 JUMPI PUSH2 0x961 PUSH2 0x151B JUMP JUMPDEST JUMPDEST SWAP1 PUSH1 0x0 MSTORE PUSH1 0x20 PUSH1 0x0 KECCAK256 SWAP1 PUSH1 0x4 MUL ADD PUSH1 0x40 MLOAD DUP1 PUSH1 0x80 ADD PUSH1 0x40 MSTORE SWAP1 DUP2 PUSH1 0x0 DUP3 ADD PUSH1 0x0 SWAP1 SLOAD SWAP1 PUSH2 0x100 EXP SWAP1 DIV PUSH20 0xFFFFFFFFFFFFFFFFFFFFFFFFFFFFFFFFFFFFFFFF AND PUSH20 0xFFFFFFFFFFFFFFFFFFFFFFFFFFFFFFFFFFFFFFFF AND PUSH20 0xFFFFFFFFFFFFFFFFFFFFFFFFFFFFFFFFFFFFFFFF AND DUP2 MSTORE PUSH1 0x20 ADD PUSH1 0x1 DUP3 ADD DUP1 SLOAD PUSH2 0x9E1 SWAP1 PUSH2 0x13E2 JUMP JUMPDEST DUP1 PUSH1 0x1F ADD PUSH1 0x20 DUP1 SWAP2 DIV MUL PUSH1 0x20 ADD PUSH1 0x40 MLOAD SWAP1 DUP2 ADD PUSH1 0x40 MSTORE DUP1 SWAP3 SWAP2 SWAP1 DUP2 DUP2 MSTORE PUSH1 0x20 ADD DUP3 DUP1 SLOAD PUSH2 0xA0D SWAP1 PUSH2 0x13E2 JUMP JUMPDEST DUP1 ISZERO PUSH2 0xA5A JUMPI DUP1 PUSH1 0x1F LT PUSH2 0xA2F JUMPI PUSH2 0x100 DUP1 DUP4 SLOAD DIV MUL DUP4 MSTORE SWAP2 PUSH1 0x20 ADD SWAP2 PUSH2 0xA5A JUMP JUMPDEST DUP3 ADD SWAP2 SWAP1 PUSH1 0x0 MSTORE PUSH1 0x20 PUSH1 0x0 KECCAK256 SWAP1 JUMPDEST DUP2 SLOAD DUP2 MSTORE SWAP1 PUSH1 0x1 ADD SWAP1 PUSH1 0x20 ADD DUP1 DUP4 GT PUSH2 0xA3D JUMPI DUP3 SWAP1 SUB PUSH1 0x1F AND DUP3 ADD SWAP2 JUMPDEST POP POP POP POP POP DUP2 MSTORE PUSH1 0x20 ADD PUSH1 0x2 DUP3 ADD DUP1 SLOAD DUP1 PUSH1 0x20 MUL PUSH1 0x20 ADD PUSH1 0x40 MLOAD SWAP1 DUP2 ADD PUSH1 0x40 MSTORE DUP1 SWAP3 SWAP2 SWAP1 DUP2 DUP2 MSTORE PUSH1 0x20 ADD DUP3 DUP1 SLOAD DUP1 ISZERO PUSH2 0xAB2 JUMPI PUSH1 0x20 MUL DUP3 ADD SWAP2 SWAP1 PUSH1 0x0 MSTORE PUSH1 0x20 PUSH1 0x0 KECCAK256 SWAP1 JUMPDEST DUP2 SLOAD DUP2 MSTORE PUSH1 0x20 ADD SWAP1 PUSH1 0x1 ADD SWAP1 DUP1 DUP4 GT PUSH2 0xA9E JUMPI JUMPDEST POP POP POP POP POP DUP2 MSTORE PUSH1 0x20 ADD PUSH1 0x3 DUP3 ADD PUSH1 0x0 SWAP1 SLOAD SWAP1 PUSH2 0x100 EXP SWAP1 DIV PUSH1 0xFF AND PUSH1 0x3 DUP2 GT ISZERO PUSH2 0xAE0 JUMPI PUSH2 0xADF PUSH2 0x14BD JUMP JUMPDEST JUMPDEST PUSH1 0x3 DUP2 GT ISZERO PUSH2 0xAF2 JUMPI PUSH2 0xAF1 PUSH2 0x14BD JUMP JUMPDEST JUMPDEST DUP2 MSTORE POP POP SWAP2 POP POP SWAP2 SWAP1 POP JUMP JUMPDEST DUP3 DUP1 SLOAD PUSH2 0xB0A SWAP1 PUSH2 0x13E2 JUMP JUMPDEST SWAP1 PUSH1 0x0 MSTORE PUSH1 0x20 PUSH1 0x0 KECCAK256 SWAP1 PUSH1 0x1F ADD PUSH1 0x20 SWAP1 DIV DUP2 ADD SWAP3 DUP3 PUSH2 0xB2C JUMPI PUSH1 0x0 DUP6 SSTORE PUSH2 0xB73 JUMP JUMPDEST DUP3 PUSH1 0x1F LT PUSH2 0xB45 JUMPI DUP1 MLOAD PUSH1 0xFF NOT AND DUP4 DUP1 ADD OR DUP6 SSTORE PUSH2 0xB73 JUMP JUMPDEST DUP3 DUP1 ADD PUSH1 0x1 ADD DUP6 SSTORE DUP3 ISZERO PUSH2 0xB73 JUMPI SWAP2 DUP3 ADD JUMPDEST DUP3 DUP2 GT ISZERO PUSH2 0xB72 JUMPI DUP3 MLOAD DUP3 SSTORE SWAP2 PUSH1 0x20 ADD SWAP2 SWAP1 PUSH1 0x1 ADD SWAP1 PUSH2 0xB57 JUMP JUMPDEST JUMPDEST POP SWAP1 POP PUSH2 0xB80 SWAP2 SWAP1 PUSH2 0xC21 JUMP JUMPDEST POP SWAP1 JUMP JUMPDEST DUP3 DUP1 SLOAD DUP3 DUP3 SSTORE SWAP1 PUSH1 0x0 MSTORE PUSH1 0x20 PUSH1 0x0 KECCAK256 SWAP1 DUP2 ADD SWAP3 DUP3 ISZERO PUSH2 0xBC0 JUMPI SWAP2 PUSH1 0x20 MUL DUP3 ADD JUMPDEST DUP3 DUP2 GT ISZERO PUSH2 0xBBF JUMPI DUP3 MLOAD DUP3 SSTORE SWAP2 PUSH1 0x20 ADD SWAP2 SWAP1 PUSH1 0x1 ADD SWAP1 PUSH2 0xBA4 JUMP JUMPDEST JUMPDEST POP SWAP1 POP PUSH2 0xBCD SWAP2 SWAP1 PUSH2 0xC21 JUMP JUMPDEST POP SWAP1 JUMP JUMPDEST PUSH1 0x40 MLOAD DUP1 PUSH1 0x80 ADD PUSH1 0x40 MSTORE DUP1 PUSH1 0x0 PUSH20 0xFFFFFFFFFFFFFFFFFFFFFFFFFFFFFFFFFFFFFFFF AND DUP2 MSTORE PUSH1 0x20 ADD PUSH1 0x60 DUP2 MSTORE PUSH1 0x20 ADD PUSH1 0x60 DUP2 MSTORE PUSH1 0x20 ADD PUSH1 0x0 PUSH1 0x3 DUP2 GT ISZERO PUSH2 0xC1B JUMPI PUSH2 0xC1A PUSH2 0x14BD JUMP JUMPDEST JUMPDEST DUP2 MSTORE POP SWAP1 JUMP JUMPDEST JUMPDEST DUP1 DUP3 GT ISZERO PUSH2 0xC3A JUMPI PUSH1 0x0 DUP2 PUSH1 0x0 SWAP1 SSTORE POP PUSH1 0x1 ADD PUSH2 0xC22 JUMP JUMPDEST POP SWAP1 JUMP JUMPDEST PUSH1 0x0 PUSH2 0xC51 PUSH2 0xC4C DUP5 PUSH2 0x1248 JUMP JUMPDEST PUSH2 0x1223 JUMP JUMPDEST SWAP1 POP DUP1 DUP4 DUP3 MSTORE PUSH1 0x20 DUP3 ADD SWAP1 POP DUP3 DUP6 PUSH1 0x20 DUP7 MUL DUP3 ADD GT ISZERO PUSH2 0xC74 JUMPI PUSH2 0xC73 PUSH2 0x157E JUMP JUMPDEST JUMPDEST PUSH1 0x0 JUMPDEST DUP6 DUP2 LT ISZERO PUSH2 0xCA4 JUMPI DUP2 PUSH2 0xC8A DUP9 DUP3 PUSH2 0xD4C JUMP JUMPDEST DUP5 MSTORE PUSH1 0x20 DUP5 ADD SWAP4 POP PUSH1 0x20 DUP4 ADD SWAP3 POP POP PUSH1 0x1 DUP2 ADD SWAP1 POP PUSH2 0xC77 JUMP JUMPDEST POP POP POP SWAP4 SWAP3 POP POP POP JUMP JUMPDEST PUSH1 0x0 PUSH2 0xCC1 PUSH2 0xCBC DUP5 PUSH2 0x1274 JUMP JUMPDEST PUSH2 0x1223 JUMP JUMPDEST SWAP1 POP DUP3 DUP2 MSTORE PUSH1 0x20 DUP2 ADD DUP5 DUP5 DUP5 ADD GT ISZERO PUSH2 0xCDD JUMPI PUSH2 0xCDC PUSH2 0x1583 JUMP JUMPDEST JUMPDEST PUSH2 0xCE8 DUP5 DUP3 DUP6 PUSH2 0x13A0 JUMP JUMPDEST POP SWAP4 SWAP3 POP POP POP JUMP JUMPDEST PUSH1 0x0 DUP3 PUSH1 0x1F DUP4 ADD SLT PUSH2 0xD05 JUMPI PUSH2 0xD04 PUSH2 0x1579 JUMP JUMPDEST JUMPDEST DUP2 CALLDATALOAD PUSH2 0xD15 DUP5 DUP3 PUSH1 0x20 DUP7 ADD PUSH2 0xC3E JUMP JUMPDEST SWAP2 POP POP SWAP3 SWAP2 POP POP JUMP JUMPDEST PUSH1 0x0 DUP3 PUSH1 0x1F DUP4 ADD SLT PUSH2 0xD33 JUMPI PUSH2 0xD32 PUSH2 0x1579 JUMP JUMPDEST JUMPDEST DUP2 CALLDATALOAD PUSH2 0xD43 DUP5 DUP3 PUSH1 0x20 DUP7 ADD PUSH2 0xCAE JUMP JUMPDEST SWAP2 POP POP SWAP3 SWAP2 POP POP JUMP JUMPDEST PUSH1 0x0 DUP2 CALLDATALOAD SWAP1 POP PUSH2 0xD5B DUP2 PUSH2 0x16AA JUMP JUMPDEST SWAP3 SWAP2 POP POP JUMP JUMPDEST PUSH1 0x0 DUP1 PUSH1 0x40 DUP4 DUP6 SUB SLT ISZERO PUSH2 0xD78 JUMPI PUSH2 0xD77 PUSH2 0x158D JUMP JUMPDEST JUMPDEST PUSH1 0x0 DUP4 ADD CALLDATALOAD PUSH8 0xFFFFFFFFFFFFFFFF DUP2 GT ISZERO PUSH2 0xD96 JUMPI PUSH2 0xD95 PUSH2 0x1588 JUMP JUMPDEST JUMPDEST PUSH2 0xDA2 DUP6 DUP3 DUP7 ADD PUSH2 0xD1E JUMP JUMPDEST SWAP3 POP POP PUSH1 0x20 DUP4 ADD CALLDATALOAD PUSH8 0xFFFFFFFFFFFFFFFF DUP2 GT ISZERO PUSH2 0xDC3 JUMPI PUSH2 0xDC2 PUSH2 0x1588 JUMP JUMPDEST JUMPDEST PUSH2 0xDCF DUP6 DUP3 DUP7 ADD PUSH2 0xCF0 JUMP JUMPDEST SWAP2 POP POP SWAP3 POP SWAP3 SWAP1 POP JUMP JUMPDEST PUSH1 0x0 PUSH1 0x20 DUP3 DUP5 SUB SLT ISZERO PUSH2 0xDEF JUMPI PUSH2 0xDEE PUSH2 0x158D JUMP JUMPDEST JUMPDEST PUSH1 0x0 PUSH2 0xDFD DUP5 DUP3 DUP6 ADD PUSH2 0xD4C JUMP JUMPDEST SWAP2 POP POP SWAP3 SWAP2 POP POP JUMP JUMPDEST PUSH1 0x0 DUP1 PUSH1 0x40 DUP4 DUP6 SUB SLT ISZERO PUSH2 0xE1D JUMPI PUSH2 0xE1C PUSH2 0x158D JUMP JUMPDEST JUMPDEST PUSH1 0x0 PUSH2 0xE2B DUP6 DUP3 DUP7 ADD PUSH2 0xD4C JUMP JUMPDEST SWAP3 POP POP PUSH1 0x20 DUP4 ADD CALLDATALOAD PUSH8 0xFFFFFFFFFFFFFFFF DUP2 GT ISZERO PUSH2 0xE4C JUMPI PUSH2 0xE4B PUSH2 0x1588 JUMP JUMPDEST JUMPDEST PUSH2 0xE58 DUP6 DUP3 DUP7 ADD PUSH2 0xD1E JUMP JUMPDEST SWAP2 POP POP SWAP3 POP SWAP3 SWAP1 POP JUMP JUMPDEST PUSH1 0x0 PUSH2 0xE6E DUP4 DUP4 PUSH2 0x109F JUMP JUMPDEST PUSH1 0x20 DUP4 ADD SWAP1 POP SWAP3 SWAP2 POP POP JUMP JUMPDEST PUSH2 0xE83 DUP2 PUSH2 0x133F JUMP JUMPDEST DUP3 MSTORE POP POP JUMP JUMPDEST PUSH2 0xE92 DUP2 PUSH2 0x133F JUMP JUMPDEST DUP3 MSTORE POP POP JUMP JUMPDEST PUSH1 0x0 PUSH2 0xEA3 DUP3 PUSH2 0x12B5 JUMP JUMPDEST PUSH2 0xEAD DUP2 DUP6 PUSH2 0x12D8 JUMP JUMPDEST SWAP4 POP PUSH2 0xEB8 DUP4 PUSH2 0x12A5 JUMP JUMPDEST DUP1 PUSH1 0x0 JUMPDEST DUP4 DUP2 LT ISZERO PUSH2 0xEE9 JUMPI DUP2 MLOAD PUSH2 0xED0 DUP9 DUP3 PUSH2 0xE62 JUMP JUMPDEST SWAP8 POP PUSH2 0xEDB DUP4 PUSH2 0x12CB JUMP JUMPDEST SWAP3 POP POP PUSH1 0x1 DUP2 ADD SWAP1 POP PUSH2 0xEBC JUMP JUMPDEST POP DUP6 SWAP4 POP POP POP POP SWAP3 SWAP2 POP POP JUMP JUMPDEST PUSH2 0xEFF DUP2 PUSH2 0x138E JUMP JUMPDEST DUP3 MSTORE POP POP JUMP JUMPDEST PUSH2 0xF0E DUP2 PUSH2 0x138E JUMP JUMPDEST DUP3 MSTORE POP POP JUMP JUMPDEST PUSH1 0x0 PUSH2 0xF1F DUP3 PUSH2 0x12C0 JUMP JUMPDEST PUSH2 0xF29 DUP2 DUP6 PUSH2 0x12E9 JUMP JUMPDEST SWAP4 POP PUSH2 0xF39 DUP2 DUP6 PUSH1 0x20 DUP7 ADD PUSH2 0x13AF JUMP JUMPDEST PUSH2 0xF42 DUP2 PUSH2 0x1592 JUMP JUMPDEST DUP5 ADD SWAP2 POP POP SWAP3 SWAP2 POP POP JUMP JUMPDEST PUSH1 0x0 PUSH2 0xF58 DUP3 PUSH2 0x12C0 JUMP JUMPDEST PUSH2 0xF62 DUP2 DUP6 PUSH2 0x12FA JUMP JUMPDEST SWAP4 POP PUSH2 0xF72 DUP2 DUP6 PUSH1 0x20 DUP7 ADD PUSH2 0x13AF JUMP JUMPDEST PUSH2 0xF7B DUP2 PUSH2 0x1592 JUMP JUMPDEST DUP5 ADD SWAP2 POP POP SWAP3 SWAP2 POP POP JUMP JUMPDEST PUSH1 0x0 PUSH2 0xF93 PUSH1 0x17 DUP4 PUSH2 0x12FA JUMP JUMPDEST SWAP2 POP PUSH2 0xF9E DUP3 PUSH2 0x15A3 JUMP JUMPDEST PUSH1 0x20 DUP3 ADD SWAP1 POP SWAP2 SWAP1 POP JUMP JUMPDEST PUSH1 0x0 PUSH2 0xFB6 PUSH1 0x23 DUP4 PUSH2 0x12FA JUMP JUMPDEST SWAP2 POP PUSH2 0xFC1 DUP3 PUSH2 0x15CC JUMP JUMPDEST PUSH1 0x40 DUP3 ADD SWAP1 POP SWAP2 SWAP1 POP JUMP JUMPDEST PUSH1 0x0 PUSH2 0xFD9 PUSH1 0x19 DUP4 PUSH2 0x12FA JUMP JUMPDEST SWAP2 POP PUSH2 0xFE4 DUP3 PUSH2 0x161B JUMP JUMPDEST PUSH1 0x20 DUP3 ADD SWAP1 POP SWAP2 SWAP1 POP JUMP JUMPDEST PUSH1 0x0 PUSH2 0xFFC PUSH1 0xC DUP4 PUSH2 0x12FA JUMP JUMPDEST SWAP2 POP PUSH2 0x1007 DUP3 PUSH2 0x1644 JUMP JUMPDEST PUSH1 0x20 DUP3 ADD SWAP1 POP SWAP2 SWAP1 POP JUMP JUMPDEST PUSH1 0x0 PUSH2 0x101F PUSH1 0x14 DUP4 PUSH2 0x12FA JUMP JUMPDEST SWAP2 POP PUSH2 0x102A DUP3 PUSH2 0x166D JUMP JUMPDEST PUSH1 0x20 DUP3 ADD SWAP1 POP SWAP2 SWAP1 POP JUMP JUMPDEST PUSH1 0x0 PUSH1 0x80 DUP4 ADD PUSH1 0x0 DUP4 ADD MLOAD PUSH2 0x104D PUSH1 0x0 DUP7 ADD DUP3 PUSH2 0xE7A JUMP JUMPDEST POP PUSH1 0x20 DUP4 ADD MLOAD DUP5 DUP3 SUB PUSH1 0x20 DUP7 ADD MSTORE PUSH2 0x1065 DUP3 DUP3 PUSH2 0xF14 JUMP JUMPDEST SWAP2 POP POP PUSH1 0x40 DUP4 ADD MLOAD DUP5 DUP3 SUB PUSH1 0x40 DUP7 ADD MSTORE PUSH2 0x107F DUP3 DUP3 PUSH2 0xE98 JUMP JUMPDEST SWAP2 POP POP PUSH1 0x60 DUP4 ADD MLOAD PUSH2 0x1094 PUSH1 0x60 DUP7 ADD DUP3 PUSH2 0xEF6 JUMP JUMPDEST POP DUP1 SWAP2 POP POP SWAP3 SWAP2 POP POP JUMP JUMPDEST PUSH2 0x10A8 DUP2 PUSH2 0x1384 JUMP JUMPDEST DUP3 MSTORE POP POP JUMP JUMPDEST PUSH2 0x10B7 DUP2 PUSH2 0x1384 JUMP JUMPDEST DUP3 MSTORE POP POP JUMP JUMPDEST PUSH1 0x0 PUSH1 0x20 DUP3 ADD SWAP1 POP PUSH2 0x10D2 PUSH1 0x0 DUP4 ADD DUP5 PUSH2 0xE89 JUMP JUMPDEST SWAP3 SWAP2 POP POP JUMP JUMPDEST PUSH1 0x0 PUSH1 0x60 DUP3 ADD SWAP1 POP PUSH2 0x10ED PUSH1 0x0 DUP4 ADD DUP7 PUSH2 0xE89 JUMP JUMPDEST DUP2 DUP2 SUB PUSH1 0x20 DUP4 ADD MSTORE PUSH2 0x10FF DUP2 DUP6 PUSH2 0xF4D JUMP JUMPDEST SWAP1 POP PUSH2 0x110E PUSH1 0x40 DUP4 ADD DUP5 PUSH2 0xF05 JUMP JUMPDEST SWAP5 SWAP4 POP POP POP POP JUMP JUMPDEST PUSH1 0x0 PUSH1 0x20 DUP3 ADD SWAP1 POP DUP2 DUP2 SUB PUSH1 0x0 DUP4 ADD MSTORE PUSH2 0x112F DUP2 PUSH2 0xF86 JUMP JUMPDEST SWAP1 POP SWAP2 SWAP1 POP JUMP JUMPDEST PUSH1 0x0 PUSH1 0x20 DUP3 ADD SWAP1 POP DUP2 DUP2 SUB PUSH1 0x0 DUP4 ADD MSTORE PUSH2 0x114F DUP2 PUSH2 0xFA9 JUMP JUMPDEST SWAP1 POP SWAP2 SWAP1 POP JUMP JUMPDEST PUSH1 0x0 PUSH1 0x20 DUP3 ADD SWAP1 POP DUP2 DUP2 SUB PUSH1 0x0 DUP4 ADD MSTORE PUSH2 0x116F DUP2 PUSH2 0xFCC JUMP JUMPDEST SWAP1 POP SWAP2 SWAP1 POP JUMP JUMPDEST PUSH1 0x0 PUSH1 0x20 DUP3 ADD SWAP1 POP DUP2 DUP2 SUB PUSH1 0x0 DUP4 ADD MSTORE PUSH2 0x118F DUP2 PUSH2 0xFEF JUMP JUMPDEST SWAP1 POP SWAP2 SWAP1 POP JUMP JUMPDEST PUSH1 0x0 PUSH1 0x20 DUP3 ADD SWAP1 POP DUP2 DUP2 SUB PUSH1 0x0 DUP4 ADD MSTORE PUSH2 0x11AF DUP2 PUSH2 0x1012 JUMP JUMPDEST SWAP1 POP SWAP2 SWAP1 POP JUMP JUMPDEST PUSH1 0x0 PUSH1 0x20 DUP3 ADD SWAP1 POP DUP2 DUP2 SUB PUSH1 0x0 DUP4 ADD MSTORE PUSH2 0x11D0 DUP2 DUP5 PUSH2 0x1035 JUMP JUMPDEST SWAP1 POP SWAP3 SWAP2 POP POP JUMP JUMPDEST PUSH1 0x0 PUSH1 0x20 DUP3 ADD SWAP1 POP PUSH2 0x11ED PUSH1 0x0 DUP4 ADD DUP5 PUSH2 0x10AE JUMP JUMPDEST SWAP3 SWAP2 POP POP JUMP JUMPDEST PUSH1 0x0 PUSH1 0x40 DUP3 ADD SWAP1 POP PUSH2 0x1208 PUSH1 0x0 DUP4 ADD DUP6 PUSH2 0x10AE JUMP JUMPDEST DUP2 DUP2 SUB PUSH1 0x20 DUP4 ADD MSTORE PUSH2 0x121A DUP2 DUP5 PUSH2 0xF4D JUMP JUMPDEST SWAP1 POP SWAP4 SWAP3 POP POP POP JUMP JUMPDEST PUSH1 0x0 PUSH2 0x122D PUSH2 0x123E JUMP JUMPDEST SWAP1 POP PUSH2 0x1239 DUP3 DUP3 PUSH2 0x1414 JUMP JUMPDEST SWAP2 SWAP1 POP JUMP JUMPDEST PUSH1 0x0 PUSH1 0x40 MLOAD SWAP1 POP SWAP1 JUMP JUMPDEST PUSH1 0x0 PUSH8 0xFFFFFFFFFFFFFFFF DUP3 GT ISZERO PUSH2 0x1263 JUMPI PUSH2 0x1262 PUSH2 0x154A JUMP JUMPDEST JUMPDEST PUSH1 0x20 DUP3 MUL SWAP1 POP PUSH1 0x20 DUP2 ADD SWAP1 POP SWAP2 SWAP1 POP JUMP JUMPDEST PUSH1 0x0 PUSH8 0xFFFFFFFFFFFFFFFF DUP3 GT ISZERO PUSH2 0x128F JUMPI PUSH2 0x128E PUSH2 0x154A JUMP JUMPDEST JUMPDEST PUSH2 0x1298 DUP3 PUSH2 0x1592 JUMP JUMPDEST SWAP1 POP PUSH1 0x20 DUP2 ADD SWAP1 POP SWAP2 SWAP1 POP JUMP JUMPDEST PUSH1 0x0 DUP2 SWAP1 POP PUSH1 0x20 DUP3 ADD SWAP1 POP SWAP2 SWAP1 POP JUMP JUMPDEST PUSH1 0x0 DUP2 MLOAD SWAP1 POP SWAP2 SWAP1 POP JUMP JUMPDEST PUSH1 0x0 DUP2 MLOAD SWAP1 POP SWAP2 SWAP1 POP JUMP JUMPDEST PUSH1 0x0 PUSH1 0x20 DUP3 ADD SWAP1 POP SWAP2 SWAP1 POP JUMP JUMPDEST PUSH1 0x0 DUP3 DUP3 MSTORE PUSH1 0x20 DUP3 ADD SWAP1 POP SWAP3 SWAP2 POP POP JUMP JUMPDEST PUSH1 0x0 DUP3 DUP3 MSTORE PUSH1 0x20 DUP3 ADD SWAP1 POP SWAP3 SWAP2 POP POP JUMP JUMPDEST PUSH1 0x0 DUP3 DUP3 MSTORE PUSH1 0x20 DUP3 ADD SWAP1 POP SWAP3 SWAP2 POP POP JUMP JUMPDEST PUSH1 0x0 PUSH2 0x1316 DUP3 PUSH2 0x1384 JUMP JUMPDEST SWAP2 POP PUSH2 0x1321 DUP4 PUSH2 0x1384 JUMP JUMPDEST SWAP3 POP DUP3 DUP3 LT ISZERO PUSH2 0x1334 JUMPI PUSH2 0x1333 PUSH2 0x148E JUMP JUMPDEST JUMPDEST DUP3 DUP3 SUB SWAP1 POP SWAP3 SWAP2 POP POP JUMP JUMPDEST PUSH1 0x0 PUSH2 0x134A DUP3 PUSH2 0x1364 JUMP JUMPDEST SWAP1 POP SWAP2 SWAP1 POP JUMP JUMPDEST PUSH1 0x0 DUP2 SWAP1 POP PUSH2 0x135F DUP3 PUSH2 0x1696 JUMP JUMPDEST SWAP2 SWAP1 POP JUMP JUMPDEST PUSH1 0x0 PUSH20 0xFFFFFFFFFFFFFFFFFFFFFFFFFFFFFFFFFFFFFFFF DUP3 AND SWAP1 POP SWAP2 SWAP1 POP JUMP JUMPDEST PUSH1 0x0 DUP2 SWAP1 POP SWAP2 SWAP1 POP JUMP JUMPDEST PUSH1 0x0 PUSH2 0x1399 DUP3 PUSH2 0x1351 JUMP JUMPDEST SWAP1 POP SWAP2 SWAP1 POP JUMP JUMPDEST DUP3 DUP2 DUP4 CALLDATACOPY PUSH1 0x0 DUP4 DUP4 ADD MSTORE POP POP POP JUMP JUMPDEST PUSH1 0x0 JUMPDEST DUP4 DUP2 LT ISZERO PUSH2 0x13CD JUMPI DUP1 DUP3 ADD MLOAD DUP2 DUP5 ADD MSTORE PUSH1 0x20 DUP2 ADD SWAP1 POP PUSH2 0x13B2 JUMP JUMPDEST DUP4 DUP2 GT ISZERO PUSH2 0x13DC JUMPI PUSH1 0x0 DUP5 DUP5 ADD MSTORE JUMPDEST POP POP POP POP JUMP JUMPDEST PUSH1 0x0 PUSH1 0x2 DUP3 DIV SWAP1 POP PUSH1 0x1 DUP3 AND DUP1 PUSH2 0x13FA JUMPI PUSH1 0x7F DUP3 AND SWAP2 POP JUMPDEST PUSH1 0x20 DUP3 LT DUP2 EQ ISZERO PUSH2 0x140E JUMPI PUSH2 0x140D PUSH2 0x14EC JUMP JUMPDEST JUMPDEST POP SWAP2 SWAP1 POP JUMP JUMPDEST PUSH2 0x141D DUP3 PUSH2 0x1592 JUMP JUMPDEST DUP2 ADD DUP2 DUP2 LT PUSH8 0xFFFFFFFFFFFFFFFF DUP3 GT OR ISZERO PUSH2 0x143C JUMPI PUSH2 0x143B PUSH2 0x154A JUMP JUMPDEST JUMPDEST DUP1 PUSH1 0x40 MSTORE POP POP POP JUMP JUMPDEST PUSH1 0x0 PUSH2 0x1450 DUP3 PUSH2 0x1384 JUMP JUMPDEST SWAP2 POP PUSH32 0xFFFFFFFFFFFFFFFFFFFFFFFFFFFFFFFFFFFFFFFFFFFFFFFFFFFFFFFFFFFFFFFF DUP3 EQ ISZERO PUSH2 0x1483 JUMPI PUSH2 0x1482 PUSH2 0x148E JUMP JUMPDEST JUMPDEST PUSH1 0x1 DUP3 ADD SWAP1 POP SWAP2 SWAP1 POP JUMP JUMPDEST PUSH32 0x4E487B7100000000000000000000000000000000000000000000000000000000 PUSH1 0x0 MSTORE PUSH1 0x11 PUSH1 0x4 MSTORE PUSH1 0x24 PUSH1 0x0 REVERT JUMPDEST PUSH32 0x4E487B7100000000000000000000000000000000000000000000000000000000 PUSH1 0x0 MSTORE PUSH1 0x21 PUSH1 0x4 MSTORE PUSH1 0x24 PUSH1 0x0 REVERT JUMPDEST PUSH32 0x4E487B7100000000000000000000000000000000000000000000000000000000 PUSH1 0x0 MSTORE PUSH1 0x22 PUSH1 0x4 MSTORE PUSH1 0x24 PUSH1 0x0 REVERT JUMPDEST PUSH32 0x4E487B7100000000000000000000000000000000000000000000000000000000 PUSH1 0x0 MSTORE PUSH1 0x32 PUSH1 0x4 MSTORE PUSH1 0x24 PUSH1 0x0 REVERT JUMPDEST PUSH32 0x4E487B7100000000000000000000000000000000000000000000000000000000 PUSH1 0x0 MSTORE PUSH1 0x41 PUSH1 0x4 MSTORE PUSH1 0x24 PUSH1 0x0 REVERT JUMPDEST PUSH1 0x0 DUP1 REVERT JUMPDEST PUSH1 0x0 DUP1 REVERT JUMPDEST PUSH1 0x0 DUP1 REVERT JUMPDEST PUSH1 0x0 DUP1 REVERT JUMPDEST PUSH1 0x0 DUP1 REVERT JUMPDEST PUSH1 0x0 PUSH1 0x1F NOT PUSH1 0x1F DUP4 ADD AND SWAP1 POP SWAP2 SWAP1 POP JUMP JUMPDEST PUSH32 0x596F7520617265206E6F7420617574686F72697A65642E000000000000000000 PUSH1 0x0 DUP3 ADD MSTORE POP JUMP JUMPDEST PUSH32 0x596F7520617265206E6F7420746865206F776E6572206F6620746865206F7264 PUSH1 0x0 DUP3 ADD MSTORE PUSH32 0x65722E0000000000000000000000000000000000000000000000000000000000 PUSH1 0x20 DUP3 ADD MSTORE POP JUMP JUMPDEST PUSH32 0x4F7264657220697320616C726561647920736869707065642E00000000000000 PUSH1 0x0 DUP3 ADD MSTORE POP JUMP JUMPDEST PUSH32 0x4E6F2070726F64756374732E0000000000000000000000000000000000000000 PUSH1 0x0 DUP3 ADD MSTORE POP JUMP JUMPDEST PUSH32 0x4E6F7420612076616C6964206F72646572206964000000000000000000000000 PUSH1 0x0 DUP3 ADD MSTORE POP JUMP JUMPDEST PUSH1 0x4 DUP2 LT PUSH2 0x16A7 JUMPI PUSH2 0x16A6 PUSH2 0x14BD JUMP JUMPDEST JUMPDEST POP JUMP JUMPDEST PUSH2 0x16B3 DUP2 PUSH2 0x1384 JUMP JUMPDEST DUP2 EQ PUSH2 0x16BE JUMPI PUSH1 0x0 DUP1 REVERT JUMPDEST POP JUMP INVALID LOG2 PUSH5 0x6970667358 0x22 SLT KECCAK256 XOR SHL PUSH27 0x14CF807494F34A444D588AB368565ECB86CC2139F61B5C1F2496FA 0x2E PUSH13 0x64736F6C634300080700330000 "
				},
				"gasEstimates": {
					"creation": {
						"codeDepositCost": "1175800",
						"executionCost": "25487",
						"totalCost": "1201287"
					},
					"external": {
						"advanceOrder(uint256)": "40135",
						"createOrder(string,uint256[])": "infinite",
						"getOrder(uint256)": "infinite",
						"orders(uint256)": "infinite",
						"owner()": "2514",
						"txCount()": "2430",
						"updateZip(uint256,string)": "infinite"
					}
				},
				"methodIdentifiers": {
					"advanceOrder(uint256)": "afe13a62",
					"createOrder(string,uint256[])": "6d9a65d8",
					"getOrder(uint256)": "d09ef241",
					"orders(uint256)": "a85c38ef",
					"owner()": "8da5cb5b",
					"txCount()": "3c540687",
					"updateZip(uint256,string)": "577dc0a0"
				}
			},
			"storageLayout": {
				"storage": [
					{
						"astId": 21,
						"contract": "contracts/Event.sol:Event",
						"label": "orders",
						"offset": 0,
						"slot": "0",
						"type": "t_array(t_struct(Order)17_storage)dyn_storage"
					},
					{
						"astId": 23,
						"contract": "contracts/Event.sol:Event",
						"label": "owner",
						"offset": 0,
						"slot": "1",
						"type": "t_address"
					},
					{
						"astId": 25,
						"contract": "contracts/Event.sol:Event",
						"label": "txCount",
						"offset": 0,
						"slot": "2",
						"type": "t_uint256"
					}
				],
				"types": {
					"t_address": {
						"encoding": "inplace",
						"label": "address",
						"numberOfBytes": "20"
					},
					"t_array(t_struct(Order)17_storage)dyn_storage": {
						"base": "t_struct(Order)17_storage",
						"encoding": "dynamic_array",
						"label": "struct Event.Order[]",
						"numberOfBytes": "32"
					},
					"t_array(t_uint256)dyn_storage": {
						"base": "t_uint256",
						"encoding": "dynamic_array",
						"label": "uint256[]",
						"numberOfBytes": "32"
					},
					"t_enum(Status)6": {
						"encoding": "inplace",
						"label": "enum Event.Status",
						"numberOfBytes": "1"
					},
					"t_string_storage": {
						"encoding": "bytes",
						"label": "string",
						"numberOfBytes": "32"
					},
					"t_struct(Order)17_storage": {
						"encoding": "inplace",
						"label": "struct Event.Order",
						"members": [
							{
								"astId": 8,
								"contract": "contracts/Event.sol:Event",
								"label": "customer",
								"offset": 0,
								"slot": "0",
								"type": "t_address"
							},
							{
								"astId": 10,
								"contract": "contracts/Event.sol:Event",
								"label": "zipCode",
								"offset": 0,
								"slot": "1",
								"type": "t_string_storage"
							},
							{
								"astId": 13,
								"contract": "contracts/Event.sol:Event",
								"label": "products",
								"offset": 0,
								"slot": "2",
								"type": "t_array(t_uint256)dyn_storage"
							},
							{
								"astId": 16,
								"contract": "contracts/Event.sol:Event",
								"label": "status",
								"offset": 0,
								"slot": "3",
								"type": "t_enum(Status)6"
							}
						],
						"numberOfBytes": "128"
					},
					"t_uint256": {
						"encoding": "inplace",
						"label": "uint256",
						"numberOfBytes": "32"
					}
				}
			},
			"userdoc": {
				"kind": "user",
				"methods": {},
				"version": 1
			}
		}
	}
}