{
	"contracts/Constructor.sol": {
		"Constructor": {
			"abi": [
				{
					"inputs": [],
					"stateMutability": "nonpayable",
					"type": "constructor"
				},
				{
					"inputs": [],
					"name": "number",
					"outputs": [
						{
							"internalType": "uint256",
							"name": "",
							"type": "uint256"
						}
					],
					"stateMutability": "view",
					"type": "function"
				},
				{
					"inputs": [],
					"name": "owner",
					"outputs": [
						{
							"internalType": "address",
							"name": "",
							"type": "address"
						}
					],
					"stateMutability": "view",
					"type": "function"
				},
				{
					"inputs": [
						{
							"internalType": "uint256",
							"name": "number",
							"type": "uint256"
						}
					],
					"name": "set",
					"outputs": [],
					"stateMutability": "nonpayable",
					"type": "function"
				},
				{
					"inputs": [],
					"name": "tokenName",
					"outputs": [
						{
							"internalType": "string",
							"name": "",
							"type": "string"
						}
					],
					"stateMutability": "view",
					"type": "function"
				},
				{
					"inputs": [],
					"name": "totalSupply",
					"outputs": [
						{
							"internalType": "uint256",
							"name": "",
							"type": "uint256"
						}
					],
					"stateMutability": "view",
					"type": "function"
				}
			],
			"devdoc": {
				"kind": "dev",
				"methods": {},
				"version": 1
			},
			"evm": {
				"assembly": "    /* \"contracts/Constructor.sol\":56:1044  contract Constructor{... */\n  mstore(0x40, 0xa0)\n    /* \"contracts/Constructor.sol\":994:1042  constructor(){... */\n  callvalue\n  dup1\n  iszero\n  tag_1\n  jumpi\n  0x00\n  dup1\n  revert\ntag_1:\n  pop\n    /* \"contracts/Constructor.sol\":1025:1035  msg.sender */\n  caller\n    /* \"contracts/Constructor.sol\":1017:1035  owner = msg.sender */\n  0xffffffffffffffffffffffffffffffffffffffff\n  and\n  0x80\n  dup2\n  0xffffffffffffffffffffffffffffffffffffffff\n  and\n  0x60\n  shl\n  dup2\n  mstore\n  pop\n  pop\n    /* \"contracts/Constructor.sol\":56:1044  contract Constructor{... */\n  shr(0x60, mload(0x80))\n  codecopy(0x00, dataOffset(sub_0), dataSize(sub_0))\n  0x00\n  assignImmutable(\"0x731dc163f73d31d8c68f9917ce4ff967753939f70432973c04fd2c2a48148607\")\n  return(0x00, dataSize(sub_0))\nstop\n\nsub_0: assembly {\n        /* \"contracts/Constructor.sol\":56:1044  contract Constructor{... */\n      mstore(0x40, 0x80)\n      callvalue\n      dup1\n      iszero\n      tag_1\n      jumpi\n      0x00\n      dup1\n      revert\n    tag_1:\n      pop\n      jumpi(tag_2, lt(calldatasize, 0x04))\n      shr(0xe0, calldataload(0x00))\n      dup1\n      0x18160ddd\n      eq\n      tag_3\n      jumpi\n      dup1\n      0x60fe47b1\n      eq\n      tag_4\n      jumpi\n      dup1\n      0x6c02a931\n      eq\n      tag_5\n      jumpi\n      dup1\n      0x8381f58a\n      eq\n      tag_6\n      jumpi\n      dup1\n      0x8da5cb5b\n      eq\n      tag_7\n      jumpi\n    tag_2:\n      0x00\n      dup1\n      revert\n        /* \"contracts/Constructor.sol\":111:134  uint public totalSupply */\n    tag_3:\n      tag_8\n      tag_9\n      jump\t// in\n    tag_8:\n      mload(0x40)\n      tag_10\n      swap2\n      swap1\n      tag_11\n      jump\t// in\n    tag_10:\n      mload(0x40)\n      dup1\n      swap2\n      sub\n      swap1\n      return\n        /* \"contracts/Constructor.sol\":258:328  function set(uint number) public {... */\n    tag_4:\n      tag_12\n      0x04\n      dup1\n      calldatasize\n      sub\n      dup2\n      add\n      swap1\n      tag_13\n      swap2\n      swap1\n      tag_14\n      jump\t// in\n    tag_13:\n      tag_15\n      jump\t// in\n    tag_12:\n      stop\n        /* \"contracts/Constructor.sol\":82:105  string public tokenName */\n    tag_5:\n      tag_16\n      tag_17\n      jump\t// in\n    tag_16:\n      mload(0x40)\n      tag_18\n      swap2\n      swap1\n      tag_19\n      jump\t// in\n    tag_18:\n      mload(0x40)\n      dup1\n      swap2\n      sub\n      swap1\n      return\n        /* \"contracts/Constructor.sol\":666:698  uint public constant number = 10 */\n    tag_6:\n      tag_20\n      tag_21\n      jump\t// in\n    tag_20:\n      mload(0x40)\n      tag_22\n      swap2\n      swap1\n      tag_11\n      jump\t// in\n    tag_22:\n      mload(0x40)\n      dup1\n      swap2\n      sub\n      swap1\n      return\n        /* \"contracts/Constructor.sol\":957:987  address public immutable owner */\n    tag_7:\n      tag_23\n      tag_24\n      jump\t// in\n    tag_23:\n      mload(0x40)\n      tag_25\n      swap2\n      swap1\n      tag_26\n      jump\t// in\n    tag_25:\n      mload(0x40)\n      dup1\n      swap2\n      sub\n      swap1\n      return\n        /* \"contracts/Constructor.sol\":111:134  uint public totalSupply */\n    tag_9:\n      sload(0x01)\n      dup2\n      jump\t// out\n        /* \"contracts/Constructor.sol\":258:328  function set(uint number) public {... */\n    tag_15:\n        /* \"contracts/Constructor.sol\":315:321  number */\n      dup1\n        /* \"contracts/Constructor.sol\":301:312  totalSupply */\n      0x01\n        /* \"contracts/Constructor.sol\":301:321  totalSupply = number */\n      dup2\n      swap1\n      sstore\n      pop\n        /* \"contracts/Constructor.sol\":258:328  function set(uint number) public {... */\n      pop\n      jump\t// out\n        /* \"contracts/Constructor.sol\":82:105  string public tokenName */\n    tag_17:\n      0x00\n      dup1\n      sload\n      tag_28\n      swap1\n      tag_29\n      jump\t// in\n    tag_28:\n      dup1\n      0x1f\n      add\n      0x20\n      dup1\n      swap2\n      div\n      mul\n      0x20\n      add\n      mload(0x40)\n      swap1\n      dup2\n      add\n      0x40\n      mstore\n      dup1\n      swap3\n      swap2\n      swap1\n      dup2\n      dup2\n      mstore\n      0x20\n      add\n      dup3\n      dup1\n      sload\n      tag_30\n      swap1\n      tag_29\n      jump\t// in\n    tag_30:\n      dup1\n      iszero\n      tag_31\n      jumpi\n      dup1\n      0x1f\n      lt\n      tag_32\n      jumpi\n      0x0100\n      dup1\n      dup4\n      sload\n      div\n      mul\n      dup4\n      mstore\n      swap2\n      0x20\n      add\n      swap2\n      jump(tag_31)\n    tag_32:\n      dup3\n      add\n      swap2\n      swap1\n      0x00\n      mstore\n      keccak256(0x00, 0x20)\n      swap1\n    tag_33:\n      dup2\n      sload\n      dup2\n      mstore\n      swap1\n      0x01\n      add\n      swap1\n      0x20\n      add\n      dup1\n      dup4\n      gt\n      tag_33\n      jumpi\n      dup3\n      swap1\n      sub\n      0x1f\n      and\n      dup3\n      add\n      swap2\n    tag_31:\n      pop\n      pop\n      pop\n      pop\n      pop\n      dup2\n      jump\t// out\n        /* \"contracts/Constructor.sol\":666:698  uint public constant number = 10 */\n    tag_21:\n        /* \"contracts/Constructor.sol\":696:698  10 */\n      0x0a\n        /* \"contracts/Constructor.sol\":666:698  uint public constant number = 10 */\n      dup2\n      jump\t// out\n        /* \"contracts/Constructor.sol\":957:987  address public immutable owner */\n    tag_24:\n      immutable(\"0x731dc163f73d31d8c68f9917ce4ff967753939f70432973c04fd2c2a48148607\")\n      dup2\n      jump\t// out\n        /* \"#utility.yul\":7:146   */\n    tag_35:\n        /* \"#utility.yul\":53:58   */\n      0x00\n        /* \"#utility.yul\":91:97   */\n      dup2\n        /* \"#utility.yul\":78:98   */\n      calldataload\n        /* \"#utility.yul\":69:98   */\n      swap1\n      pop\n        /* \"#utility.yul\":107:140   */\n      tag_37\n        /* \"#utility.yul\":134:139   */\n      dup2\n        /* \"#utility.yul\":107:140   */\n      tag_38\n      jump\t// in\n    tag_37:\n        /* \"#utility.yul\":7:146   */\n      swap3\n      swap2\n      pop\n      pop\n      jump\t// out\n        /* \"#utility.yul\":152:481   */\n    tag_14:\n        /* \"#utility.yul\":211:217   */\n      0x00\n        /* \"#utility.yul\":260:262   */\n      0x20\n        /* \"#utility.yul\":248:257   */\n      dup3\n        /* \"#utility.yul\":239:246   */\n      dup5\n        /* \"#utility.yul\":235:258   */\n      sub\n        /* \"#utility.yul\":231:263   */\n      slt\n        /* \"#utility.yul\":228:347   */\n      iszero\n      tag_40\n      jumpi\n        /* \"#utility.yul\":266:345   */\n      tag_41\n      tag_42\n      jump\t// in\n    tag_41:\n        /* \"#utility.yul\":228:347   */\n    tag_40:\n        /* \"#utility.yul\":386:387   */\n      0x00\n        /* \"#utility.yul\":411:464   */\n      tag_43\n        /* \"#utility.yul\":456:463   */\n      dup5\n        /* \"#utility.yul\":447:453   */\n      dup3\n        /* \"#utility.yul\":436:445   */\n      dup6\n        /* \"#utility.yul\":432:454   */\n      add\n        /* \"#utility.yul\":411:464   */\n      tag_35\n      jump\t// in\n    tag_43:\n        /* \"#utility.yul\":401:464   */\n      swap2\n      pop\n        /* \"#utility.yul\":357:474   */\n      pop\n        /* \"#utility.yul\":152:481   */\n      swap3\n      swap2\n      pop\n      pop\n      jump\t// out\n        /* \"#utility.yul\":487:605   */\n    tag_44:\n        /* \"#utility.yul\":574:598   */\n      tag_46\n        /* \"#utility.yul\":592:597   */\n      dup2\n        /* \"#utility.yul\":574:598   */\n      tag_47\n      jump\t// in\n    tag_46:\n        /* \"#utility.yul\":569:572   */\n      dup3\n        /* \"#utility.yul\":562:599   */\n      mstore\n        /* \"#utility.yul\":487:605   */\n      pop\n      pop\n      jump\t// out\n        /* \"#utility.yul\":611:975   */\n    tag_48:\n        /* \"#utility.yul\":699:702   */\n      0x00\n        /* \"#utility.yul\":727:766   */\n      tag_50\n        /* \"#utility.yul\":760:765   */\n      dup3\n        /* \"#utility.yul\":727:766   */\n      tag_51\n      jump\t// in\n    tag_50:\n        /* \"#utility.yul\":782:853   */\n      tag_52\n        /* \"#utility.yul\":846:852   */\n      dup2\n        /* \"#utility.yul\":841:844   */\n      dup6\n        /* \"#utility.yul\":782:853   */\n      tag_53\n      jump\t// in\n    tag_52:\n        /* \"#utility.yul\":775:853   */\n      swap4\n      pop\n        /* \"#utility.yul\":862:914   */\n      tag_54\n        /* \"#utility.yul\":907:913   */\n      dup2\n        /* \"#utility.yul\":902:905   */\n      dup6\n        /* \"#utility.yul\":895:899   */\n      0x20\n        /* \"#utility.yul\":888:893   */\n      dup7\n        /* \"#utility.yul\":884:900   */\n      add\n        /* \"#utility.yul\":862:914   */\n      tag_55\n      jump\t// in\n    tag_54:\n        /* \"#utility.yul\":939:968   */\n      tag_56\n        /* \"#utility.yul\":961:967   */\n      dup2\n        /* \"#utility.yul\":939:968   */\n      tag_57\n      jump\t// in\n    tag_56:\n        /* \"#utility.yul\":934:937   */\n      dup5\n        /* \"#utility.yul\":930:969   */\n      add\n        /* \"#utility.yul\":923:969   */\n      swap2\n      pop\n        /* \"#utility.yul\":703:975   */\n      pop\n        /* \"#utility.yul\":611:975   */\n      swap3\n      swap2\n      pop\n      pop\n      jump\t// out\n        /* \"#utility.yul\":981:1099   */\n    tag_58:\n        /* \"#utility.yul\":1068:1092   */\n      tag_60\n        /* \"#utility.yul\":1086:1091   */\n      dup2\n        /* \"#utility.yul\":1068:1092   */\n      tag_61\n      jump\t// in\n    tag_60:\n        /* \"#utility.yul\":1063:1066   */\n      dup3\n        /* \"#utility.yul\":1056:1093   */\n      mstore\n        /* \"#utility.yul\":981:1099   */\n      pop\n      pop\n      jump\t// out\n        /* \"#utility.yul\":1105:1327   */\n    tag_26:\n        /* \"#utility.yul\":1198:1202   */\n      0x00\n        /* \"#utility.yul\":1236:1238   */\n      0x20\n        /* \"#utility.yul\":1225:1234   */\n      dup3\n        /* \"#utility.yul\":1221:1239   */\n      add\n        /* \"#utility.yul\":1213:1239   */\n      swap1\n      pop\n        /* \"#utility.yul\":1249:1320   */\n      tag_63\n        /* \"#utility.yul\":1317:1318   */\n      0x00\n        /* \"#utility.yul\":1306:1315   */\n      dup4\n        /* \"#utility.yul\":1302:1319   */\n      add\n        /* \"#utility.yul\":1293:1299   */\n      dup5\n        /* \"#utility.yul\":1249:1320   */\n      tag_44\n      jump\t// in\n    tag_63:\n        /* \"#utility.yul\":1105:1327   */\n      swap3\n      swap2\n      pop\n      pop\n      jump\t// out\n        /* \"#utility.yul\":1333:1646   */\n    tag_19:\n        /* \"#utility.yul\":1446:1450   */\n      0x00\n        /* \"#utility.yul\":1484:1486   */\n      0x20\n        /* \"#utility.yul\":1473:1482   */\n      dup3\n        /* \"#utility.yul\":1469:1487   */\n      add\n        /* \"#utility.yul\":1461:1487   */\n      swap1\n      pop\n        /* \"#utility.yul\":1533:1542   */\n      dup2\n        /* \"#utility.yul\":1527:1531   */\n      dup2\n        /* \"#utility.yul\":1523:1543   */\n      sub\n        /* \"#utility.yul\":1519:1520   */\n      0x00\n        /* \"#utility.yul\":1508:1517   */\n      dup4\n        /* \"#utility.yul\":1504:1521   */\n      add\n        /* \"#utility.yul\":1497:1544   */\n      mstore\n        /* \"#utility.yul\":1561:1639   */\n      tag_65\n        /* \"#utility.yul\":1634:1638   */\n      dup2\n        /* \"#utility.yul\":1625:1631   */\n      dup5\n        /* \"#utility.yul\":1561:1639   */\n      tag_48\n      jump\t// in\n    tag_65:\n        /* \"#utility.yul\":1553:1639   */\n      swap1\n      pop\n        /* \"#utility.yul\":1333:1646   */\n      swap3\n      swap2\n      pop\n      pop\n      jump\t// out\n        /* \"#utility.yul\":1652:1874   */\n    tag_11:\n        /* \"#utility.yul\":1745:1749   */\n      0x00\n        /* \"#utility.yul\":1783:1785   */\n      0x20\n        /* \"#utility.yul\":1772:1781   */\n      dup3\n        /* \"#utility.yul\":1768:1786   */\n      add\n        /* \"#utility.yul\":1760:1786   */\n      swap1\n      pop\n        /* \"#utility.yul\":1796:1867   */\n      tag_67\n        /* \"#utility.yul\":1864:1865   */\n      0x00\n        /* \"#utility.yul\":1853:1862   */\n      dup4\n        /* \"#utility.yul\":1849:1866   */\n      add\n        /* \"#utility.yul\":1840:1846   */\n      dup5\n        /* \"#utility.yul\":1796:1867   */\n      tag_58\n      jump\t// in\n    tag_67:\n        /* \"#utility.yul\":1652:1874   */\n      swap3\n      swap2\n      pop\n      pop\n      jump\t// out\n        /* \"#utility.yul\":1961:2060   */\n    tag_51:\n        /* \"#utility.yul\":2013:2019   */\n      0x00\n        /* \"#utility.yul\":2047:2052   */\n      dup2\n        /* \"#utility.yul\":2041:2053   */\n      mload\n        /* \"#utility.yul\":2031:2053   */\n      swap1\n      pop\n        /* \"#utility.yul\":1961:2060   */\n      swap2\n      swap1\n      pop\n      jump\t// out\n        /* \"#utility.yul\":2066:2235   */\n    tag_53:\n        /* \"#utility.yul\":2150:2161   */\n      0x00\n        /* \"#utility.yul\":2184:2190   */\n      dup3\n        /* \"#utility.yul\":2179:2182   */\n      dup3\n        /* \"#utility.yul\":2172:2191   */\n      mstore\n        /* \"#utility.yul\":2224:2228   */\n      0x20\n        /* \"#utility.yul\":2219:2222   */\n      dup3\n        /* \"#utility.yul\":2215:2229   */\n      add\n        /* \"#utility.yul\":2200:2229   */\n      swap1\n      pop\n        /* \"#utility.yul\":2066:2235   */\n      swap3\n      swap2\n      pop\n      pop\n      jump\t// out\n        /* \"#utility.yul\":2241:2337   */\n    tag_47:\n        /* \"#utility.yul\":2278:2285   */\n      0x00\n        /* \"#utility.yul\":2307:2331   */\n      tag_73\n        /* \"#utility.yul\":2325:2330   */\n      dup3\n        /* \"#utility.yul\":2307:2331   */\n      tag_74\n      jump\t// in\n    tag_73:\n        /* \"#utility.yul\":2296:2331   */\n      swap1\n      pop\n        /* \"#utility.yul\":2241:2337   */\n      swap2\n      swap1\n      pop\n      jump\t// out\n        /* \"#utility.yul\":2343:2469   */\n    tag_74:\n        /* \"#utility.yul\":2380:2387   */\n      0x00\n        /* \"#utility.yul\":2420:2462   */\n      0xffffffffffffffffffffffffffffffffffffffff\n        /* \"#utility.yul\":2413:2418   */\n      dup3\n        /* \"#utility.yul\":2409:2463   */\n      and\n        /* \"#utility.yul\":2398:2463   */\n      swap1\n      pop\n        /* \"#utility.yul\":2343:2469   */\n      swap2\n      swap1\n      pop\n      jump\t// out\n        /* \"#utility.yul\":2475:2552   */\n    tag_61:\n        /* \"#utility.yul\":2512:2519   */\n      0x00\n        /* \"#utility.yul\":2541:2546   */\n      dup2\n        /* \"#utility.yul\":2530:2546   */\n      swap1\n      pop\n        /* \"#utility.yul\":2475:2552   */\n      swap2\n      swap1\n      pop\n      jump\t// out\n        /* \"#utility.yul\":2558:2865   */\n    tag_55:\n        /* \"#utility.yul\":2626:2627   */\n      0x00\n        /* \"#utility.yul\":2636:2749   */\n    tag_78:\n        /* \"#utility.yul\":2650:2656   */\n      dup4\n        /* \"#utility.yul\":2647:2648   */\n      dup2\n        /* \"#utility.yul\":2644:2657   */\n      lt\n        /* \"#utility.yul\":2636:2749   */\n      iszero\n      tag_80\n      jumpi\n        /* \"#utility.yul\":2735:2736   */\n      dup1\n        /* \"#utility.yul\":2730:2733   */\n      dup3\n        /* \"#utility.yul\":2726:2737   */\n      add\n        /* \"#utility.yul\":2720:2738   */\n      mload\n        /* \"#utility.yul\":2716:2717   */\n      dup2\n        /* \"#utility.yul\":2711:2714   */\n      dup5\n        /* \"#utility.yul\":2707:2718   */\n      add\n        /* \"#utility.yul\":2700:2739   */\n      mstore\n        /* \"#utility.yul\":2672:2674   */\n      0x20\n        /* \"#utility.yul\":2669:2670   */\n      dup2\n        /* \"#utility.yul\":2665:2675   */\n      add\n        /* \"#utility.yul\":2660:2675   */\n      swap1\n      pop\n        /* \"#utility.yul\":2636:2749   */\n      jump(tag_78)\n    tag_80:\n        /* \"#utility.yul\":2767:2773   */\n      dup4\n        /* \"#utility.yul\":2764:2765   */\n      dup2\n        /* \"#utility.yul\":2761:2774   */\n      gt\n        /* \"#utility.yul\":2758:2859   */\n      iszero\n      tag_81\n      jumpi\n        /* \"#utility.yul\":2847:2848   */\n      0x00\n        /* \"#utility.yul\":2838:2844   */\n      dup5\n        /* \"#utility.yul\":2833:2836   */\n      dup5\n        /* \"#utility.yul\":2829:2845   */\n      add\n        /* \"#utility.yul\":2822:2849   */\n      mstore\n        /* \"#utility.yul\":2758:2859   */\n    tag_81:\n        /* \"#utility.yul\":2607:2865   */\n      pop\n        /* \"#utility.yul\":2558:2865   */\n      pop\n      pop\n      pop\n      jump\t// out\n        /* \"#utility.yul\":2871:3191   */\n    tag_29:\n        /* \"#utility.yul\":2915:2921   */\n      0x00\n        /* \"#utility.yul\":2952:2953   */\n      0x02\n        /* \"#utility.yul\":2946:2950   */\n      dup3\n        /* \"#utility.yul\":2942:2954   */\n      div\n        /* \"#utility.yul\":2932:2954   */\n      swap1\n      pop\n        /* \"#utility.yul\":2999:3000   */\n      0x01\n        /* \"#utility.yul\":2993:2997   */\n      dup3\n        /* \"#utility.yul\":2989:3001   */\n      and\n        /* \"#utility.yul\":3020:3038   */\n      dup1\n        /* \"#utility.yul\":3010:3091   */\n      tag_83\n      jumpi\n        /* \"#utility.yul\":3076:3080   */\n      0x7f\n        /* \"#utility.yul\":3068:3074   */\n      dup3\n        /* \"#utility.yul\":3064:3081   */\n      and\n        /* \"#utility.yul\":3054:3081   */\n      swap2\n      pop\n        /* \"#utility.yul\":3010:3091   */\n    tag_83:\n        /* \"#utility.yul\":3138:3140   */\n      0x20\n        /* \"#utility.yul\":3130:3136   */\n      dup3\n        /* \"#utility.yul\":3127:3141   */\n      lt\n        /* \"#utility.yul\":3107:3125   */\n      dup2\n        /* \"#utility.yul\":3104:3142   */\n      eq\n        /* \"#utility.yul\":3101:3185   */\n      iszero\n      tag_84\n      jumpi\n        /* \"#utility.yul\":3157:3175   */\n      tag_85\n      tag_86\n      jump\t// in\n    tag_85:\n        /* \"#utility.yul\":3101:3185   */\n    tag_84:\n        /* \"#utility.yul\":2922:3191   */\n      pop\n        /* \"#utility.yul\":2871:3191   */\n      swap2\n      swap1\n      pop\n      jump\t// out\n        /* \"#utility.yul\":3197:3377   */\n    tag_86:\n        /* \"#utility.yul\":3245:3322   */\n      0x4e487b7100000000000000000000000000000000000000000000000000000000\n        /* \"#utility.yul\":3242:3243   */\n      0x00\n        /* \"#utility.yul\":3235:3323   */\n      mstore\n        /* \"#utility.yul\":3342:3346   */\n      0x22\n        /* \"#utility.yul\":3339:3340   */\n      0x04\n        /* \"#utility.yul\":3332:3347   */\n      mstore\n        /* \"#utility.yul\":3366:3370   */\n      0x24\n        /* \"#utility.yul\":3363:3364   */\n      0x00\n        /* \"#utility.yul\":3356:3371   */\n      revert\n        /* \"#utility.yul\":3506:3623   */\n    tag_42:\n        /* \"#utility.yul\":3615:3616   */\n      0x00\n        /* \"#utility.yul\":3612:3613   */\n      dup1\n        /* \"#utility.yul\":3605:3617   */\n      revert\n        /* \"#utility.yul\":3629:3731   */\n    tag_57:\n        /* \"#utility.yul\":3670:3676   */\n      0x00\n        /* \"#utility.yul\":3721:3723   */\n      0x1f\n        /* \"#utility.yul\":3717:3724   */\n      not\n        /* \"#utility.yul\":3712:3714   */\n      0x1f\n        /* \"#utility.yul\":3705:3710   */\n      dup4\n        /* \"#utility.yul\":3701:3715   */\n      add\n        /* \"#utility.yul\":3697:3725   */\n      and\n        /* \"#utility.yul\":3687:3725   */\n      swap1\n      pop\n        /* \"#utility.yul\":3629:3731   */\n      swap2\n      swap1\n      pop\n      jump\t// out\n        /* \"#utility.yul\":3737:3859   */\n    tag_38:\n        /* \"#utility.yul\":3810:3834   */\n      tag_93\n        /* \"#utility.yul\":3828:3833   */\n      dup2\n        /* \"#utility.yul\":3810:3834   */\n      tag_61\n      jump\t// in\n    tag_93:\n        /* \"#utility.yul\":3803:3808   */\n      dup2\n        /* \"#utility.yul\":3800:3835   */\n      eq\n        /* \"#utility.yul\":3790:3853   */\n      tag_94\n      jumpi\n        /* \"#utility.yul\":3849:3850   */\n      0x00\n        /* \"#utility.yul\":3846:3847   */\n      dup1\n        /* \"#utility.yul\":3839:3851   */\n      revert\n        /* \"#utility.yul\":3790:3853   */\n    tag_94:\n        /* \"#utility.yul\":3737:3859   */\n      pop\n      jump\t// out\n\n    auxdata: 0xa264697066735822122033f134c7947c0f49f299dc3eb1d2bbf8d274ac5c4d9a6c66c0892f31ef7f7ec864736f6c63430008070033\n}\n",
				"bytecode": {
					"linkReferences": {},
					"object": "60a060405234801561001057600080fd5b503373ffffffffffffffffffffffffffffffffffffffff1660808173ffffffffffffffffffffffffffffffffffffffff1660601b8152505060805160601c6103f7610066600039600061019501526103f76000f3fe608060405234801561001057600080fd5b50600436106100575760003560e01c806318160ddd1461005c57806360fe47b11461007a5780636c02a931146100965780638381f58a146100b45780638da5cb5b146100d2575b600080fd5b6100646100f0565b604051610071919061028d565b60405180910390f35b610094600480360381019061008f91906101cc565b6100f6565b005b61009e610100565b6040516100ab919061026b565b60405180910390f35b6100bc61018e565b6040516100c9919061028d565b60405180910390f35b6100da610193565b6040516100e79190610250565b60405180910390f35b60015481565b8060018190555050565b6000805461010d90610333565b80601f016020809104026020016040519081016040528092919081815260200182805461013990610333565b80156101865780601f1061015b57610100808354040283529160200191610186565b820191906000526020600020905b81548152906001019060200180831161016957829003601f168201915b505050505081565b600a81565b7f000000000000000000000000000000000000000000000000000000000000000081565b6000813590506101c6816103aa565b92915050565b6000602082840312156101e2576101e1610394565b5b60006101f0848285016101b7565b91505092915050565b610202816102c4565b82525050565b6000610213826102a8565b61021d81856102b3565b935061022d818560208601610300565b61023681610399565b840191505092915050565b61024a816102f6565b82525050565b600060208201905061026560008301846101f9565b92915050565b600060208201905081810360008301526102858184610208565b905092915050565b60006020820190506102a26000830184610241565b92915050565b600081519050919050565b600082825260208201905092915050565b60006102cf826102d6565b9050919050565b600073ffffffffffffffffffffffffffffffffffffffff82169050919050565b6000819050919050565b60005b8381101561031e578082015181840152602081019050610303565b8381111561032d576000848401525b50505050565b6000600282049050600182168061034b57607f821691505b6020821081141561035f5761035e610365565b5b50919050565b7f4e487b7100000000000000000000000000000000000000000000000000000000600052602260045260246000fd5b600080fd5b6000601f19601f8301169050919050565b6103b3816102f6565b81146103be57600080fd5b5056fea264697066735822122033f134c7947c0f49f299dc3eb1d2bbf8d274ac5c4d9a6c66c0892f31ef7f7ec864736f6c63430008070033",
					"opcodes": "PUSH1 0xA0 PUSH1 0x40 MSTORE CALLVALUE DUP1 ISZERO PUSH2 0x10 JUMPI PUSH1 0x0 DUP1 REVERT JUMPDEST POP CALLER PUSH20 0xFFFFFFFFFFFFFFFFFFFFFFFFFFFFFFFFFFFFFFFF AND PUSH1 0x80 DUP2 PUSH20 0xFFFFFFFFFFFFFFFFFFFFFFFFFFFFFFFFFFFFFFFF AND PUSH1 0x60 SHL DUP2 MSTORE POP POP PUSH1 0x80 MLOAD PUSH1 0x60 SHR PUSH2 0x3F7 PUSH2 0x66 PUSH1 0x0 CODECOPY PUSH1 0x0 PUSH2 0x195 ADD MSTORE PUSH2 0x3F7 PUSH1 0x0 RETURN INVALID PUSH1 0x80 PUSH1 0x40 MSTORE CALLVALUE DUP1 ISZERO PUSH2 0x10 JUMPI PUSH1 0x0 DUP1 REVERT JUMPDEST POP PUSH1 0x4 CALLDATASIZE LT PUSH2 0x57 JUMPI PUSH1 0x0 CALLDATALOAD PUSH1 0xE0 SHR DUP1 PUSH4 0x18160DDD EQ PUSH2 0x5C JUMPI DUP1 PUSH4 0x60FE47B1 EQ PUSH2 0x7A JUMPI DUP1 PUSH4 0x6C02A931 EQ PUSH2 0x96 JUMPI DUP1 PUSH4 0x8381F58A EQ PUSH2 0xB4 JUMPI DUP1 PUSH4 0x8DA5CB5B EQ PUSH2 0xD2 JUMPI JUMPDEST PUSH1 0x0 DUP1 REVERT JUMPDEST PUSH2 0x64 PUSH2 0xF0 JUMP JUMPDEST PUSH1 0x40 MLOAD PUSH2 0x71 SWAP2 SWAP1 PUSH2 0x28D JUMP JUMPDEST PUSH1 0x40 MLOAD DUP1 SWAP2 SUB SWAP1 RETURN JUMPDEST PUSH2 0x94 PUSH1 0x4 DUP1 CALLDATASIZE SUB DUP2 ADD SWAP1 PUSH2 0x8F SWAP2 SWAP1 PUSH2 0x1CC JUMP JUMPDEST PUSH2 0xF6 JUMP JUMPDEST STOP JUMPDEST PUSH2 0x9E PUSH2 0x100 JUMP JUMPDEST PUSH1 0x40 MLOAD PUSH2 0xAB SWAP2 SWAP1 PUSH2 0x26B JUMP JUMPDEST PUSH1 0x40 MLOAD DUP1 SWAP2 SUB SWAP1 RETURN JUMPDEST PUSH2 0xBC PUSH2 0x18E JUMP JUMPDEST PUSH1 0x40 MLOAD PUSH2 0xC9 SWAP2 SWAP1 PUSH2 0x28D JUMP JUMPDEST PUSH1 0x40 MLOAD DUP1 SWAP2 SUB SWAP1 RETURN JUMPDEST PUSH2 0xDA PUSH2 0x193 JUMP JUMPDEST PUSH1 0x40 MLOAD PUSH2 0xE7 SWAP2 SWAP1 PUSH2 0x250 JUMP JUMPDEST PUSH1 0x40 MLOAD DUP1 SWAP2 SUB SWAP1 RETURN JUMPDEST PUSH1 0x1 SLOAD DUP2 JUMP JUMPDEST DUP1 PUSH1 0x1 DUP2 SWAP1 SSTORE POP POP JUMP JUMPDEST PUSH1 0x0 DUP1 SLOAD PUSH2 0x10D SWAP1 PUSH2 0x333 JUMP JUMPDEST DUP1 PUSH1 0x1F ADD PUSH1 0x20 DUP1 SWAP2 DIV MUL PUSH1 0x20 ADD PUSH1 0x40 MLOAD SWAP1 DUP2 ADD PUSH1 0x40 MSTORE DUP1 SWAP3 SWAP2 SWAP1 DUP2 DUP2 MSTORE PUSH1 0x20 ADD DUP3 DUP1 SLOAD PUSH2 0x139 SWAP1 PUSH2 0x333 JUMP JUMPDEST DUP1 ISZERO PUSH2 0x186 JUMPI DUP1 PUSH1 0x1F LT PUSH2 0x15B JUMPI PUSH2 0x100 DUP1 DUP4 SLOAD DIV MUL DUP4 MSTORE SWAP2 PUSH1 0x20 ADD SWAP2 PUSH2 0x186 JUMP JUMPDEST DUP3 ADD SWAP2 SWAP1 PUSH1 0x0 MSTORE PUSH1 0x20 PUSH1 0x0 KECCAK256 SWAP1 JUMPDEST DUP2 SLOAD DUP2 MSTORE SWAP1 PUSH1 0x1 ADD SWAP1 PUSH1 0x20 ADD DUP1 DUP4 GT PUSH2 0x169 JUMPI DUP3 SWAP1 SUB PUSH1 0x1F AND DUP3 ADD SWAP2 JUMPDEST POP POP POP POP POP DUP2 JUMP JUMPDEST PUSH1 0xA DUP2 JUMP JUMPDEST PUSH32 0x0 DUP2 JUMP JUMPDEST PUSH1 0x0 DUP2 CALLDATALOAD SWAP1 POP PUSH2 0x1C6 DUP2 PUSH2 0x3AA JUMP JUMPDEST SWAP3 SWAP2 POP POP JUMP JUMPDEST PUSH1 0x0 PUSH1 0x20 DUP3 DUP5 SUB SLT ISZERO PUSH2 0x1E2 JUMPI PUSH2 0x1E1 PUSH2 0x394 JUMP JUMPDEST JUMPDEST PUSH1 0x0 PUSH2 0x1F0 DUP5 DUP3 DUP6 ADD PUSH2 0x1B7 JUMP JUMPDEST SWAP2 POP POP SWAP3 SWAP2 POP POP JUMP JUMPDEST PUSH2 0x202 DUP2 PUSH2 0x2C4 JUMP JUMPDEST DUP3 MSTORE POP POP JUMP JUMPDEST PUSH1 0x0 PUSH2 0x213 DUP3 PUSH2 0x2A8 JUMP JUMPDEST PUSH2 0x21D DUP2 DUP6 PUSH2 0x2B3 JUMP JUMPDEST SWAP4 POP PUSH2 0x22D DUP2 DUP6 PUSH1 0x20 DUP7 ADD PUSH2 0x300 JUMP JUMPDEST PUSH2 0x236 DUP2 PUSH2 0x399 JUMP JUMPDEST DUP5 ADD SWAP2 POP POP SWAP3 SWAP2 POP POP JUMP JUMPDEST PUSH2 0x24A DUP2 PUSH2 0x2F6 JUMP JUMPDEST DUP3 MSTORE POP POP JUMP JUMPDEST PUSH1 0x0 PUSH1 0x20 DUP3 ADD SWAP1 POP PUSH2 0x265 PUSH1 0x0 DUP4 ADD DUP5 PUSH2 0x1F9 JUMP JUMPDEST SWAP3 SWAP2 POP POP JUMP JUMPDEST PUSH1 0x0 PUSH1 0x20 DUP3 ADD SWAP1 POP DUP2 DUP2 SUB PUSH1 0x0 DUP4 ADD MSTORE PUSH2 0x285 DUP2 DUP5 PUSH2 0x208 JUMP JUMPDEST SWAP1 POP SWAP3 SWAP2 POP POP JUMP JUMPDEST PUSH1 0x0 PUSH1 0x20 DUP3 ADD SWAP1 POP PUSH2 0x2A2 PUSH1 0x0 DUP4 ADD DUP5 PUSH2 0x241 JUMP JUMPDEST SWAP3 SWAP2 POP POP JUMP JUMPDEST PUSH1 0x0 DUP2 MLOAD SWAP1 POP SWAP2 SWAP1 POP JUMP JUMPDEST PUSH1 0x0 DUP3 DUP3 MSTORE PUSH1 0x20 DUP3 ADD SWAP1 POP SWAP3 SWAP2 POP POP JUMP JUMPDEST PUSH1 0x0 PUSH2 0x2CF DUP3 PUSH2 0x2D6 JUMP JUMPDEST SWAP1 POP SWAP2 SWAP1 POP JUMP JUMPDEST PUSH1 0x0 PUSH20 0xFFFFFFFFFFFFFFFFFFFFFFFFFFFFFFFFFFFFFFFF DUP3 AND SWAP1 POP SWAP2 SWAP1 POP JUMP JUMPDEST PUSH1 0x0 DUP2 SWAP1 POP SWAP2 SWAP1 POP JUMP JUMPDEST PUSH1 0x0 JUMPDEST DUP4 DUP2 LT ISZERO PUSH2 0x31E JUMPI DUP1 DUP3 ADD MLOAD DUP2 DUP5 ADD MSTORE PUSH1 0x20 DUP2 ADD SWAP1 POP PUSH2 0x303 JUMP JUMPDEST DUP4 DUP2 GT ISZERO PUSH2 0x32D JUMPI PUSH1 0x0 DUP5 DUP5 ADD MSTORE JUMPDEST POP POP POP POP JUMP JUMPDEST PUSH1 0x0 PUSH1 0x2 DUP3 DIV SWAP1 POP PUSH1 0x1 DUP3 AND DUP1 PUSH2 0x34B JUMPI PUSH1 0x7F DUP3 AND SWAP2 POP JUMPDEST PUSH1 0x20 DUP3 LT DUP2 EQ ISZERO PUSH2 0x35F JUMPI PUSH2 0x35E PUSH2 0x365 JUMP JUMPDEST JUMPDEST POP SWAP2 SWAP1 POP JUMP JUMPDEST PUSH32 0x4E487B7100000000000000000000000000000000000000000000000000000000 PUSH1 0x0 MSTORE PUSH1 0x22 PUSH1 0x4 MSTORE PUSH1 0x24 PUSH1 0x0 REVERT JUMPDEST PUSH1 0x0 DUP1 REVERT JUMPDEST PUSH1 0x0 PUSH1 0x1F NOT PUSH1 0x1F DUP4 ADD AND SWAP1 POP SWAP2 SWAP1 POP JUMP JUMPDEST PUSH2 0x3B3 DUP2 PUSH2 0x2F6 JUMP JUMPDEST DUP2 EQ PUSH2 0x3BE JUMPI PUSH1 0x0 DUP1 REVERT JUMPDEST POP JUMP INVALID LOG2 PUSH5 0x6970667358 0x22 SLT KECCAK256 CALLER CALL CALLVALUE 0xC7 SWAP5 PUSH29 0xF49F299DC3EB1D2BBF8D274AC5C4D9A6C66C0892F31EF7F7EC864736F PUSH13 0x63430008070033000000000000 "
				},
				"gasEstimates": {
					"creation": {
						"codeDepositCost": "203000",
						"executionCost": "infinite",
						"totalCost": "infinite"
					},
					"external": {
						"number()": "373",
						"owner()": "infinite",
						"set(uint256)": "22520",
						"tokenName()": "infinite",
						"totalSupply()": "2407"
					}
				},
				"methodIdentifiers": {
					"number()": "8381f58a",
					"owner()": "8da5cb5b",
					"set(uint256)": "60fe47b1",
					"tokenName()": "6c02a931",
					"totalSupply()": "18160ddd"
				}
			},
			"storageLayout": {
				"storage": [
					{
						"astId": 3,
						"contract": "contracts/Constructor.sol:Constructor",
						"label": "tokenName",
						"offset": 0,
						"slot": "0",
						"type": "t_string_storage"
					},
					{
						"astId": 5,
						"contract": "contracts/Constructor.sol:Constructor",
						"label": "totalSupply",
						"offset": 0,
						"slot": "1",
						"type": "t_uint256"
					}
				],
				"types": {
					"t_string_storage": {
						"encoding": "bytes",
						"label": "string",
						"numberOfBytes": "32"
					},
					"t_uint256": {
						"encoding": "inplace",
						"label": "uint256",
						"numberOfBytes": "32"
					}
				}
			},
			"userdoc": {
				"kind": "user",
				"methods": {},
				"version": 1
			}
		}
	}
}