{
	"data": {
		"bytecode": {
			"linkReferences": {},
			"object": "6080604052600760005534801561001557600080fd5b5061068d806100256000396000f3fe608060405234801561001057600080fd5b50600436106100b45760003560e01c80636671df87116100715780636671df871461017f5780636c45a79c1461019d57806376dad223146101bd578063771602f7146101db57806379697ecc1461020b578063bf205ebc14610229576100b4565b8063148bc9e2146100b957806320d6e703146100d757806329fcda33146100f55780633fb5c1cb14610125578063448f30a314610141578063513e18ce14610161575b600080fd5b6100c1610247565b6040516100ce91906104cc565b60405180910390f35b6100df610256565b6040516100ec91906104cc565b60405180910390f35b61010f600480360381019061010a9190610435565b610265565b60405161011c91906104ee565b60405180910390f35b61013f600480360381019061013a9190610408565b61027b565b005b610149610285565b60405161015893929190610509565b60405180910390f35b61016961029b565b60405161017691906104cc565b60405180910390f35b6101876102aa565b60405161019491906104cc565b60405180910390f35b6101a56102b9565b6040516101b493929190610509565b60405180910390f35b6101c56102cf565b6040516101d291906104ee565b60405180910390f35b6101f560048036038101906101f09190610435565b6102d8565b60405161020291906104ee565b60405180910390f35b6102136102f9565b60405161022091906104cc565b60405180910390f35b610231610336565b60405161023e91906104ee565b60405180910390f35b60606102516102f9565b905090565b606061026061033c565b905090565b60008183610273919061055c565b905092915050565b8060008190555050565b6000806000600560016000925092509250909192565b60606102a5610379565b905090565b60606102b46103b6565b905090565b6000806000600192506000915060019050909192565b60008054905090565b60004282846102e7919061055c565b6102f1919061055c565b905092915050565b60606040518060400160405280601a81526020017f546869732069732061207075626c69632066756e6374696f6e2e000000000000815250905090565b60005481565b60606040518060400160405280601a81526020017f5468697320697320696e7465726e616c2066756e6374696f6e2e000000000000815250905090565b60606040518060400160405280601b81526020017f54686973206973206120707269766174652066756e6374696f6e2e0000000000815250905090565b60606040518060400160405280601a81526020017f546869732069732065787465726e616c2066756e6374696f6e2e000000000000815250905090565b60008135905061040281610640565b92915050565b60006020828403121561041e5761041d61062a565b5b600061042c848285016103f3565b91505092915050565b6000806040838503121561044c5761044b61062a565b5b600061045a858286016103f3565b925050602061046b858286016103f3565b9150509250929050565b61047e816105b2565b82525050565b600061048f82610540565b610499818561054b565b93506104a98185602086016105c8565b6104b28161062f565b840191505092915050565b6104c6816105be565b82525050565b600060208201905081810360008301526104e68184610484565b905092915050565b600060208201905061050360008301846104bd565b92915050565b600060608201905061051e60008301866104bd565b61052b6020830185610475565b6105386040830184610475565b949350505050565b600081519050919050565b600082825260208201905092915050565b6000610567826105be565b9150610572836105be565b9250827fffffffffffffffffffffffffffffffffffffffffffffffffffffffffffffffff038211156105a7576105a66105fb565b5b828201905092915050565b60008115159050919050565b6000819050919050565b60005b838110156105e65780820151818401526020810190506105cb565b838111156105f5576000848401525b50505050565b7f4e487b7100000000000000000000000000000000000000000000000000000000600052601160045260246000fd5b600080fd5b6000601f19601f8301169050919050565b610649816105be565b811461065457600080fd5b5056fea2646970667358221220e2fc89a0cf38854a8ca06c79d0e949b71b5975b96a99215635964a798418e45164736f6c63430008070033",
			"opcodes": "PUSH1 0x80 PUSH1 0x40 MSTORE PUSH1 0x7 PUSH1 0x0 SSTORE CALLVALUE DUP1 ISZERO PUSH2 0x15 JUMPI PUSH1 0x0 DUP1 REVERT JUMPDEST POP PUSH2 0x68D DUP1 PUSH2 0x25 PUSH1 0x0 CODECOPY PUSH1 0x0 RETURN INVALID PUSH1 0x80 PUSH1 0x40 MSTORE CALLVALUE DUP1 ISZERO PUSH2 0x10 JUMPI PUSH1 0x0 DUP1 REVERT JUMPDEST POP PUSH1 0x4 CALLDATASIZE LT PUSH2 0xB4 JUMPI PUSH1 0x0 CALLDATALOAD PUSH1 0xE0 SHR DUP1 PUSH4 0x6671DF87 GT PUSH2 0x71 JUMPI DUP1 PUSH4 0x6671DF87 EQ PUSH2 0x17F JUMPI DUP1 PUSH4 0x6C45A79C EQ PUSH2 0x19D JUMPI DUP1 PUSH4 0x76DAD223 EQ PUSH2 0x1BD JUMPI DUP1 PUSH4 0x771602F7 EQ PUSH2 0x1DB JUMPI DUP1 PUSH4 0x79697ECC EQ PUSH2 0x20B JUMPI DUP1 PUSH4 0xBF205EBC EQ PUSH2 0x229 JUMPI PUSH2 0xB4 JUMP JUMPDEST DUP1 PUSH4 0x148BC9E2 EQ PUSH2 0xB9 JUMPI DUP1 PUSH4 0x20D6E703 EQ PUSH2 0xD7 JUMPI DUP1 PUSH4 0x29FCDA33 EQ PUSH2 0xF5 JUMPI DUP1 PUSH4 0x3FB5C1CB EQ PUSH2 0x125 JUMPI DUP1 PUSH4 0x448F30A3 EQ PUSH2 0x141 JUMPI DUP1 PUSH4 0x513E18CE EQ PUSH2 0x161 JUMPI JUMPDEST PUSH1 0x0 DUP1 REVERT JUMPDEST PUSH2 0xC1 PUSH2 0x247 JUMP JUMPDEST PUSH1 0x40 MLOAD PUSH2 0xCE SWAP2 SWAP1 PUSH2 0x4CC JUMP JUMPDEST PUSH1 0x40 MLOAD DUP1 SWAP2 SUB SWAP1 RETURN JUMPDEST PUSH2 0xDF PUSH2 0x256 JUMP JUMPDEST PUSH1 0x40 MLOAD PUSH2 0xEC SWAP2 SWAP1 PUSH2 0x4CC JUMP JUMPDEST PUSH1 0x40 MLOAD DUP1 SWAP2 SUB SWAP1 RETURN JUMPDEST PUSH2 0x10F PUSH1 0x4 DUP1 CALLDATASIZE SUB DUP2 ADD SWAP1 PUSH2 0x10A SWAP2 SWAP1 PUSH2 0x435 JUMP JUMPDEST PUSH2 0x265 JUMP JUMPDEST PUSH1 0x40 MLOAD PUSH2 0x11C SWAP2 SWAP1 PUSH2 0x4EE JUMP JUMPDEST PUSH1 0x40 MLOAD DUP1 SWAP2 SUB SWAP1 RETURN JUMPDEST PUSH2 0x13F PUSH1 0x4 DUP1 CALLDATASIZE SUB DUP2 ADD SWAP1 PUSH2 0x13A SWAP2 SWAP1 PUSH2 0x408 JUMP JUMPDEST PUSH2 0x27B JUMP JUMPDEST STOP JUMPDEST PUSH2 0x149 PUSH2 0x285 JUMP JUMPDEST PUSH1 0x40 MLOAD PUSH2 0x158 SWAP4 SWAP3 SWAP2 SWAP1 PUSH2 0x509 JUMP JUMPDEST PUSH1 0x40 MLOAD DUP1 SWAP2 SUB SWAP1 RETURN JUMPDEST PUSH2 0x169 PUSH2 0x29B JUMP JUMPDEST PUSH1 0x40 MLOAD PUSH2 0x176 SWAP2 SWAP1 PUSH2 0x4CC JUMP JUMPDEST PUSH1 0x40 MLOAD DUP1 SWAP2 SUB SWAP1 RETURN JUMPDEST PUSH2 0x187 PUSH2 0x2AA JUMP JUMPDEST PUSH1 0x40 MLOAD PUSH2 0x194 SWAP2 SWAP1 PUSH2 0x4CC JUMP JUMPDEST PUSH1 0x40 MLOAD DUP1 SWAP2 SUB SWAP1 RETURN JUMPDEST PUSH2 0x1A5 PUSH2 0x2B9 JUMP JUMPDEST PUSH1 0x40 MLOAD PUSH2 0x1B4 SWAP4 SWAP3 SWAP2 SWAP1 PUSH2 0x509 JUMP JUMPDEST PUSH1 0x40 MLOAD DUP1 SWAP2 SUB SWAP1 RETURN JUMPDEST PUSH2 0x1C5 PUSH2 0x2CF JUMP JUMPDEST PUSH1 0x40 MLOAD PUSH2 0x1D2 SWAP2 SWAP1 PUSH2 0x4EE JUMP JUMPDEST PUSH1 0x40 MLOAD DUP1 SWAP2 SUB SWAP1 RETURN JUMPDEST PUSH2 0x1F5 PUSH1 0x4 DUP1 CALLDATASIZE SUB DUP2 ADD SWAP1 PUSH2 0x1F0 SWAP2 SWAP1 PUSH2 0x435 JUMP JUMPDEST PUSH2 0x2D8 JUMP JUMPDEST PUSH1 0x40 MLOAD PUSH2 0x202 SWAP2 SWAP1 PUSH2 0x4EE JUMP JUMPDEST PUSH1 0x40 MLOAD DUP1 SWAP2 SUB SWAP1 RETURN JUMPDEST PUSH2 0x213 PUSH2 0x2F9 JUMP JUMPDEST PUSH1 0x40 MLOAD PUSH2 0x220 SWAP2 SWAP1 PUSH2 0x4CC JUMP JUMPDEST PUSH1 0x40 MLOAD DUP1 SWAP2 SUB SWAP1 RETURN JUMPDEST PUSH2 0x231 PUSH2 0x336 JUMP JUMPDEST PUSH1 0x40 MLOAD PUSH2 0x23E SWAP2 SWAP1 PUSH2 0x4EE JUMP JUMPDEST PUSH1 0x40 MLOAD DUP1 SWAP2 SUB SWAP1 RETURN JUMPDEST PUSH1 0x60 PUSH2 0x251 PUSH2 0x2F9 JUMP JUMPDEST SWAP1 POP SWAP1 JUMP JUMPDEST PUSH1 0x60 PUSH2 0x260 PUSH2 0x33C JUMP JUMPDEST SWAP1 POP SWAP1 JUMP JUMPDEST PUSH1 0x0 DUP2 DUP4 PUSH2 0x273 SWAP2 SWAP1 PUSH2 0x55C JUMP JUMPDEST SWAP1 POP SWAP3 SWAP2 POP POP JUMP JUMPDEST DUP1 PUSH1 0x0 DUP2 SWAP1 SSTORE POP POP JUMP JUMPDEST PUSH1 0x0 DUP1 PUSH1 0x0 PUSH1 0x5 PUSH1 0x1 PUSH1 0x0 SWAP3 POP SWAP3 POP SWAP3 POP SWAP1 SWAP2 SWAP3 JUMP JUMPDEST PUSH1 0x60 PUSH2 0x2A5 PUSH2 0x379 JUMP JUMPDEST SWAP1 POP SWAP1 JUMP JUMPDEST PUSH1 0x60 PUSH2 0x2B4 PUSH2 0x3B6 JUMP JUMPDEST SWAP1 POP SWAP1 JUMP JUMPDEST PUSH1 0x0 DUP1 PUSH1 0x0 PUSH1 0x1 SWAP3 POP PUSH1 0x0 SWAP2 POP PUSH1 0x1 SWAP1 POP SWAP1 SWAP2 SWAP3 JUMP JUMPDEST PUSH1 0x0 DUP1 SLOAD SWAP1 POP SWAP1 JUMP JUMPDEST PUSH1 0x0 TIMESTAMP DUP3 DUP5 PUSH2 0x2E7 SWAP2 SWAP1 PUSH2 0x55C JUMP JUMPDEST PUSH2 0x2F1 SWAP2 SWAP1 PUSH2 0x55C JUMP JUMPDEST SWAP1 POP SWAP3 SWAP2 POP POP JUMP JUMPDEST PUSH1 0x60 PUSH1 0x40 MLOAD DUP1 PUSH1 0x40 ADD PUSH1 0x40 MSTORE DUP1 PUSH1 0x1A DUP2 MSTORE PUSH1 0x20 ADD PUSH32 0x546869732069732061207075626C69632066756E6374696F6E2E000000000000 DUP2 MSTORE POP SWAP1 POP SWAP1 JUMP JUMPDEST PUSH1 0x0 SLOAD DUP2 JUMP JUMPDEST PUSH1 0x60 PUSH1 0x40 MLOAD DUP1 PUSH1 0x40 ADD PUSH1 0x40 MSTORE DUP1 PUSH1 0x1A DUP2 MSTORE PUSH1 0x20 ADD PUSH32 0x5468697320697320696E7465726E616C2066756E6374696F6E2E000000000000 DUP2 MSTORE POP SWAP1 POP SWAP1 JUMP JUMPDEST PUSH1 0x60 PUSH1 0x40 MLOAD DUP1 PUSH1 0x40 ADD PUSH1 0x40 MSTORE DUP1 PUSH1 0x1B DUP2 MSTORE PUSH1 0x20 ADD PUSH32 0x54686973206973206120707269766174652066756E6374696F6E2E0000000000 DUP2 MSTORE POP SWAP1 POP SWAP1 JUMP JUMPDEST PUSH1 0x60 PUSH1 0x40 MLOAD DUP1 PUSH1 0x40 ADD PUSH1 0x40 MSTORE DUP1 PUSH1 0x1A DUP2 MSTORE PUSH1 0x20 ADD PUSH32 0x546869732069732065787465726E616C2066756E6374696F6E2E000000000000 DUP2 MSTORE POP SWAP1 POP SWAP1 JUMP JUMPDEST PUSH1 0x0 DUP2 CALLDATALOAD SWAP1 POP PUSH2 0x402 DUP2 PUSH2 0x640 JUMP JUMPDEST SWAP3 SWAP2 POP POP JUMP JUMPDEST PUSH1 0x0 PUSH1 0x20 DUP3 DUP5 SUB SLT ISZERO PUSH2 0x41E JUMPI PUSH2 0x41D PUSH2 0x62A JUMP JUMPDEST JUMPDEST PUSH1 0x0 PUSH2 0x42C DUP5 DUP3 DUP6 ADD PUSH2 0x3F3 JUMP JUMPDEST SWAP2 POP POP SWAP3 SWAP2 POP POP JUMP JUMPDEST PUSH1 0x0 DUP1 PUSH1 0x40 DUP4 DUP6 SUB SLT ISZERO PUSH2 0x44C JUMPI PUSH2 0x44B PUSH2 0x62A JUMP JUMPDEST JUMPDEST PUSH1 0x0 PUSH2 0x45A DUP6 DUP3 DUP7 ADD PUSH2 0x3F3 JUMP JUMPDEST SWAP3 POP POP PUSH1 0x20 PUSH2 0x46B DUP6 DUP3 DUP7 ADD PUSH2 0x3F3 JUMP JUMPDEST SWAP2 POP POP SWAP3 POP SWAP3 SWAP1 POP JUMP JUMPDEST PUSH2 0x47E DUP2 PUSH2 0x5B2 JUMP JUMPDEST DUP3 MSTORE POP POP JUMP JUMPDEST PUSH1 0x0 PUSH2 0x48F DUP3 PUSH2 0x540 JUMP JUMPDEST PUSH2 0x499 DUP2 DUP6 PUSH2 0x54B JUMP JUMPDEST SWAP4 POP PUSH2 0x4A9 DUP2 DUP6 PUSH1 0x20 DUP7 ADD PUSH2 0x5C8 JUMP JUMPDEST PUSH2 0x4B2 DUP2 PUSH2 0x62F JUMP JUMPDEST DUP5 ADD SWAP2 POP POP SWAP3 SWAP2 POP POP JUMP JUMPDEST PUSH2 0x4C6 DUP2 PUSH2 0x5BE JUMP JUMPDEST DUP3 MSTORE POP POP JUMP JUMPDEST PUSH1 0x0 PUSH1 0x20 DUP3 ADD SWAP1 POP DUP2 DUP2 SUB PUSH1 0x0 DUP4 ADD MSTORE PUSH2 0x4E6 DUP2 DUP5 PUSH2 0x484 JUMP JUMPDEST SWAP1 POP SWAP3 SWAP2 POP POP JUMP JUMPDEST PUSH1 0x0 PUSH1 0x20 DUP3 ADD SWAP1 POP PUSH2 0x503 PUSH1 0x0 DUP4 ADD DUP5 PUSH2 0x4BD JUMP JUMPDEST SWAP3 SWAP2 POP POP JUMP JUMPDEST PUSH1 0x0 PUSH1 0x60 DUP3 ADD SWAP1 POP PUSH2 0x51E PUSH1 0x0 DUP4 ADD DUP7 PUSH2 0x4BD JUMP JUMPDEST PUSH2 0x52B PUSH1 0x20 DUP4 ADD DUP6 PUSH2 0x475 JUMP JUMPDEST PUSH2 0x538 PUSH1 0x40 DUP4 ADD DUP5 PUSH2 0x475 JUMP JUMPDEST SWAP5 SWAP4 POP POP POP POP JUMP JUMPDEST PUSH1 0x0 DUP2 MLOAD SWAP1 POP SWAP2 SWAP1 POP JUMP JUMPDEST PUSH1 0x0 DUP3 DUP3 MSTORE PUSH1 0x20 DUP3 ADD SWAP1 POP SWAP3 SWAP2 POP POP JUMP JUMPDEST PUSH1 0x0 PUSH2 0x567 DUP3 PUSH2 0x5BE JUMP JUMPDEST SWAP2 POP PUSH2 0x572 DUP4 PUSH2 0x5BE JUMP JUMPDEST SWAP3 POP DUP3 PUSH32 0xFFFFFFFFFFFFFFFFFFFFFFFFFFFFFFFFFFFFFFFFFFFFFFFFFFFFFFFFFFFFFFFF SUB DUP3 GT ISZERO PUSH2 0x5A7 JUMPI PUSH2 0x5A6 PUSH2 0x5FB JUMP JUMPDEST JUMPDEST DUP3 DUP3 ADD SWAP1 POP SWAP3 SWAP2 POP POP JUMP JUMPDEST PUSH1 0x0 DUP2 ISZERO ISZERO SWAP1 POP SWAP2 SWAP1 POP JUMP JUMPDEST PUSH1 0x0 DUP2 SWAP1 POP SWAP2 SWAP1 POP JUMP JUMPDEST PUSH1 0x0 JUMPDEST DUP4 DUP2 LT ISZERO PUSH2 0x5E6 JUMPI DUP1 DUP3 ADD MLOAD DUP2 DUP5 ADD MSTORE PUSH1 0x20 DUP2 ADD SWAP1 POP PUSH2 0x5CB JUMP JUMPDEST DUP4 DUP2 GT ISZERO PUSH2 0x5F5 JUMPI PUSH1 0x0 DUP5 DUP5 ADD MSTORE JUMPDEST POP POP POP POP JUMP JUMPDEST PUSH32 0x4E487B7100000000000000000000000000000000000000000000000000000000 PUSH1 0x0 MSTORE PUSH1 0x11 PUSH1 0x4 MSTORE PUSH1 0x24 PUSH1 0x0 REVERT JUMPDEST PUSH1 0x0 DUP1 REVERT JUMPDEST PUSH1 0x0 PUSH1 0x1F NOT PUSH1 0x1F DUP4 ADD AND SWAP1 POP SWAP2 SWAP1 POP JUMP JUMPDEST PUSH2 0x649 DUP2 PUSH2 0x5BE JUMP JUMPDEST DUP2 EQ PUSH2 0x654 JUMPI PUSH1 0x0 DUP1 REVERT JUMPDEST POP JUMP INVALID LOG2 PUSH5 0x6970667358 0x22 SLT KECCAK256 0xE2 0xFC DUP10 LOG0 0xCF CODESIZE DUP6 0x4A DUP13 LOG0 PUSH13 0x79D0E949B71B5975B96A992156 CALLDATALOAD SWAP7 0x4A PUSH26 0x8418E45164736F6C634300080700330000000000000000000000 "
		},
		"gasEstimates": {
			"creation": {
				"codeDepositCost": "335400",
				"executionCost": "22480",
				"totalCost": "357880"
			},
			"external": {
				"add(uint256,uint256)": "infinite",
				"add2(uint256,uint256)": "infinite",
				"callExternalKeyword()": "infinite",
				"callInternalKeyword()": "infinite",
				"callPrivateKeyword()": "infinite",
				"callPublicKeyword()": "infinite",
				"luckyNumber()": "2539",
				"nothing()": "infinite",
				"nothing2()": "infinite",
				"publicKeyword()": "infinite",
				"setNumber(uint256)": "22587",
				"showNumber()": "2481"
			},
			"internal": {
				"externalKeyword()": "infinite",
				"internalKeyword()": "infinite",
				"privateKeyword()": "infinite"
			}
		},
		"methodIdentifiers": {
			"add(uint256,uint256)": "771602f7",
			"add2(uint256,uint256)": "29fcda33",
			"callExternalKeyword()": "6671df87",
			"callInternalKeyword()": "20d6e703",
			"callPrivateKeyword()": "513e18ce",
			"callPublicKeyword()": "148bc9e2",
			"luckyNumber()": "bf205ebc",
			"nothing()": "448f30a3",
			"nothing2()": "6c45a79c",
			"publicKeyword()": "79697ecc",
			"setNumber(uint256)": "3fb5c1cb",
			"showNumber()": "76dad223"
		}
	},
	"abi": [
		{
			"inputs": [
				{
					"internalType": "uint256",
					"name": "a",
					"type": "uint256"
				},
				{
					"internalType": "uint256",
					"name": "b",
					"type": "uint256"
				}
			],
			"name": "add",
			"outputs": [
				{
					"internalType": "uint256",
					"name": "",
					"type": "uint256"
				}
			],
			"stateMutability": "view",
			"type": "function"
		},
		{
			"inputs": [
				{
					"internalType": "uint256",
					"name": "a",
					"type": "uint256"
				},
				{
					"internalType": "uint256",
					"name": "b",
					"type": "uint256"
				}
			],
			"name": "add2",
			"outputs": [
				{
					"internalType": "uint256",
					"name": "",
					"type": "uint256"
				}
			],
			"stateMutability": "pure",
			"type": "function"
		},
		{
			"inputs": [],
			"name": "callExternalKeyword",
			"outputs": [
				{
					"internalType": "string",
					"name": "",
					"type": "string"
				}
			],
			"stateMutability": "pure",
			"type": "function"
		},
		{
			"inputs": [],
			"name": "callInternalKeyword",
			"outputs": [
				{
					"internalType": "string",
					"name": "",
					"type": "string"
				}
			],
			"stateMutability": "pure",
			"type": "function"
		},
		{
			"inputs": [],
			"name": "callPrivateKeyword",
			"outputs": [
				{
					"internalType": "string",
					"name": "",
					"type": "string"
				}
			],
			"stateMutability": "pure",
			"type": "function"
		},
		{
			"inputs": [],
			"name": "callPublicKeyword",
			"outputs": [
				{
					"internalType": "string",
					"name": "",
					"type": "string"
				}
			],
			"stateMutability": "pure",
			"type": "function"
		},
		{
			"inputs": [],
			"name": "luckyNumber",
			"outputs": [
				{
					"internalType": "uint256",
					"name": "",
					"type": "uint256"
				}
			],
			"stateMutability": "view",
			"type": "function"
		},
		{
			"inputs": [],
			"name": "nothing",
			"outputs": [
				{
					"internalType": "uint256",
					"name": "",
					"type": "uint256"
				},
				{
					"internalType": "bool",
					"name": "",
					"type": "bool"
				},
				{
					"internalType": "bool",
					"name": "",
					"type": "bool"
				}
			],
			"stateMutability": "pure",
			"type": "function"
		},
		{
			"inputs": [],
			"name": "nothing2",
			"outputs": [
				{
					"internalType": "uint256",
					"name": "x",
					"type": "uint256"
				},
				{
					"internalType": "bool",
					"name": "y",
					"type": "bool"
				},
				{
					"internalType": "bool",
					"name": "z",
					"type": "bool"
				}
			],
			"stateMutability": "pure",
			"type": "function"
		},
		{
			"inputs": [],
			"name": "publicKeyword",
			"outputs": [
				{
					"internalType": "string",
					"name": "",
					"type": "string"
				}
			],
			"stateMutability": "pure",
			"type": "function"
		},
		{
			"inputs": [
				{
					"internalType": "uint256",
					"name": "newNumber",
					"type": "uint256"
				}
			],
			"name": "setNumber",
			"outputs": [],
			"stateMutability": "nonpayable",
			"type": "function"
		},
		{
			"inputs": [],
			"name": "showNumber",
			"outputs": [
				{
					"internalType": "uint256",
					"name": "",
					"type": "uint256"
				}
			],
			"stateMutability": "view",
			"type": "function"
		}
	]
}