{
	"data": {
		"bytecode": {
			"linkReferences": {},
			"object": "610518610053600b82828239805160001a607314610046577f4e487b7100000000000000000000000000000000000000000000000000000000600052600060045260246000fd5b30600052607381538281f3fe730000000000000000000000000000000000000000301460806040526004361061006c5760003560e01c80635171762c1461007157806366098d4f146100a15780636d5433e6146100d15780637ae2b5c714610101578063f4f3bdc114610131578063f88e9fbf14610161575b600080fd5b61008b6004803603810190610086919061029c565b610191565b60405161009891906102eb565b60405180910390f35b6100bb60048036038101906100b6919061029c565b6101a7565b6040516100c891906102eb565b60405180910390f35b6100eb60048036038101906100e6919061029c565b6101bd565b6040516100f891906102eb565b60405180910390f35b61011b6004803603810190610116919061029c565b6101d8565b60405161012891906102eb565b60405180910390f35b61014b6004803603810190610146919061029c565b6101f3565b60405161015891906102eb565b60405180910390f35b61017b6004803603810190610176919061029c565b610209565b60405161018891906102eb565b60405180910390f35b6000818361019f9190610335565b905092915050565b600081836101b59190610377565b905092915050565b60008183106101ce578290506101d2565b8190505b92915050565b60008183116101e9578290506101ed565b8190505b92915050565b6000818361020191906103ab565b905092915050565b600080820361024d576040517f08c379a000000000000000000000000000000000000000000000000000000000815260040161024490610462565b60405180910390fd5b818361025991906104b1565b905092915050565b600080fd5b6000819050919050565b61027981610266565b811461028457600080fd5b50565b60008135905061029681610270565b92915050565b600080604083850312156102b3576102b2610261565b5b60006102c185828601610287565b92505060206102d285828601610287565b9150509250929050565b6102e581610266565b82525050565b600060208201905061030060008301846102dc565b92915050565b7f4e487b7100000000000000000000000000000000000000000000000000000000600052601160045260246000fd5b600061034082610266565b915061034b83610266565b925082820261035981610266565b915082820484148315176103705761036f610306565b5b5092915050565b600061038282610266565b915061038d83610266565b92508282019050808211156103a5576103a4610306565b5b92915050565b60006103b682610266565b91506103c183610266565b92508282039050818111156103d9576103d8610306565b5b92915050565b600082825260208201905092915050565b7f416e79206e756d626572206973206e6f742064697669646564206279207a657260008201527f6f2e000000000000000000000000000000000000000000000000000000000000602082015250565b600061044c6022836103df565b9150610457826103f0565b604082019050919050565b6000602082019050818103600083015261047b8161043f565b9050919050565b7f4e487b7100000000000000000000000000000000000000000000000000000000600052601260045260246000fd5b60006104bc82610266565b91506104c783610266565b9250826104d7576104d6610482565b5b82820490509291505056fea26469706673582212203fd21b913c947a4b4f387dd445479f2e427e71a5540a4157ca35036d3336a54e64736f6c63430008120033",
			"opcodes": "PUSH2 0x518 PUSH2 0x53 PUSH1 0xB DUP3 DUP3 DUP3 CODECOPY DUP1 MLOAD PUSH1 0x0 BYTE PUSH1 0x73 EQ PUSH2 0x46 JUMPI PUSH32 0x4E487B7100000000000000000000000000000000000000000000000000000000 PUSH1 0x0 MSTORE PUSH1 0x0 PUSH1 0x4 MSTORE PUSH1 0x24 PUSH1 0x0 REVERT JUMPDEST ADDRESS PUSH1 0x0 MSTORE PUSH1 0x73 DUP2 MSTORE8 DUP3 DUP2 RETURN INVALID PUSH20 0x0 ADDRESS EQ PUSH1 0x80 PUSH1 0x40 MSTORE PUSH1 0x4 CALLDATASIZE LT PUSH2 0x6C JUMPI PUSH1 0x0 CALLDATALOAD PUSH1 0xE0 SHR DUP1 PUSH4 0x5171762C EQ PUSH2 0x71 JUMPI DUP1 PUSH4 0x66098D4F EQ PUSH2 0xA1 JUMPI DUP1 PUSH4 0x6D5433E6 EQ PUSH2 0xD1 JUMPI DUP1 PUSH4 0x7AE2B5C7 EQ PUSH2 0x101 JUMPI DUP1 PUSH4 0xF4F3BDC1 EQ PUSH2 0x131 JUMPI DUP1 PUSH4 0xF88E9FBF EQ PUSH2 0x161 JUMPI JUMPDEST PUSH1 0x0 DUP1 REVERT JUMPDEST PUSH2 0x8B PUSH1 0x4 DUP1 CALLDATASIZE SUB DUP2 ADD SWAP1 PUSH2 0x86 SWAP2 SWAP1 PUSH2 0x29C JUMP JUMPDEST PUSH2 0x191 JUMP JUMPDEST PUSH1 0x40 MLOAD PUSH2 0x98 SWAP2 SWAP1 PUSH2 0x2EB JUMP JUMPDEST PUSH1 0x40 MLOAD DUP1 SWAP2 SUB SWAP1 RETURN JUMPDEST PUSH2 0xBB PUSH1 0x4 DUP1 CALLDATASIZE SUB DUP2 ADD SWAP1 PUSH2 0xB6 SWAP2 SWAP1 PUSH2 0x29C JUMP JUMPDEST PUSH2 0x1A7 JUMP JUMPDEST PUSH1 0x40 MLOAD PUSH2 0xC8 SWAP2 SWAP1 PUSH2 0x2EB JUMP JUMPDEST PUSH1 0x40 MLOAD DUP1 SWAP2 SUB SWAP1 RETURN JUMPDEST PUSH2 0xEB PUSH1 0x4 DUP1 CALLDATASIZE SUB DUP2 ADD SWAP1 PUSH2 0xE6 SWAP2 SWAP1 PUSH2 0x29C JUMP JUMPDEST PUSH2 0x1BD JUMP JUMPDEST PUSH1 0x40 MLOAD PUSH2 0xF8 SWAP2 SWAP1 PUSH2 0x2EB JUMP JUMPDEST PUSH1 0x40 MLOAD DUP1 SWAP2 SUB SWAP1 RETURN JUMPDEST PUSH2 0x11B PUSH1 0x4 DUP1 CALLDATASIZE SUB DUP2 ADD SWAP1 PUSH2 0x116 SWAP2 SWAP1 PUSH2 0x29C JUMP JUMPDEST PUSH2 0x1D8 JUMP JUMPDEST PUSH1 0x40 MLOAD PUSH2 0x128 SWAP2 SWAP1 PUSH2 0x2EB JUMP JUMPDEST PUSH1 0x40 MLOAD DUP1 SWAP2 SUB SWAP1 RETURN JUMPDEST PUSH2 0x14B PUSH1 0x4 DUP1 CALLDATASIZE SUB DUP2 ADD SWAP1 PUSH2 0x146 SWAP2 SWAP1 PUSH2 0x29C JUMP JUMPDEST PUSH2 0x1F3 JUMP JUMPDEST PUSH1 0x40 MLOAD PUSH2 0x158 SWAP2 SWAP1 PUSH2 0x2EB JUMP JUMPDEST PUSH1 0x40 MLOAD DUP1 SWAP2 SUB SWAP1 RETURN JUMPDEST PUSH2 0x17B PUSH1 0x4 DUP1 CALLDATASIZE SUB DUP2 ADD SWAP1 PUSH2 0x176 SWAP2 SWAP1 PUSH2 0x29C JUMP JUMPDEST PUSH2 0x209 JUMP JUMPDEST PUSH1 0x40 MLOAD PUSH2 0x188 SWAP2 SWAP1 PUSH2 0x2EB JUMP JUMPDEST PUSH1 0x40 MLOAD DUP1 SWAP2 SUB SWAP1 RETURN JUMPDEST PUSH1 0x0 DUP2 DUP4 PUSH2 0x19F SWAP2 SWAP1 PUSH2 0x335 JUMP JUMPDEST SWAP1 POP SWAP3 SWAP2 POP POP JUMP JUMPDEST PUSH1 0x0 DUP2 DUP4 PUSH2 0x1B5 SWAP2 SWAP1 PUSH2 0x377 JUMP JUMPDEST SWAP1 POP SWAP3 SWAP2 POP POP JUMP JUMPDEST PUSH1 0x0 DUP2 DUP4 LT PUSH2 0x1CE JUMPI DUP3 SWAP1 POP PUSH2 0x1D2 JUMP JUMPDEST DUP2 SWAP1 POP JUMPDEST SWAP3 SWAP2 POP POP JUMP JUMPDEST PUSH1 0x0 DUP2 DUP4 GT PUSH2 0x1E9 JUMPI DUP3 SWAP1 POP PUSH2 0x1ED JUMP JUMPDEST DUP2 SWAP1 POP JUMPDEST SWAP3 SWAP2 POP POP JUMP JUMPDEST PUSH1 0x0 DUP2 DUP4 PUSH2 0x201 SWAP2 SWAP1 PUSH2 0x3AB JUMP JUMPDEST SWAP1 POP SWAP3 SWAP2 POP POP JUMP JUMPDEST PUSH1 0x0 DUP1 DUP3 SUB PUSH2 0x24D JUMPI PUSH1 0x40 MLOAD PUSH32 0x8C379A000000000000000000000000000000000000000000000000000000000 DUP2 MSTORE PUSH1 0x4 ADD PUSH2 0x244 SWAP1 PUSH2 0x462 JUMP JUMPDEST PUSH1 0x40 MLOAD DUP1 SWAP2 SUB SWAP1 REVERT JUMPDEST DUP2 DUP4 PUSH2 0x259 SWAP2 SWAP1 PUSH2 0x4B1 JUMP JUMPDEST SWAP1 POP SWAP3 SWAP2 POP POP JUMP JUMPDEST PUSH1 0x0 DUP1 REVERT JUMPDEST PUSH1 0x0 DUP2 SWAP1 POP SWAP2 SWAP1 POP JUMP JUMPDEST PUSH2 0x279 DUP2 PUSH2 0x266 JUMP JUMPDEST DUP2 EQ PUSH2 0x284 JUMPI PUSH1 0x0 DUP1 REVERT JUMPDEST POP JUMP JUMPDEST PUSH1 0x0 DUP2 CALLDATALOAD SWAP1 POP PUSH2 0x296 DUP2 PUSH2 0x270 JUMP JUMPDEST SWAP3 SWAP2 POP POP JUMP JUMPDEST PUSH1 0x0 DUP1 PUSH1 0x40 DUP4 DUP6 SUB SLT ISZERO PUSH2 0x2B3 JUMPI PUSH2 0x2B2 PUSH2 0x261 JUMP JUMPDEST JUMPDEST PUSH1 0x0 PUSH2 0x2C1 DUP6 DUP3 DUP7 ADD PUSH2 0x287 JUMP JUMPDEST SWAP3 POP POP PUSH1 0x20 PUSH2 0x2D2 DUP6 DUP3 DUP7 ADD PUSH2 0x287 JUMP JUMPDEST SWAP2 POP POP SWAP3 POP SWAP3 SWAP1 POP JUMP JUMPDEST PUSH2 0x2E5 DUP2 PUSH2 0x266 JUMP JUMPDEST DUP3 MSTORE POP POP JUMP JUMPDEST PUSH1 0x0 PUSH1 0x20 DUP3 ADD SWAP1 POP PUSH2 0x300 PUSH1 0x0 DUP4 ADD DUP5 PUSH2 0x2DC JUMP JUMPDEST SWAP3 SWAP2 POP POP JUMP JUMPDEST PUSH32 0x4E487B7100000000000000000000000000000000000000000000000000000000 PUSH1 0x0 MSTORE PUSH1 0x11 PUSH1 0x4 MSTORE PUSH1 0x24 PUSH1 0x0 REVERT JUMPDEST PUSH1 0x0 PUSH2 0x340 DUP3 PUSH2 0x266 JUMP JUMPDEST SWAP2 POP PUSH2 0x34B DUP4 PUSH2 0x266 JUMP JUMPDEST SWAP3 POP DUP3 DUP3 MUL PUSH2 0x359 DUP2 PUSH2 0x266 JUMP JUMPDEST SWAP2 POP DUP3 DUP3 DIV DUP5 EQ DUP4 ISZERO OR PUSH2 0x370 JUMPI PUSH2 0x36F PUSH2 0x306 JUMP JUMPDEST JUMPDEST POP SWAP3 SWAP2 POP POP JUMP JUMPDEST PUSH1 0x0 PUSH2 0x382 DUP3 PUSH2 0x266 JUMP JUMPDEST SWAP2 POP PUSH2 0x38D DUP4 PUSH2 0x266 JUMP JUMPDEST SWAP3 POP DUP3 DUP3 ADD SWAP1 POP DUP1 DUP3 GT ISZERO PUSH2 0x3A5 JUMPI PUSH2 0x3A4 PUSH2 0x306 JUMP JUMPDEST JUMPDEST SWAP3 SWAP2 POP POP JUMP JUMPDEST PUSH1 0x0 PUSH2 0x3B6 DUP3 PUSH2 0x266 JUMP JUMPDEST SWAP2 POP PUSH2 0x3C1 DUP4 PUSH2 0x266 JUMP JUMPDEST SWAP3 POP DUP3 DUP3 SUB SWAP1 POP DUP2 DUP2 GT ISZERO PUSH2 0x3D9 JUMPI PUSH2 0x3D8 PUSH2 0x306 JUMP JUMPDEST JUMPDEST SWAP3 SWAP2 POP POP JUMP JUMPDEST PUSH1 0x0 DUP3 DUP3 MSTORE PUSH1 0x20 DUP3 ADD SWAP1 POP SWAP3 SWAP2 POP POP JUMP JUMPDEST PUSH32 0x416E79206E756D626572206973206E6F742064697669646564206279207A6572 PUSH1 0x0 DUP3 ADD MSTORE PUSH32 0x6F2E000000000000000000000000000000000000000000000000000000000000 PUSH1 0x20 DUP3 ADD MSTORE POP JUMP JUMPDEST PUSH1 0x0 PUSH2 0x44C PUSH1 0x22 DUP4 PUSH2 0x3DF JUMP JUMPDEST SWAP2 POP PUSH2 0x457 DUP3 PUSH2 0x3F0 JUMP JUMPDEST PUSH1 0x40 DUP3 ADD SWAP1 POP SWAP2 SWAP1 POP JUMP JUMPDEST PUSH1 0x0 PUSH1 0x20 DUP3 ADD SWAP1 POP DUP2 DUP2 SUB PUSH1 0x0 DUP4 ADD MSTORE PUSH2 0x47B DUP2 PUSH2 0x43F JUMP JUMPDEST SWAP1 POP SWAP2 SWAP1 POP JUMP JUMPDEST PUSH32 0x4E487B7100000000000000000000000000000000000000000000000000000000 PUSH1 0x0 MSTORE PUSH1 0x12 PUSH1 0x4 MSTORE PUSH1 0x24 PUSH1 0x0 REVERT JUMPDEST PUSH1 0x0 PUSH2 0x4BC DUP3 PUSH2 0x266 JUMP JUMPDEST SWAP2 POP PUSH2 0x4C7 DUP4 PUSH2 0x266 JUMP JUMPDEST SWAP3 POP DUP3 PUSH2 0x4D7 JUMPI PUSH2 0x4D6 PUSH2 0x482 JUMP JUMPDEST JUMPDEST DUP3 DUP3 DIV SWAP1 POP SWAP3 SWAP2 POP POP JUMP INVALID LOG2 PUSH5 0x6970667358 0x22 SLT KECCAK256 EXTCODEHASH 0xD2 SHL SWAP2 EXTCODECOPY SWAP5 PUSH27 0x4B4F387DD445479F2E427E71A5540A4157CA35036D3336A54E6473 PUSH16 0x6C634300081200330000000000000000 "
		},
		"gasEstimates": {
			"creation": {
				"codeDepositCost": "260800",
				"executionCost": "328",
				"totalCost": "261128"
			},
			"external": {
				"divide(uint256,uint256)": "infinite",
				"max(uint256,uint256)": "infinite",
				"min(uint256,uint256)": "infinite",
				"minus(uint256,uint256)": "infinite",
				"multi(uint256,uint256)": "infinite",
				"plus(uint256,uint256)": "infinite"
			}
		},
		"methodIdentifiers": {
			"divide(uint256,uint256)": "f88e9fbf",
			"max(uint256,uint256)": "6d5433e6",
			"min(uint256,uint256)": "7ae2b5c7",
			"minus(uint256,uint256)": "f4f3bdc1",
			"multi(uint256,uint256)": "5171762c",
			"plus(uint256,uint256)": "66098d4f"
		}
	},
	"abi": [
		{
			"inputs": [
				{
					"internalType": "uint256",
					"name": "x",
					"type": "uint256"
				},
				{
					"internalType": "uint256",
					"name": "y",
					"type": "uint256"
				}
			],
			"name": "divide",
			"outputs": [
				{
					"internalType": "uint256",
					"name": "",
					"type": "uint256"
				}
			],
			"stateMutability": "pure",
			"type": "function"
		},
		{
			"inputs": [
				{
					"internalType": "uint256",
					"name": "x",
					"type": "uint256"
				},
				{
					"internalType": "uint256",
					"name": "y",
					"type": "uint256"
				}
			],
			"name": "max",
			"outputs": [
				{
					"internalType": "uint256",
					"name": "",
					"type": "uint256"
				}
			],
			"stateMutability": "pure",
			"type": "function"
		},
		{
			"inputs": [
				{
					"internalType": "uint256",
					"name": "x",
					"type": "uint256"
				},
				{
					"internalType": "uint256",
					"name": "y",
					"type": "uint256"
				}
			],
			"name": "min",
			"outputs": [
				{
					"internalType": "uint256",
					"name": "",
					"type": "uint256"
				}
			],
			"stateMutability": "pure",
			"type": "function"
		},
		{
			"inputs": [
				{
					"internalType": "uint256",
					"name": "x",
					"type": "uint256"
				},
				{
					"internalType": "uint256",
					"name": "y",
					"type": "uint256"
				}
			],
			"name": "minus",
			"outputs": [
				{
					"internalType": "uint256",
					"name": "",
					"type": "uint256"
				}
			],
			"stateMutability": "pure",
			"type": "function"
		},
		{
			"inputs": [
				{
					"internalType": "uint256",
					"name": "x",
					"type": "uint256"
				},
				{
					"internalType": "uint256",
					"name": "y",
					"type": "uint256"
				}
			],
			"name": "multi",
			"outputs": [
				{
					"internalType": "uint256",
					"name": "",
					"type": "uint256"
				}
			],
			"stateMutability": "pure",
			"type": "function"
		},
		{
			"inputs": [
				{
					"internalType": "uint256",
					"name": "x",
					"type": "uint256"
				},
				{
					"internalType": "uint256",
					"name": "y",
					"type": "uint256"
				}
			],
			"name": "plus",
			"outputs": [
				{
					"internalType": "uint256",
					"name": "",
					"type": "uint256"
				}
			],
			"stateMutability": "pure",
			"type": "function"
		}
	]
}